{
  "contractName": "aureus",
  "abi": [
    {
      "inputs": [
        {
          "internalType": "address",
          "name": "tokenaddr",
          "type": "address"
        },
        {
          "internalType": "address",
          "name": "nftaddr",
          "type": "address"
        }
      ],
      "stateMutability": "nonpayable",
      "type": "constructor"
    },
    {
      "inputs": [],
      "name": "start",
      "outputs": [],
      "stateMutability": "nonpayable",
      "type": "function"
    },
    {
      "inputs": [
        {
          "internalType": "uint256",
          "name": "gameid",
          "type": "uint256"
        }
      ],
      "name": "join",
      "outputs": [],
      "stateMutability": "nonpayable",
      "type": "function"
    },
    {
      "inputs": [
        {
          "internalType": "uint256",
          "name": "gameid",
          "type": "uint256"
        },
        {
          "internalType": "bytes32",
          "name": "move",
          "type": "bytes32"
        }
      ],
      "name": "playmove1",
      "outputs": [],
      "stateMutability": "nonpayable",
      "type": "function"
    },
    {
      "inputs": [
        {
          "internalType": "uint256",
          "name": "gameid",
          "type": "uint256"
        },
        {
          "internalType": "uint256",
          "name": "move",
          "type": "uint256"
        }
      ],
      "name": "reversemove",
      "outputs": [],
      "stateMutability": "nonpayable",
      "type": "function"
    },
    {
      "inputs": [
        {
          "internalType": "uint256",
          "name": "gameid",
          "type": "uint256"
        },
        {
          "internalType": "uint256",
          "name": "move",
          "type": "uint256"
        }
      ],
      "name": "revealmove",
      "outputs": [],
      "stateMutability": "nonpayable",
      "type": "function"
    },
    {
      "inputs": [
        {
          "internalType": "uint256",
          "name": "gameid",
          "type": "uint256"
        }
      ],
      "name": "finalize",
      "outputs": [],
      "stateMutability": "nonpayable",
      "type": "function"
    }
  ],
  "bytecode": "0x60806040523480156200001157600080fd5b5060405162001ac538038062001ac583398181016040528101906200003791906200012a565b80600160006101000a81548173ffffffffffffffffffffffffffffffffffffffff021916908373ffffffffffffffffffffffffffffffffffffffff160217905550816000806101000a81548173ffffffffffffffffffffffffffffffffffffffff021916908373ffffffffffffffffffffffffffffffffffffffff160217905550505062000171565b600080fd5b600073ffffffffffffffffffffffffffffffffffffffff82169050919050565b6000620000f282620000c5565b9050919050565b6200010481620000e5565b81146200011057600080fd5b50565b6000815190506200012481620000f9565b92915050565b60008060408385031215620001445762000143620000c0565b5b6000620001548582860162000113565b9250506020620001678582860162000113565b9150509250929050565b61194480620001816000396000f3fe608060405234801561001057600080fd5b50600436106100625760003560e01c8063049878f31461006757806305261aea146100835780632666d9741461009f5780633cb4d99c146100bb57806364c42fbe146100d7578063be9a6555146100f3575b600080fd5b610081600480360381019061007c9190611260565b6100fd565b005b61009d60048036038101906100989190611260565b610449565b005b6100b960048036038101906100b4919061128d565b6109a2565b005b6100d560048036038101906100d0919061128d565b610b0b565b005b6100f160048036038101906100ec9190611303565b610d5c565b005b6100fb610ec2565b005b600a60008054906101000a900473ffffffffffffffffffffffffffffffffffffffff1673ffffffffffffffffffffffffffffffffffffffff166370a08231336040518263ffffffff1660e01b81526004016101589190611384565b602060405180830381865afa158015610175573d6000803e3d6000fd5b505050506040513d601f19601f8201168201806040525081019061019991906113b4565b116101d9576040517f08c379a00000000000000000000000000000000000000000000000000000000081526004016101d09061143e565b60405180910390fd5b600a60008054906101000a900473ffffffffffffffffffffffffffffffffffffffff1673ffffffffffffffffffffffffffffffffffffffff1663dd62ed3e33306040518363ffffffff1660e01b815260040161023692919061145e565b602060405180830381865afa158015610253573d6000803e3d6000fd5b505050506040513d601f19601f8201168201806040525081019061027791906113b4565b116102b7576040517f08c379a00000000000000000000000000000000000000000000000000000000081526004016102ae906114d3565b60405180910390fd5b60008054906101000a900473ffffffffffffffffffffffffffffffffffffffff1673ffffffffffffffffffffffffffffffffffffffff166323b872dd3330600a6040518463ffffffff1660e01b815260040161031593929190611538565b6020604051808303816000875af1158015610334573d6000803e3d6000fd5b505050506040513d601f19601f8201168201806040525081019061035891906115a7565b506000600260008381526020019081526020016000209050600015158160070160029054906101000a900460ff161515146103c8576040517f08c379a00000000000000000000000000000000000000000000000000000000081526004016103bf906114d3565b60405180910390fd5b338160050160006101000a81548173ffffffffffffffffffffffffffffffffffffffff021916908373ffffffffffffffffffffffffffffffffffffffff16021790555060018160070160016101000a81548160ff02191690831515021790555060018160070160006101000a81548160ff0219169083151502179055505050565b600060026000838152602001908152602001600020905060038160060154146104a7576040517f08c379a000000000000000000000000000000000000000000000000000000000815260040161049e90611620565b60405180910390fd5b600015158160070160029054906101000a900460ff161515146104ff576040517f08c379a00000000000000000000000000000000000000000000000000000000081526004016104f6906114d3565b60405180910390fd5b60008060005b6003811015610652578360020160008281526020019081526020016000205484600301600083815260200190815260200160002054031561063f57836002016000828152602001908152602001600020548460030160008381526020019081526020016000205411156105da576003846003016000838152602001908152602001600020541480156105ac5750600184600201600083815260200190815260200160002054145b156105c5576001826105be919061166f565b91506105d5565b6001836105d2919061166f565b92505b61063e565b6003846002016000838152602001908152602001600020541480156106145750600184600301600083815260200190815260200160002054145b1561062d57600183610626919061166f565b925061063d565b60018261063a919061166f565b91505b5b5b808061064a906116a3565b915050610505565b50808211156107245760008054906101000a900473ffffffffffffffffffffffffffffffffffffffff1673ffffffffffffffffffffffffffffffffffffffff1663a9059cbb8460040160009054906101000a900473ffffffffffffffffffffffffffffffffffffffff1660126040518363ffffffff1660e01b81526004016106db92919061177b565b6020604051808303816000875af11580156106fa573d6000803e3d6000fd5b505050506040513d601f19601f8201168201806040525081019061071e91906115a7565b5061097f565b818111156107f55760008054906101000a900473ffffffffffffffffffffffffffffffffffffffff1673ffffffffffffffffffffffffffffffffffffffff1663a9059cbb8460050160009054906101000a900473ffffffffffffffffffffffffffffffffffffffff1660126040518363ffffffff1660e01b81526004016107ac92919061177b565b6020604051808303816000875af11580156107cb573d6000803e3d6000fd5b505050506040513d601f19601f820116820180604052508101906107ef91906115a7565b5061097e565b60008054906101000a900473ffffffffffffffffffffffffffffffffffffffff1673ffffffffffffffffffffffffffffffffffffffff1663a9059cbb8460040160009054906101000a900473ffffffffffffffffffffffffffffffffffffffff1660096040518363ffffffff1660e01b81526004016108759291906117df565b6020604051808303816000875af1158015610894573d6000803e3d6000fd5b505050506040513d601f19601f820116820180604052508101906108b891906115a7565b5060008054906101000a900473ffffffffffffffffffffffffffffffffffffffff1673ffffffffffffffffffffffffffffffffffffffff1663a9059cbb8460050160009054906101000a900473ffffffffffffffffffffffffffffffffffffffff1660096040518363ffffffff1660e01b81526004016109399291906117df565b6020604051808303816000875af1158015610958573d6000803e3d6000fd5b505050506040513d601f19601f8201168201806040525081019061097c91906115a7565b505b5b60018360070160026101000a81548160ff02191690831515021790555050505050565b600060026000848152602001908152602001600020905060008160070160006101000a81548160ff02191690831515021790556109de57600080fd5b600015158160070160029054906101000a900460ff16151514610a36576040517f08c379a0000000000000000000000000000000000000000000000000000000008152600401610a2d906114d3565b60405180910390fd5b6000801b816001016000836006015481526020019081526020016000205403610a5e57600080fd5b8060050160009054906101000a900473ffffffffffffffffffffffffffffffffffffffff1673ffffffffffffffffffffffffffffffffffffffff163373ffffffffffffffffffffffffffffffffffffffff1614610aba57600080fd5b6003816006015410610acb57600080fd5b81816002016000836006015481526020019081526020016000208190555060018160070160006101000a81548160ff021916908315150217905550505050565b600060026000848152602001908152602001600020905060018160070160006101000a81548160ff0219169083151502179055610b4757600080fd5b600015158160070160029054906101000a900460ff16151514610b9f576040517f08c379a0000000000000000000000000000000000000000000000000000000008152600401610b96906114d3565b60405180910390fd5b6000801b816001016000836006015481526020019081526020016000205403610bc757600080fd5b6000816002016000836006015481526020019081526020016000205403610bed57600080fd5b8060040160009054906101000a900473ffffffffffffffffffffffffffffffffffffffff1673ffffffffffffffffffffffffffffffffffffffff163373ffffffffffffffffffffffffffffffffffffffff1614610c4957600080fd5b8060010160008260060154815260200190815260200160002054600283604051602001610c769190611829565b604051602081830303815290604052604051610c9291906118b5565b602060405180830381855afa158015610caf573d6000803e3d6000fd5b5050506040513d601f19601f82011682018060405250810190610cd291906118e1565b14610cdc57600080fd5b6003816006015410610ced57600080fd5b81816003016000836006015481526020019081526020016000208190555060018160070160006101000a81548160ff02191690831515021790555060018160060154610d39919061166f565b81600601819055506003816006015403610d5757610d5683610449565b5b505050565b6000600260008481526020019081526020016000209050600115158160070160009054906101000a900460ff16151514610d9557600080fd5b600015158160070160029054906101000a900460ff16151514610ded576040517f08c379a0000000000000000000000000000000000000000000000000000000008152600401610de4906114d3565b60405180910390fd5b6000801b816001016000836006015481526020019081526020016000205414610e1557600080fd5b6003816006015410610e2657600080fd5b8060040160009054906101000a900473ffffffffffffffffffffffffffffffffffffffff1673ffffffffffffffffffffffffffffffffffffffff163373ffffffffffffffffffffffffffffffffffffffff1614610e8257600080fd5b81816001016000836006015481526020019081526020016000208190555060008160070160006101000a81548160ff021916908315150217905550505050565b60006002600060035481526020019081526020016000209050600a60008054906101000a900473ffffffffffffffffffffffffffffffffffffffff1673ffffffffffffffffffffffffffffffffffffffff166370a08231336040518263ffffffff1660e01b8152600401610f369190611384565b602060405180830381865afa158015610f53573d6000803e3d6000fd5b505050506040513d601f19601f82011682018060405250810190610f7791906113b4565b11610fb7576040517f08c379a0000000000000000000000000000000000000000000000000000000008152600401610fae9061143e565b60405180910390fd5b600a60008054906101000a900473ffffffffffffffffffffffffffffffffffffffff1673ffffffffffffffffffffffffffffffffffffffff1663dd62ed3e33306040518363ffffffff1660e01b815260040161101492919061145e565b602060405180830381865afa158015611031573d6000803e3d6000fd5b505050506040513d601f19601f8201168201806040525081019061105591906113b4565b11611095576040517f08c379a000000000000000000000000000000000000000000000000000000000815260040161108c906114d3565b60405180910390fd5b60008054906101000a900473ffffffffffffffffffffffffffffffffffffffff1673ffffffffffffffffffffffffffffffffffffffff166323b872dd3330600a6040518463ffffffff1660e01b81526004016110f393929190611538565b6020604051808303816000875af1158015611112573d6000803e3d6000fd5b505050506040513d601f19601f8201168201806040525081019061113691906115a7565b5060035481600001819055506000816006018190555060008160070160026101000a81548160ff02191690831515021790555060008160070160016101000a81548160ff021916908315150217905550338160040160006101000a81548173ffffffffffffffffffffffffffffffffffffffff021916908373ffffffffffffffffffffffffffffffffffffffff16021790555060008160050160006101000a81548173ffffffffffffffffffffffffffffffffffffffff021916908373ffffffffffffffffffffffffffffffffffffffff160217905550600160035461121c919061166f565b60038190555050565b600080fd5b6000819050919050565b61123d8161122a565b811461124857600080fd5b50565b60008135905061125a81611234565b92915050565b60006020828403121561127657611275611225565b5b60006112848482850161124b565b91505092915050565b600080604083850312156112a4576112a3611225565b5b60006112b28582860161124b565b92505060206112c38582860161124b565b9150509250929050565b6000819050919050565b6112e0816112cd565b81146112eb57600080fd5b50565b6000813590506112fd816112d7565b92915050565b6000806040838503121561131a57611319611225565b5b60006113288582860161124b565b9250506020611339858286016112ee565b9150509250929050565b600073ffffffffffffffffffffffffffffffffffffffff82169050919050565b600061136e82611343565b9050919050565b61137e81611363565b82525050565b60006020820190506113996000830184611375565b92915050565b6000815190506113ae81611234565b92915050565b6000602082840312156113ca576113c9611225565b5b60006113d88482850161139f565b91505092915050565b600082825260208201905092915050565b7f62616c616e6365206c6f77000000000000000000000000000000000000000000600082015250565b6000611428600b836113e1565b9150611433826113f2565b602082019050919050565b600060208201905081810360008301526114578161141b565b9050919050565b60006040820190506114736000830185611375565b6114806020830184611375565b9392505050565b7f616464206d6f726520616c6c6f77616e63650000000000000000000000000000600082015250565b60006114bd6012836113e1565b91506114c882611487565b602082019050919050565b600060208201905081810360008301526114ec816114b0565b9050919050565b6000819050919050565b6000819050919050565b600061152261151d611518846114f3565b6114fd565b61122a565b9050919050565b61153281611507565b82525050565b600060608201905061154d6000830186611375565b61155a6020830185611375565b6115676040830184611529565b949350505050565b60008115159050919050565b6115848161156f565b811461158f57600080fd5b50565b6000815190506115a18161157b565b92915050565b6000602082840312156115bd576115bc611225565b5b60006115cb84828501611592565b91505092915050565b7f746865206d6f7665206973206e6f742033000000000000000000000000000000600082015250565b600061160a6011836113e1565b9150611615826115d4565b602082019050919050565b60006020820190508181036000830152611639816115fd565b9050919050565b7f4e487b7100000000000000000000000000000000000000000000000000000000600052601160045260246000fd5b600061167a8261122a565b91506116858361122a565b925082820190508082111561169d5761169c611640565b5b92915050565b60006116ae8261122a565b91507fffffffffffffffffffffffffffffffffffffffffffffffffffffffffffffffff82036116e0576116df611640565b5b600182019050919050565b60006117066117016116fc84611343565b6114fd565b611343565b9050919050565b6000611718826116eb565b9050919050565b600061172a8261170d565b9050919050565b61173a8161171f565b82525050565b6000819050919050565b600061176561176061175b84611740565b6114fd565b61122a565b9050919050565b6117758161174a565b82525050565b60006040820190506117906000830185611731565b61179d602083018461176c565b9392505050565b6000819050919050565b60006117c96117c46117bf846117a4565b6114fd565b61122a565b9050919050565b6117d9816117ae565b82525050565b60006040820190506117f46000830185611731565b61180160208301846117d0565b9392505050565b6000819050919050565b61182361181e8261122a565b611808565b82525050565b60006118358284611812565b60208201915081905092915050565b600081519050919050565b600081905092915050565b60005b8381101561187857808201518184015260208101905061185d565b60008484015250505050565b600061188f82611844565b611899818561184f565b93506118a981856020860161185a565b80840191505092915050565b60006118c18284611884565b915081905092915050565b6000815190506118db816112d7565b92915050565b6000602082840312156118f7576118f6611225565b5b6000611905848285016118cc565b9150509291505056fea264697066735822122068942580265794dde68055f8dcb3b70883799687c61d3f7653a3f90433611cd564736f6c63430008120033",
  "immutableReferences": {},
  "source": "// SPDX-License-Identifier: MIT\npragma solidity 0.8.18;\nimport \"@openzeppelin/contracts/utils/Strings.sol\";\n\n\nimport \"@openzeppelin/contracts/utils/introspection/IERC165.sol\";\n\ninterface ERC20 {\n    function totalSupply() external view returns (uint supply);\n    function balanceOf(address _owner) external view returns (uint balance);\n    function transfer(address _to, uint _value) external returns (bool success);\n    function transferFrom(address _from, address _to, uint _value) external returns (bool success);\n    function approve(address _spender, uint _value) external returns (bool success);\n    function allowance(address _owner, address _spender) external view returns (uint remaining);\n    function decimals() external view returns(uint digits);\n    event Approval(address indexed _owner, address indexed _spender, uint _value);\n}\n\ninterface IERC1155 is IERC165 {\n    event TransferSingle(address indexed operator, address indexed from, address indexed to, uint256 id, uint256 value);\n\n    event TransferBatch(\n        address indexed operator,\n        address indexed from,\n        address indexed to,\n        uint256[] ids,\n        uint256[] values\n    );\n    event ApprovalForAll(address indexed account, address indexed operator, bool approved);\n    event URI(string value, uint256 indexed id);\nfunction balanceOf(address account, uint256 id) external view returns (uint256);\n\n    function balanceOfBatch(\n        address[] calldata accounts,\n        uint256[] calldata ids\n    ) external view returns (uint256[] memory);\n    function setApprovalForAll(address operator, bool approved) external;\n\n    function isApprovedForAll(address account, address operator) external view returns (bool);\n\n    function safeTransferFrom(address from, address to, uint256 id, uint256 amount, bytes calldata data) external;\n\n    \n    function safeBatchTransferFrom(\n        address from,\n        address to,\n        uint256[] calldata ids,\n        uint256[] calldata amounts,\n        bytes calldata data\n    ) external;\n}\n\n\n\ncontract aureus {\n\n\nERC20 token;\nIERC1155 nft;\n struct Game {\n    uint gameid;\n    mapping(uint => bytes32) player1movehide;\n    mapping(uint => uint) player2move;\n    mapping(uint => uint) player1move;\n    address player1;\n    address player2;\n    uint currentmove ;\n    bool player1turn;\n    bool gamestarted;\n    bool gameeneded;\n    uint gamewinner;\n }\n\nmapping (uint => Game) games;\nuint gamecount;\n\nconstructor(address tokenaddr,address nftaddr){\n    nft = IERC1155(nftaddr);\n    token = ERC20(tokenaddr);\n}\n\n\nfunction start() public{\n     Game storage newGame = games[gamecount];\n     require(token.balanceOf(msg.sender) > 10,\"balance low\");\n     require(token.allowance(msg.sender,address(this))> 10,\"add more allowance\");\n    \n     token.transferFrom(msg.sender,address(this),10);\n     newGame.gameid  = gamecount;\n     newGame.currentmove = 0;\n     newGame.gameeneded = false;\n     newGame.gamestarted = false;\n     newGame.player1 = msg.sender;\n    newGame.player2 = address(0);\n    gamecount = gamecount+1;\n\n\n}\n\nfunction join(uint gameid) public {\n         require(token.balanceOf(msg.sender) > 10,\"balance low\");\n     require(token.allowance(msg.sender,address(this))> 10,\"add more allowance\");\n    \n     token.transferFrom(msg.sender,address(this),10);\n\n    Game storage game = games[gameid];\n     require(game.gameeneded == false,\"add more allowance\");\n    \n    game.player2 = msg.sender;\n    game.gamestarted = true;\n    game.player1turn = true;\n\n\n}\n\nfunction playmove1(uint gameid,bytes32 move) public{\n    Game storage game = games[gameid];\n    require(game.player1turn == true);\n     require(game.gameeneded == false,\"add more allowance\");\n    \n    require(game.player1movehide[game.currentmove] == 0);\n    require(game.currentmove<3);\n       require(msg.sender == game.player1);\n    game.player1movehide[game.currentmove] = move;\n    game.player1turn = false;\n}\n\nfunction reversemove(uint gameid,uint move) public{\n    Game storage game = games[gameid];\n    require(game.player1turn = false);\n     require(game.gameeneded == false,\"add more allowance\");\n    \n    require(game.player1movehide[game.currentmove]!= 0);\n    require(msg.sender == game.player2);\n    require(game.currentmove<3);\n    \n    game.player2move[game.currentmove] = move;\n    game.player1turn = true;\n\n\n\n\n}\n\nfunction revealmove(uint gameid,uint move) public{\n    Game storage game = games[gameid];\n    require(game.player1turn = true);\n     require(game.gameeneded == false,\"add more allowance\");\n    \n    require(game.player1movehide[game.currentmove]!= 0);    \n    require(game.player2move[game.currentmove] != 0);\n       require(msg.sender == game.player1);\n   require(sha256(abi.encodePacked(move)) == game.player1movehide[game.currentmove]);\n   require(game.currentmove<3);\n    \n    game.player1move[game.currentmove] = move;\n    game.player1turn = true;\n    game.currentmove = game.currentmove+1;\n    if(game.currentmove == 3){\n        finalize(gameid);\n    }\n}\n// 1=wand 2-talwar 3-defense\n\nfunction finalize(uint gameid) public {\n    Game storage game = games[gameid];\n    require(game.currentmove == 3,\"the move is not 3\");\n     require(game.gameeneded == false,\"add more allowance\");\n    \n    uint player1point;\n    uint player2point;\n    \n    for(uint i=0; i<3; i++){\n        if(game.player1move[i] == game.player2move[i]){\n\n        }\n        else if(game.player1move[i]>game.player2move[i]){\n            if(((game.player1move[i]) == 3)&&(game.player2move[i] == 1)){\n                player2point = player2point+1;\n            }\n\n            else{\n                player1point = player1point+1;\n            }\n        }\n\n        else{\n             if(((game.player2move[i]) == 3)&&(game.player1move[i] == 1)){\n                player1point = player1point+1;\n            }\n\n            else{\n                player2point = player2point+1;\n            }\n\n        }\n\n\n     }\n\n     if(player1point > player2point){\n        token.transfer(payable(game.player1),18);\n\n     }\n     else if(player2point > player1point){\n        token.transfer(payable(game.player2),18);\n\n     }\n    else{\n        token.transfer(payable(game.player1),9);\n        token.transfer(payable(game.player2),9);\n        \n    }\n    game.gameeneded = true;\n\n\n\n\n\n}\n\n}",
  "sourcePath": "/workspace/game-contract/contracts/game.sol",
  "compiler": {
    "name": "solc",
    "version": "0.8.18+commit.87f61d96.Emscripten.clang"
  },
  "schemaVersion": "3.4.11",
  "updatedAt": "2023-02-13T13:27:40.139Z",
  "devdoc": {
    "kind": "dev",
    "methods": {},
    "version": 1
  },
  "userdoc": {
    "kind": "user",
    "methods": {},
    "version": 1
  }
}