{
  "contractName": "ERC1155LazyMint",
  "abi": [
    {
      "inputs": [
        {
          "internalType": "string",
          "name": "_name",
          "type": "string"
        },
        {
          "internalType": "string",
          "name": "_symbol",
          "type": "string"
        },
        {
          "internalType": "address",
          "name": "_royaltyRecipient",
          "type": "address"
        },
        {
          "internalType": "uint128",
          "name": "_royaltyBps",
          "type": "uint128"
        }
      ],
      "stateMutability": "nonpayable",
      "type": "constructor"
    },
    {
      "inputs": [
        {
          "internalType": "address",
          "name": "operator",
          "type": "address"
        }
      ],
      "name": "OperatorNotAllowed",
      "type": "error"
    },
    {
      "anonymous": false,
      "inputs": [
        {
          "indexed": true,
          "internalType": "address",
          "name": "_owner",
          "type": "address"
        },
        {
          "indexed": true,
          "internalType": "address",
          "name": "_operator",
          "type": "address"
        },
        {
          "indexed": false,
          "internalType": "bool",
          "name": "_approved",
          "type": "bool"
        }
      ],
      "name": "ApprovalForAll",
      "type": "event"
    },
    {
      "anonymous": false,
      "inputs": [
        {
          "indexed": false,
          "internalType": "string",
          "name": "prevURI",
          "type": "string"
        },
        {
          "indexed": false,
          "internalType": "string",
          "name": "newURI",
          "type": "string"
        }
      ],
      "name": "ContractURIUpdated",
      "type": "event"
    },
    {
      "anonymous": false,
      "inputs": [
        {
          "indexed": true,
          "internalType": "address",
          "name": "newRoyaltyRecipient",
          "type": "address"
        },
        {
          "indexed": false,
          "internalType": "uint256",
          "name": "newRoyaltyBps",
          "type": "uint256"
        }
      ],
      "name": "DefaultRoyalty",
      "type": "event"
    },
    {
      "anonymous": false,
      "inputs": [
        {
          "indexed": false,
          "internalType": "bool",
          "name": "restriction",
          "type": "bool"
        }
      ],
      "name": "OperatorRestriction",
      "type": "event"
    },
    {
      "anonymous": false,
      "inputs": [
        {
          "indexed": true,
          "internalType": "address",
          "name": "prevOwner",
          "type": "address"
        },
        {
          "indexed": true,
          "internalType": "address",
          "name": "newOwner",
          "type": "address"
        }
      ],
      "name": "OwnerUpdated",
      "type": "event"
    },
    {
      "anonymous": false,
      "inputs": [
        {
          "indexed": true,
          "internalType": "uint256",
          "name": "tokenId",
          "type": "uint256"
        },
        {
          "indexed": true,
          "internalType": "address",
          "name": "royaltyRecipient",
          "type": "address"
        },
        {
          "indexed": false,
          "internalType": "uint256",
          "name": "royaltyBps",
          "type": "uint256"
        }
      ],
      "name": "RoyaltyForToken",
      "type": "event"
    },
    {
      "anonymous": false,
      "inputs": [
        {
          "indexed": true,
          "internalType": "address",
          "name": "claimer",
          "type": "address"
        },
        {
          "indexed": true,
          "internalType": "address",
          "name": "receiver",
          "type": "address"
        },
        {
          "indexed": true,
          "internalType": "uint256",
          "name": "tokenId",
          "type": "uint256"
        },
        {
          "indexed": false,
          "internalType": "uint256",
          "name": "quantityClaimed",
          "type": "uint256"
        }
      ],
      "name": "TokensClaimed",
      "type": "event"
    },
    {
      "anonymous": false,
      "inputs": [
        {
          "indexed": true,
          "internalType": "uint256",
          "name": "startTokenId",
          "type": "uint256"
        },
        {
          "indexed": false,
          "internalType": "uint256",
          "name": "endTokenId",
          "type": "uint256"
        },
        {
          "indexed": false,
          "internalType": "string",
          "name": "baseURI",
          "type": "string"
        },
        {
          "indexed": false,
          "internalType": "bytes",
          "name": "encryptedBaseURI",
          "type": "bytes"
        }
      ],
      "name": "TokensLazyMinted",
      "type": "event"
    },
    {
      "anonymous": false,
      "inputs": [
        {
          "indexed": true,
          "internalType": "address",
          "name": "_operator",
          "type": "address"
        },
        {
          "indexed": true,
          "internalType": "address",
          "name": "_from",
          "type": "address"
        },
        {
          "indexed": true,
          "internalType": "address",
          "name": "_to",
          "type": "address"
        },
        {
          "indexed": false,
          "internalType": "uint256[]",
          "name": "_ids",
          "type": "uint256[]"
        },
        {
          "indexed": false,
          "internalType": "uint256[]",
          "name": "_values",
          "type": "uint256[]"
        }
      ],
      "name": "TransferBatch",
      "type": "event"
    },
    {
      "anonymous": false,
      "inputs": [
        {
          "indexed": true,
          "internalType": "address",
          "name": "_operator",
          "type": "address"
        },
        {
          "indexed": true,
          "internalType": "address",
          "name": "_from",
          "type": "address"
        },
        {
          "indexed": true,
          "internalType": "address",
          "name": "_to",
          "type": "address"
        },
        {
          "indexed": false,
          "internalType": "uint256",
          "name": "_id",
          "type": "uint256"
        },
        {
          "indexed": false,
          "internalType": "uint256",
          "name": "_value",
          "type": "uint256"
        }
      ],
      "name": "TransferSingle",
      "type": "event"
    },
    {
      "anonymous": false,
      "inputs": [
        {
          "indexed": false,
          "internalType": "string",
          "name": "_value",
          "type": "string"
        },
        {
          "indexed": true,
          "internalType": "uint256",
          "name": "_id",
          "type": "uint256"
        }
      ],
      "name": "URI",
      "type": "event"
    },
    {
      "inputs": [],
      "name": "OPERATOR_FILTER_REGISTRY",
      "outputs": [
        {
          "internalType": "contract IOperatorFilterRegistry",
          "name": "",
          "type": "address"
        }
      ],
      "stateMutability": "view",
      "type": "function"
    },
    {
      "inputs": [
        {
          "internalType": "address",
          "name": "",
          "type": "address"
        },
        {
          "internalType": "uint256",
          "name": "",
          "type": "uint256"
        }
      ],
      "name": "balanceOf",
      "outputs": [
        {
          "internalType": "uint256",
          "name": "",
          "type": "uint256"
        }
      ],
      "stateMutability": "view",
      "type": "function"
    },
    {
      "inputs": [
        {
          "internalType": "address[]",
          "name": "accounts",
          "type": "address[]"
        },
        {
          "internalType": "uint256[]",
          "name": "ids",
          "type": "uint256[]"
        }
      ],
      "name": "balanceOfBatch",
      "outputs": [
        {
          "internalType": "uint256[]",
          "name": "",
          "type": "uint256[]"
        }
      ],
      "stateMutability": "view",
      "type": "function"
    },
    {
      "inputs": [],
      "name": "contractURI",
      "outputs": [
        {
          "internalType": "string",
          "name": "",
          "type": "string"
        }
      ],
      "stateMutability": "view",
      "type": "function"
    },
    {
      "inputs": [],
      "name": "getBaseURICount",
      "outputs": [
        {
          "internalType": "uint256",
          "name": "",
          "type": "uint256"
        }
      ],
      "stateMutability": "view",
      "type": "function"
    },
    {
      "inputs": [
        {
          "internalType": "uint256",
          "name": "_index",
          "type": "uint256"
        }
      ],
      "name": "getBatchIdAtIndex",
      "outputs": [
        {
          "internalType": "uint256",
          "name": "",
          "type": "uint256"
        }
      ],
      "stateMutability": "view",
      "type": "function"
    },
    {
      "inputs": [],
      "name": "getDefaultRoyaltyInfo",
      "outputs": [
        {
          "internalType": "address",
          "name": "",
          "type": "address"
        },
        {
          "internalType": "uint16",
          "name": "",
          "type": "uint16"
        }
      ],
      "stateMutability": "view",
      "type": "function"
    },
    {
      "inputs": [
        {
          "internalType": "uint256",
          "name": "_tokenId",
          "type": "uint256"
        }
      ],
      "name": "getRoyaltyInfoForToken",
      "outputs": [
        {
          "internalType": "address",
          "name": "",
          "type": "address"
        },
        {
          "internalType": "uint16",
          "name": "",
          "type": "uint16"
        }
      ],
      "stateMutability": "view",
      "type": "function"
    },
    {
      "inputs": [
        {
          "internalType": "address",
          "name": "",
          "type": "address"
        },
        {
          "internalType": "address",
          "name": "",
          "type": "address"
        }
      ],
      "name": "isApprovedForAll",
      "outputs": [
        {
          "internalType": "bool",
          "name": "",
          "type": "bool"
        }
      ],
      "stateMutability": "view",
      "type": "function"
    },
    {
      "inputs": [
        {
          "internalType": "uint256",
          "name": "_amount",
          "type": "uint256"
        },
        {
          "internalType": "string",
          "name": "_baseURIForTokens",
          "type": "string"
        },
        {
          "internalType": "bytes",
          "name": "_data",
          "type": "bytes"
        }
      ],
      "name": "lazyMint",
      "outputs": [
        {
          "internalType": "uint256",
          "name": "batchId",
          "type": "uint256"
        }
      ],
      "stateMutability": "nonpayable",
      "type": "function"
    },
    {
      "inputs": [
        {
          "internalType": "bytes[]",
          "name": "data",
          "type": "bytes[]"
        }
      ],
      "name": "multicall",
      "outputs": [
        {
          "internalType": "bytes[]",
          "name": "results",
          "type": "bytes[]"
        }
      ],
      "stateMutability": "nonpayable",
      "type": "function"
    },
    {
      "inputs": [],
      "name": "name",
      "outputs": [
        {
          "internalType": "string",
          "name": "",
          "type": "string"
        }
      ],
      "stateMutability": "view",
      "type": "function"
    },
    {
      "inputs": [],
      "name": "operatorRestriction",
      "outputs": [
        {
          "internalType": "bool",
          "name": "",
          "type": "bool"
        }
      ],
      "stateMutability": "view",
      "type": "function"
    },
    {
      "inputs": [],
      "name": "owner",
      "outputs": [
        {
          "internalType": "address",
          "name": "",
          "type": "address"
        }
      ],
      "stateMutability": "view",
      "type": "function"
    },
    {
      "inputs": [
        {
          "internalType": "uint256",
          "name": "tokenId",
          "type": "uint256"
        },
        {
          "internalType": "uint256",
          "name": "salePrice",
          "type": "uint256"
        }
      ],
      "name": "royaltyInfo",
      "outputs": [
        {
          "internalType": "address",
          "name": "receiver",
          "type": "address"
        },
        {
          "internalType": "uint256",
          "name": "royaltyAmount",
          "type": "uint256"
        }
      ],
      "stateMutability": "view",
      "type": "function"
    },
    {
      "inputs": [
        {
          "internalType": "string",
          "name": "_uri",
          "type": "string"
        }
      ],
      "name": "setContractURI",
      "outputs": [],
      "stateMutability": "nonpayable",
      "type": "function"
    },
    {
      "inputs": [
        {
          "internalType": "address",
          "name": "_royaltyRecipient",
          "type": "address"
        },
        {
          "internalType": "uint256",
          "name": "_royaltyBps",
          "type": "uint256"
        }
      ],
      "name": "setDefaultRoyaltyInfo",
      "outputs": [],
      "stateMutability": "nonpayable",
      "type": "function"
    },
    {
      "inputs": [
        {
          "internalType": "bool",
          "name": "_restriction",
          "type": "bool"
        }
      ],
      "name": "setOperatorRestriction",
      "outputs": [],
      "stateMutability": "nonpayable",
      "type": "function"
    },
    {
      "inputs": [
        {
          "internalType": "address",
          "name": "_newOwner",
          "type": "address"
        }
      ],
      "name": "setOwner",
      "outputs": [],
      "stateMutability": "nonpayable",
      "type": "function"
    },
    {
      "inputs": [
        {
          "internalType": "uint256",
          "name": "_tokenId",
          "type": "uint256"
        },
        {
          "internalType": "address",
          "name": "_recipient",
          "type": "address"
        },
        {
          "internalType": "uint256",
          "name": "_bps",
          "type": "uint256"
        }
      ],
      "name": "setRoyaltyInfoForToken",
      "outputs": [],
      "stateMutability": "nonpayable",
      "type": "function"
    },
    {
      "inputs": [],
      "name": "symbol",
      "outputs": [
        {
          "internalType": "string",
          "name": "",
          "type": "string"
        }
      ],
      "stateMutability": "view",
      "type": "function"
    },
    {
      "inputs": [
        {
          "internalType": "uint256",
          "name": "",
          "type": "uint256"
        }
      ],
      "name": "totalSupply",
      "outputs": [
        {
          "internalType": "uint256",
          "name": "",
          "type": "uint256"
        }
      ],
      "stateMutability": "view",
      "type": "function"
    },
    {
      "inputs": [
        {
          "internalType": "uint256",
          "name": "_tokenId",
          "type": "uint256"
        }
      ],
      "name": "uri",
      "outputs": [
        {
          "internalType": "string",
          "name": "",
          "type": "string"
        }
      ],
      "stateMutability": "view",
      "type": "function"
    },
    {
      "inputs": [
        {
          "internalType": "address",
          "name": "_receiver",
          "type": "address"
        },
        {
          "internalType": "uint256",
          "name": "_tokenId",
          "type": "uint256"
        },
        {
          "internalType": "uint256",
          "name": "_quantity",
          "type": "uint256"
        }
      ],
      "name": "claim",
      "outputs": [],
      "stateMutability": "payable",
      "type": "function"
    },
    {
      "inputs": [
        {
          "internalType": "address",
          "name": "_claimer",
          "type": "address"
        },
        {
          "internalType": "uint256",
          "name": "_tokenId",
          "type": "uint256"
        },
        {
          "internalType": "uint256",
          "name": "_quantity",
          "type": "uint256"
        }
      ],
      "name": "verifyClaim",
      "outputs": [],
      "stateMutability": "view",
      "type": "function"
    },
    {
      "inputs": [
        {
          "internalType": "address",
          "name": "_owner",
          "type": "address"
        },
        {
          "internalType": "uint256",
          "name": "_tokenId",
          "type": "uint256"
        },
        {
          "internalType": "uint256",
          "name": "_amount",
          "type": "uint256"
        }
      ],
      "name": "burn",
      "outputs": [],
      "stateMutability": "nonpayable",
      "type": "function"
    },
    {
      "inputs": [
        {
          "internalType": "address",
          "name": "_owner",
          "type": "address"
        },
        {
          "internalType": "uint256[]",
          "name": "_tokenIds",
          "type": "uint256[]"
        },
        {
          "internalType": "uint256[]",
          "name": "_amounts",
          "type": "uint256[]"
        }
      ],
      "name": "burnBatch",
      "outputs": [],
      "stateMutability": "nonpayable",
      "type": "function"
    },
    {
      "inputs": [
        {
          "internalType": "bytes4",
          "name": "interfaceId",
          "type": "bytes4"
        }
      ],
      "name": "supportsInterface",
      "outputs": [
        {
          "internalType": "bool",
          "name": "",
          "type": "bool"
        }
      ],
      "stateMutability": "view",
      "type": "function"
    },
    {
      "inputs": [],
      "name": "nextTokenIdToMint",
      "outputs": [
        {
          "internalType": "uint256",
          "name": "",
          "type": "uint256"
        }
      ],
      "stateMutability": "view",
      "type": "function"
    },
    {
      "inputs": [
        {
          "internalType": "address",
          "name": "operator",
          "type": "address"
        },
        {
          "internalType": "bool",
          "name": "approved",
          "type": "bool"
        }
      ],
      "name": "setApprovalForAll",
      "outputs": [],
      "stateMutability": "nonpayable",
      "type": "function"
    },
    {
      "inputs": [
        {
          "internalType": "address",
          "name": "from",
          "type": "address"
        },
        {
          "internalType": "address",
          "name": "to",
          "type": "address"
        },
        {
          "internalType": "uint256",
          "name": "id",
          "type": "uint256"
        },
        {
          "internalType": "uint256",
          "name": "amount",
          "type": "uint256"
        },
        {
          "internalType": "bytes",
          "name": "data",
          "type": "bytes"
        }
      ],
      "name": "safeTransferFrom",
      "outputs": [],
      "stateMutability": "nonpayable",
      "type": "function"
    },
    {
      "inputs": [
        {
          "internalType": "address",
          "name": "from",
          "type": "address"
        },
        {
          "internalType": "address",
          "name": "to",
          "type": "address"
        },
        {
          "internalType": "uint256[]",
          "name": "ids",
          "type": "uint256[]"
        },
        {
          "internalType": "uint256[]",
          "name": "amounts",
          "type": "uint256[]"
        },
        {
          "internalType": "bytes",
          "name": "data",
          "type": "bytes"
        }
      ],
      "name": "safeBatchTransferFrom",
      "outputs": [],
      "stateMutability": "nonpayable",
      "type": "function"
    }
  ],
  "bytecode": "0x60806040523480156200001157600080fd5b506040516200680438038062006804833981810160405281019062000037919062000721565b733cc6cdda760b79bafa08df41ecfa224f810dceb660018585816000908162000061919062000a1c565b50806001908162000073919062000a1c565b50505060006daaeb6d7670e522a718067333cd4e73ffffffffffffffffffffffffffffffffffffffff163b11156200026b57801562000131576daaeb6d7670e522a718067333cd4e73ffffffffffffffffffffffffffffffffffffffff16637d3e3dbe30846040518363ffffffff1660e01b8152600401620000f792919062000b14565b600060405180830381600087803b1580156200011257600080fd5b505af115801562000127573d6000803e3d6000fd5b505050506200026a565b600073ffffffffffffffffffffffffffffffffffffffff168273ffffffffffffffffffffffffffffffffffffffff1614620001eb576daaeb6d7670e522a718067333cd4e73ffffffffffffffffffffffffffffffffffffffff1663a0af290330846040518363ffffffff1660e01b8152600401620001b192919062000b14565b600060405180830381600087803b158015620001cc57600080fd5b505af1158015620001e1573d6000803e3d6000fd5b5050505062000269565b6daaeb6d7670e522a718067333cd4e73ffffffffffffffffffffffffffffffffffffffff16634420e486306040518263ffffffff1660e01b815260040162000234919062000b41565b600060405180830381600087803b1580156200024f57600080fd5b505af115801562000264573d6000803e3d6000fd5b505050505b5b5b50506001600d819055506200028633620002c660201b60201c565b620002aa82826fffffffffffffffffffffffffffffffff166200038c60201b60201c565b620002bc60016200048660201b60201c565b5050505062000c49565b6000600660009054906101000a900473ffffffffffffffffffffffffffffffffffffffff16905081600660006101000a81548173ffffffffffffffffffffffffffffffffffffffff021916908373ffffffffffffffffffffffffffffffffffffffff1602179055508173ffffffffffffffffffffffffffffffffffffffff168173ffffffffffffffffffffffffffffffffffffffff167f8292fce18fa69edf4db7b94ea2e58241df0ae57f97e0a6c9b29067028bf92d7660405160405180910390a35050565b612710811115620003d4576040517f08c379a0000000000000000000000000000000000000000000000000000000008152600401620003cb9062000bbf565b60405180910390fd5b81600760006101000a81548173ffffffffffffffffffffffffffffffffffffffff021916908373ffffffffffffffffffffffffffffffffffffffff16021790555080600760146101000a81548161ffff021916908361ffff1602179055508173ffffffffffffffffffffffffffffffffffffffff167f90d7ec04bcb8978719414f82e52e4cb651db41d0e6f8cea6118c2191e6183adb826040516200047a919062000bf2565b60405180910390a25050565b80600c60006101000a81548160ff0219169083151502179055507f38475885990d8dfe9ca01f0ef160a1b5514426eab9ddbc953a3353410ba7809681604051620004d1919062000c2c565b60405180910390a150565b6000604051905090565b600080fd5b600080fd5b600080fd5b600080fd5b6000601f19601f8301169050919050565b7f4e487b7100000000000000000000000000000000000000000000000000000000600052604160045260246000fd5b6200054582620004fa565b810181811067ffffffffffffffff821117156200056757620005666200050b565b5b80604052505050565b60006200057c620004dc565b90506200058a82826200053a565b919050565b600067ffffffffffffffff821115620005ad57620005ac6200050b565b5b620005b882620004fa565b9050602081019050919050565b60005b83811015620005e5578082015181840152602081019050620005c8565b60008484015250505050565b60006200060862000602846200058f565b62000570565b905082815260208101848484011115620006275762000626620004f5565b5b62000634848285620005c5565b509392505050565b600082601f830112620006545762000653620004f0565b5b815162000666848260208601620005f1565b91505092915050565b600073ffffffffffffffffffffffffffffffffffffffff82169050919050565b60006200069c826200066f565b9050919050565b620006ae816200068f565b8114620006ba57600080fd5b50565b600081519050620006ce81620006a3565b92915050565b60006fffffffffffffffffffffffffffffffff82169050919050565b620006fb81620006d4565b81146200070757600080fd5b50565b6000815190506200071b81620006f0565b92915050565b600080600080608085870312156200073e576200073d620004e6565b5b600085015167ffffffffffffffff8111156200075f576200075e620004eb565b5b6200076d878288016200063c565b945050602085015167ffffffffffffffff811115620007915762000790620004eb565b5b6200079f878288016200063c565b9350506040620007b287828801620006bd565b9250506060620007c5878288016200070a565b91505092959194509250565b600081519050919050565b7f4e487b7100000000000000000000000000000000000000000000000000000000600052602260045260246000fd5b600060028204905060018216806200082457607f821691505b6020821081036200083a5762000839620007dc565b5b50919050565b60008190508160005260206000209050919050565b60006020601f8301049050919050565b600082821b905092915050565b600060088302620008a47fffffffffffffffffffffffffffffffffffffffffffffffffffffffffffffffff8262000865565b620008b0868362000865565b95508019841693508086168417925050509392505050565b6000819050919050565b6000819050919050565b6000620008fd620008f7620008f184620008c8565b620008d2565b620008c8565b9050919050565b6000819050919050565b6200091983620008dc565b62000931620009288262000904565b84845462000872565b825550505050565b600090565b6200094862000939565b620009558184846200090e565b505050565b5b818110156200097d57620009716000826200093e565b6001810190506200095b565b5050565b601f821115620009cc57620009968162000840565b620009a18462000855565b81016020851015620009b1578190505b620009c9620009c08562000855565b8301826200095a565b50505b505050565b600082821c905092915050565b6000620009f160001984600802620009d1565b1980831691505092915050565b600062000a0c8383620009de565b9150826002028217905092915050565b62000a2782620007d1565b67ffffffffffffffff81111562000a435762000a426200050b565b5b62000a4f82546200080b565b62000a5c82828562000981565b600060209050601f83116001811462000a94576000841562000a7f578287015190505b62000a8b8582620009fe565b86555062000afb565b601f19841662000aa48662000840565b60005b8281101562000ace5784890151825560018201915060208501945060208101905062000aa7565b8683101562000aee578489015162000aea601f891682620009de565b8355505b6001600288020188555050505b505050505050565b62000b0e816200068f565b82525050565b600060408201905062000b2b600083018562000b03565b62000b3a602083018462000b03565b9392505050565b600060208201905062000b58600083018462000b03565b92915050565b600082825260208201905092915050565b7f45786365656473206d6178206270730000000000000000000000000000000000600082015250565b600062000ba7600f8362000b5e565b915062000bb48262000b6f565b602082019050919050565b6000602082019050818103600083015262000bda8162000b98565b9050919050565b62000bec81620008c8565b82525050565b600060208201905062000c09600083018462000be1565b92915050565b60008115159050919050565b62000c268162000c0f565b82525050565b600060208201905062000c43600083018462000c1b565b92915050565b615bab8062000c596000396000f3fe6080604052600436106101e25760003560e01c8063600dd5ea11610102578063ac9650d811610095578063e8a3d48511610064578063e8a3d48514610731578063e985e9c51461075c578063f242432a14610799578063f5298aca146107c2576101e2565b8063ac9650d81461064e578063b24f2d391461068b578063bd85b039146106b7578063d37c353b146106f4576101e2565b8063938e3d7b116100d1578063938e3d7b146105a857806395d89b41146105d15780639bcf7a15146105fc578063a22cb46514610625576101e2565b8063600dd5ea1461050057806363b45e2d146105295780636b20c454146105545780638da5cb5b1461057d576101e2565b80632eb2c2d61161017a5780634bbb1abf116101495780634bbb1abf146104315780634cc157df1461045a5780634e1273f414610498578063504c6e01146104d5576101e2565b80632eb2c2d61461038957806332f0cd64146103b25780633b1475a7146103db57806341f4343414610406576101e2565b806313af4035116101b657806313af4035146102c95780632419f51b146102f25780632a55205a1461032f5780632bc43fd91461036d576101e2565b8062fdd58e146101e757806301ffc9a71461022457806306fdde03146102615780630e89341c1461028c575b600080fd5b3480156101f357600080fd5b5061020e600480360381019061020991906139ee565b6107eb565b60405161021b9190613a3d565b60405180910390f35b34801561023057600080fd5b5061024b60048036038101906102469190613ab0565b610810565b6040516102589190613af8565b60405180910390f35b34801561026d57600080fd5b5061027661090a565b6040516102839190613ba3565b60405180910390f35b34801561029857600080fd5b506102b360048036038101906102ae9190613bc5565b610998565b6040516102c09190613ba3565b60405180910390f35b3480156102d557600080fd5b506102f060048036038101906102eb9190613bf2565b6109d9565b005b3480156102fe57600080fd5b5061031960048036038101906103149190613bc5565b610a2c565b6040516103269190613a3d565b60405180910390f35b34801561033b57600080fd5b5061035660048036038101906103519190613c1f565b610a9d565b604051610364929190613c6e565b60405180910390f35b61038760048036038101906103829190613c97565b610adb565b005b34801561039557600080fd5b506103b060048036038101906103ab9190613ee7565b610bfa565b005b3480156103be57600080fd5b506103d960048036038101906103d49190613fe2565b610c4d565b005b3480156103e757600080fd5b506103f0610ca0565b6040516103fd9190613a3d565b60405180910390f35b34801561041257600080fd5b5061041b610caa565b604051610428919061406e565b60405180910390f35b34801561043d57600080fd5b5061045860048036038101906104539190613c97565b610cbc565b005b34801561046657600080fd5b50610481600480360381019061047c9190613bc5565b610cc1565b60405161048f9291906140a6565b60405180910390f35b3480156104a457600080fd5b506104bf60048036038101906104ba9190614192565b610dcc565b6040516104cc91906142c8565b60405180910390f35b3480156104e157600080fd5b506104ea610f2c565b6040516104f79190613af8565b60405180910390f35b34801561050c57600080fd5b50610527600480360381019061052291906139ee565b610f3f565b005b34801561053557600080fd5b5061053e610f94565b60405161054b9190613a3d565b60405180910390f35b34801561056057600080fd5b5061057b600480360381019061057691906142ea565b610fa1565b005b34801561058957600080fd5b506105926111e2565b60405161059f9190614375565b60405180910390f35b3480156105b457600080fd5b506105cf60048036038101906105ca9190614431565b61120c565b005b3480156105dd57600080fd5b506105e661125f565b6040516105f39190613ba3565b60405180910390f35b34801561060857600080fd5b50610623600480360381019061061e919061447a565b6112ed565b005b34801561063157600080fd5b5061064c600480360381019061064791906144cd565b611344565b005b34801561065a57600080fd5b5061067560048036038101906106709190614568565b61135d565b60405161068291906146cc565b60405180910390f35b34801561069757600080fd5b506106a0611469565b6040516106ae9291906140a6565b60405180910390f35b3480156106c357600080fd5b506106de60048036038101906106d99190613bc5565b6114a8565b6040516106eb9190613a3d565b60405180910390f35b34801561070057600080fd5b5061071b6004803603810190610716919061479a565b6114c0565b6040516107289190613a3d565b60405180910390f35b34801561073d57600080fd5b50610746611611565b6040516107539190613ba3565b60405180910390f35b34801561076857600080fd5b50610783600480360381019061077e919061482f565b61169f565b6040516107909190613af8565b60405180910390f35b3480156107a557600080fd5b506107c060048036038101906107bb919061486f565b6116ce565b005b3480156107ce57600080fd5b506107e960048036038101906107e49190613c97565b611721565b005b6002602052816000526040600020602052806000526040600020600091509150505481565b60006301ffc9a760e01b827bffffffffffffffffffffffffffffffffffffffffffffffffffffffff1916148061086b575063d9b67a2660e01b827bffffffffffffffffffffffffffffffffffffffffffffffffffffffff1916145b8061089b5750630e89341c60e01b827bffffffffffffffffffffffffffffffffffffffffffffffffffffffff1916145b8061090357507f2a55205a000000000000000000000000000000000000000000000000000000007bffffffffffffffffffffffffffffffffffffffffffffffffffffffff1916827bffffffffffffffffffffffffffffffffffffffffffffffffffffffff1916145b9050919050565b6000805461091790614935565b80601f016020809104026020016040519081016040528092919081815260200182805461094390614935565b80156109905780601f1061096557610100808354040283529160200191610990565b820191906000526020600020905b81548152906001019060200180831161097357829003601f168201915b505050505081565b606060006109a5836118c9565b9050806109b184611a6e565b6040516020016109c29291906149a2565b604051602081830303815290604052915050919050565b6109e1611bce565b610a20576040517f08c379a0000000000000000000000000000000000000000000000000000000008152600401610a1790614a12565b60405180910390fd5b610a2981611c0b565b50565b6000610a36610f94565b8210610a77576040517f08c379a0000000000000000000000000000000000000000000000000000000008152600401610a6e90614a7e565b60405180910390fd5b60098281548110610a8b57610a8a614a9e565b5b90600052602060002001549050919050565b600080600080610aac86610cc1565b61ffff16915091508193506127108186610ac69190614afc565b610ad09190614b6d565b925050509250929050565b6002600d5403610b20576040517f08c379a0000000000000000000000000000000000000000000000000000000008152600401610b1790614bea565b60405180910390fd5b6002600d81905550610b30610ca0565b8210610b71576040517f08c379a0000000000000000000000000000000000000000000000000000000008152600401610b6890614c56565b60405180910390fd5b610b7c338383610cbc565b610b87838383611cd1565b818373ffffffffffffffffffffffffffffffffffffffff163373ffffffffffffffffffffffffffffffffffffffff167fff097c7d8b1957a4ff09ef1361b5fb54dcede3941ba836d0beb9d10bec725de684604051610be59190613a3d565b60405180910390a46001600d81905550505050565b843373ffffffffffffffffffffffffffffffffffffffff168173ffffffffffffffffffffffffffffffffffffffff1614610c3857610c3733611cf1565b5b610c458686868686611e04565b505050505050565b610c55611f17565b610c94576040517f08c379a0000000000000000000000000000000000000000000000000000000008152600401610c8b90614ce8565b60405180910390fd5b610c9d81611f54565b50565b6000600b54905090565b6daaeb6d7670e522a718067333cd4e81565b505050565b6000806000600860008581526020019081526020016000206040518060400160405290816000820160009054906101000a900473ffffffffffffffffffffffffffffffffffffffff1673ffffffffffffffffffffffffffffffffffffffff1673ffffffffffffffffffffffffffffffffffffffff1681526020016001820154815250509050600073ffffffffffffffffffffffffffffffffffffffff16816000015173ffffffffffffffffffffffffffffffffffffffff1614610d8d5780600001518160200151610dc2565b600760009054906101000a900473ffffffffffffffffffffffffffffffffffffffff16600760149054906101000a900461ffff165b9250925050915091565b60608151835114610e12576040517f08c379a0000000000000000000000000000000000000000000000000000000008152600401610e0990614d54565b60405180910390fd5b6000835167ffffffffffffffff811115610e2f57610e2e613cef565b5b604051908082528060200260200182016040528015610e5d5781602001602082028036833780820191505090505b50905060005b8451811015610f215760026000868381518110610e8357610e82614a9e565b5b602002602001015173ffffffffffffffffffffffffffffffffffffffff1673ffffffffffffffffffffffffffffffffffffffff1681526020019081526020016000206000858381518110610eda57610ed9614a9e565b5b6020026020010151815260200190815260200160002054828281518110610f0457610f03614a9e565b5b60200260200101818152505080610f1a90614d74565b9050610e63565b508091505092915050565b600c60009054906101000a900460ff1681565b610f47611fa8565b610f86576040517f08c379a0000000000000000000000000000000000000000000000000000000008152600401610f7d90614a12565b60405180910390fd5b610f908282611fe5565b5050565b6000600980549050905090565b60003390508373ffffffffffffffffffffffffffffffffffffffff168173ffffffffffffffffffffffffffffffffffffffff1614806110665750600360008573ffffffffffffffffffffffffffffffffffffffff1673ffffffffffffffffffffffffffffffffffffffff16815260200190815260200160002060008273ffffffffffffffffffffffffffffffffffffffff1673ffffffffffffffffffffffffffffffffffffffff16815260200190815260200160002060009054906101000a900460ff165b6110a5576040517f08c379a000000000000000000000000000000000000000000000000000000000815260040161109c90614e08565b60405180910390fd5b81518351146110e9576040517f08c379a00000000000000000000000000000000000000000000000000000000081526004016110e090614e74565b60405180910390fd5b60005b83518110156111d05782818151811061110857611107614a9e565b5b6020026020010151600260008773ffffffffffffffffffffffffffffffffffffffff1673ffffffffffffffffffffffffffffffffffffffff168152602001908152602001600020600086848151811061116457611163614a9e565b5b602002602001015181526020019081526020016000205410156111bc576040517f08c379a00000000000000000000000000000000000000000000000000000000081526004016111b390614ee0565b60405180910390fd5b6001816111c99190614f00565b90506110ec565b506111dc8484846120da565b50505050565b6000600660009054906101000a900473ffffffffffffffffffffffffffffffffffffffff16905090565b611214612385565b611253576040517f08c379a000000000000000000000000000000000000000000000000000000000815260040161124a90614a12565b60405180910390fd5b61125c816123c2565b50565b6001805461126c90614935565b80601f016020809104026020016040519081016040528092919081815260200182805461129890614935565b80156112e55780601f106112ba576101008083540402835291602001916112e5565b820191906000526020600020905b8154815290600101906020018083116112c857829003601f168201915b505050505081565b6112f5611fa8565b611334576040517f08c379a000000000000000000000000000000000000000000000000000000000815260040161132b90614a12565b60405180910390fd5b61133f83838361249e565b505050565b8161134e81611cf1565b61135883836125c9565b505050565b60608282905067ffffffffffffffff81111561137c5761137b613cef565b5b6040519080825280602002602001820160405280156113af57816020015b606081526020019060019003908161139a5790505b50905060005b8383905081101561146257611431308585848181106113d7576113d6614a9e565b5b90506020028101906113e99190614f43565b8080601f016020809104026020016040519081016040528093929190818152602001838380828437600081840152601f19601f8201169050808301925050505050505061273a565b82828151811061144457611443614a9e565b5b6020026020010181905250808061145a90614d74565b9150506113b5565b5092915050565b600080600760009054906101000a900473ffffffffffffffffffffffffffffffffffffffff16600760149054906101000a900461ffff16915091509091565b600e6020528060005260406000206000915090505481565b60006114ca612767565b611509576040517f08c379a000000000000000000000000000000000000000000000000000000000815260040161150090614a12565b60405180910390fd5b6000860361154c576040517f08c379a000000000000000000000000000000000000000000000000000000000815260040161154390614ff2565b60405180910390fd5b6000600b5490506115a2818888888080601f016020809104026020016040519081016040528093929190818152602001838380828437600081840152601f19601f820116905080830192505050505050506127a4565b600b600082955083919050555050807f2a0365091ef1a40953c670dce28177e37520648a6fdc91506bffac0ab045570d600189846115e09190614f00565b6115ea9190615012565b888888886040516115ff9594939291906150b1565b60405180910390a25095945050505050565b6005805461161e90614935565b80601f016020809104026020016040519081016040528092919081815260200182805461164a90614935565b80156116975780601f1061166c57610100808354040283529160200191611697565b820191906000526020600020905b81548152906001019060200180831161167a57829003601f168201915b505050505081565b60036020528160005260406000206020528060005260406000206000915091509054906101000a900460ff1681565b843373ffffffffffffffffffffffffffffffffffffffff168173ffffffffffffffffffffffffffffffffffffffff161461170c5761170b33611cf1565b5b611719868686868661280a565b505050505050565b60003390508373ffffffffffffffffffffffffffffffffffffffff168173ffffffffffffffffffffffffffffffffffffffff1614806117e65750600360008573ffffffffffffffffffffffffffffffffffffffff1673ffffffffffffffffffffffffffffffffffffffff16815260200190815260200160002060008273ffffffffffffffffffffffffffffffffffffffff1673ffffffffffffffffffffffffffffffffffffffff16815260200190815260200160002060009054906101000a900460ff165b611825576040517f08c379a000000000000000000000000000000000000000000000000000000000815260040161181c90614e08565b60405180910390fd5b81600260008673ffffffffffffffffffffffffffffffffffffffff1673ffffffffffffffffffffffffffffffffffffffff16815260200190815260200160002060008581526020019081526020016000205410156118b8576040517f08c379a00000000000000000000000000000000000000000000000000000000081526004016118af90614ee0565b60405180910390fd5b6118c384848461291d565b50505050565b606060006118d5610f94565b90506000600980548060200260200160405190810160405280929190818152602001828054801561192557602002820191906000526020600020905b815481526020019060010190808311611911575b5050505050905060005b82811015611a2d5781818151811061194a57611949614a9e565b5b6020026020010151851015611a1957600a60008383815181106119705761196f614a9e565b5b60200260200101518152602001908152602001600020805461199190614935565b80601f01602080910402602001604051908101604052809291908181526020018280546119bd90614935565b8015611a0a5780601f106119df57610100808354040283529160200191611a0a565b820191906000526020600020905b8154815290600101906020018083116119ed57829003601f168201915b50505050509350505050611a69565b600181611a269190614f00565b905061192f565b506040517f08c379a0000000000000000000000000000000000000000000000000000000008152600401611a6090615146565b60405180910390fd5b919050565b606060008203611ab5576040518060400160405280600181526020017f30000000000000000000000000000000000000000000000000000000000000008152509050611bc9565b600082905060005b60008214611ae7578080611ad090614d74565b915050600a82611ae09190614b6d565b9150611abd565b60008167ffffffffffffffff811115611b0357611b02613cef565b5b6040519080825280601f01601f191660200182016040528015611b355781602001600182028036833780820191505090505b5090505b60008514611bc257600182611b4e9190615012565b9150600a85611b5d9190615166565b6030611b699190614f00565b60f81b818381518110611b7f57611b7e614a9e565b5b60200101907effffffffffffffffffffffffffffffffffffffffffffffffffffffffffffff1916908160001a905350600a85611bbb9190614b6d565b9450611b39565b8093505050505b919050565b6000611bd86111e2565b73ffffffffffffffffffffffffffffffffffffffff163373ffffffffffffffffffffffffffffffffffffffff1614905090565b6000600660009054906101000a900473ffffffffffffffffffffffffffffffffffffffff16905081600660006101000a81548173ffffffffffffffffffffffffffffffffffffffff021916908373ffffffffffffffffffffffffffffffffffffffff1602179055508173ffffffffffffffffffffffffffffffffffffffff168173ffffffffffffffffffffffffffffffffffffffff167f8292fce18fa69edf4db7b94ea2e58241df0ae57f97e0a6c9b29067028bf92d7660405160405180910390a35050565b611cec83838360405180602001604052806000815250612b34565b505050565b600c60009054906101000a900460ff1615611e015760006daaeb6d7670e522a718067333cd4e73ffffffffffffffffffffffffffffffffffffffff163b1115611e00576daaeb6d7670e522a718067333cd4e73ffffffffffffffffffffffffffffffffffffffff1663c617113430836040518363ffffffff1660e01b8152600401611d7d929190615197565b602060405180830381865afa158015611d9a573d6000803e3d6000fd5b505050506040513d601f19601f82011682018060405250810190611dbe91906151d5565b611dff57806040517fede71dcc000000000000000000000000000000000000000000000000000000008152600401611df69190614375565b60405180910390fd5b5b5b50565b3373ffffffffffffffffffffffffffffffffffffffff168573ffffffffffffffffffffffffffffffffffffffff161480611ec45750600360008673ffffffffffffffffffffffffffffffffffffffff1673ffffffffffffffffffffffffffffffffffffffff16815260200190815260200160002060003373ffffffffffffffffffffffffffffffffffffffff1673ffffffffffffffffffffffffffffffffffffffff16815260200190815260200160002060009054906101000a900460ff165b611f03576040517f08c379a0000000000000000000000000000000000000000000000000000000008152600401611efa9061524e565b60405180910390fd5b611f108585858585612cc3565b5050505050565b6000611f216111e2565b73ffffffffffffffffffffffffffffffffffffffff163373ffffffffffffffffffffffffffffffffffffffff1614905090565b80600c60006101000a81548160ff0219169083151502179055507f38475885990d8dfe9ca01f0ef160a1b5514426eab9ddbc953a3353410ba7809681604051611f9d9190613af8565b60405180910390a150565b6000611fb26111e2565b73ffffffffffffffffffffffffffffffffffffffff163373ffffffffffffffffffffffffffffffffffffffff1614905090565b61271081111561202a576040517f08c379a0000000000000000000000000000000000000000000000000000000008152600401612021906152ba565b60405180910390fd5b81600760006101000a81548173ffffffffffffffffffffffffffffffffffffffff021916908373ffffffffffffffffffffffffffffffffffffffff16021790555080600760146101000a81548161ffff021916908361ffff1602179055508173ffffffffffffffffffffffffffffffffffffffff167f90d7ec04bcb8978719414f82e52e4cb651db41d0e6f8cea6118c2191e6183adb826040516120ce9190613a3d565b60405180910390a25050565b600073ffffffffffffffffffffffffffffffffffffffff168373ffffffffffffffffffffffffffffffffffffffff1603612149576040517f08c379a000000000000000000000000000000000000000000000000000000000815260040161214090615326565b60405180910390fd5b805182511461218d576040517f08c379a000000000000000000000000000000000000000000000000000000000815260040161218490614d54565b60405180910390fd5b60003390506121b081856000868660405180602001604052806000815250612fd2565b60005b83518110156122ff5760008482815181106121d1576121d0614a9e565b5b6020026020010151905060008483815181106121f0576121ef614a9e565b5b602002602001015190506000600260008973ffffffffffffffffffffffffffffffffffffffff1673ffffffffffffffffffffffffffffffffffffffff168152602001908152602001600020600084815260200190815260200160002054905081811015612292576040517f08c379a000000000000000000000000000000000000000000000000000000000815260040161228990615392565b60405180910390fd5b818103600260008a73ffffffffffffffffffffffffffffffffffffffff1673ffffffffffffffffffffffffffffffffffffffff16815260200190815260200160002060008581526020019081526020016000208190555050505080806122f790614d74565b9150506121b3565b50600073ffffffffffffffffffffffffffffffffffffffff168473ffffffffffffffffffffffffffffffffffffffff168273ffffffffffffffffffffffffffffffffffffffff167f4a39dc06d4c0dbc64b70af90fd698a233a518aa5d07e595d983b8c0526c8f7fb86866040516123779291906153b2565b60405180910390a450505050565b600061238f6111e2565b73ffffffffffffffffffffffffffffffffffffffff163373ffffffffffffffffffffffffffffffffffffffff1614905090565b6000600580546123d190614935565b80601f01602080910402602001604051908101604052809291908181526020018280546123fd90614935565b801561244a5780601f1061241f5761010080835404028352916020019161244a565b820191906000526020600020905b81548152906001019060200180831161242d57829003601f168201915b505050505090508160059081612460919061558b565b507fc9c7c3fe08b88b4df9d4d47ef47d2c43d55c025a0ba88ca442580ed9e7348a16818360405161249292919061565d565b60405180910390a15050565b6127108111156124e3576040517f08c379a00000000000000000000000000000000000000000000000000000000081526004016124da906152ba565b60405180910390fd5b60405180604001604052808373ffffffffffffffffffffffffffffffffffffffff168152602001828152506008600085815260200190815260200160002060008201518160000160006101000a81548173ffffffffffffffffffffffffffffffffffffffff021916908373ffffffffffffffffffffffffffffffffffffffff160217905550602082015181600101559050508173ffffffffffffffffffffffffffffffffffffffff16837f7365cf4122f072a3365c20d54eff9b38d73c096c28e1892ec8f5b0e403a0f12d836040516125bc9190613a3d565b60405180910390a3505050565b60003390508273ffffffffffffffffffffffffffffffffffffffff168173ffffffffffffffffffffffffffffffffffffffff160361263c576040517f08c379a0000000000000000000000000000000000000000000000000000000008152600401612633906156e0565b60405180910390fd5b81600360008373ffffffffffffffffffffffffffffffffffffffff1673ffffffffffffffffffffffffffffffffffffffff16815260200190815260200160002060008573ffffffffffffffffffffffffffffffffffffffff1673ffffffffffffffffffffffffffffffffffffffff16815260200190815260200160002060006101000a81548160ff0219169083151502179055508273ffffffffffffffffffffffffffffffffffffffff168173ffffffffffffffffffffffffffffffffffffffff167f17307eab39ab6107e8899845ad3d59bd9653f200f220920489ca2b5937696c318460405161272d9190613af8565b60405180910390a3505050565b606061275f8383604051806060016040528060278152602001615b4f6027913961314a565b905092915050565b60006127716111e2565b73ffffffffffffffffffffffffffffffffffffffff163373ffffffffffffffffffffffffffffffffffffffff1614905090565b60008083856127b39190614f00565b9050809150600981908060018154018082558091505060019003906000526020600020016000909190919091505582600a60008381526020019081526020016000209081612801919061558b565b50935093915050565b3373ffffffffffffffffffffffffffffffffffffffff168573ffffffffffffffffffffffffffffffffffffffff1614806128ca5750600360008673ffffffffffffffffffffffffffffffffffffffff1673ffffffffffffffffffffffffffffffffffffffff16815260200190815260200160002060003373ffffffffffffffffffffffffffffffffffffffff1673ffffffffffffffffffffffffffffffffffffffff16815260200190815260200160002060009054906101000a900460ff165b612909576040517f08c379a00000000000000000000000000000000000000000000000000000000081526004016129009061524e565b60405180910390fd5b6129168585858585613217565b5050505050565b600073ffffffffffffffffffffffffffffffffffffffff168373ffffffffffffffffffffffffffffffffffffffff160361298c576040517f08c379a000000000000000000000000000000000000000000000000000000000815260040161298390615326565b60405180910390fd5b60003390506129bf818560006129a187613494565b6129aa87613494565b60405180602001604052806000815250612fd2565b6000600260008673ffffffffffffffffffffffffffffffffffffffff1673ffffffffffffffffffffffffffffffffffffffff168152602001908152602001600020600085815260200190815260200160002054905082811015612a57576040517f08c379a0000000000000000000000000000000000000000000000000000000008152600401612a4e90615392565b60405180910390fd5b828103600260008773ffffffffffffffffffffffffffffffffffffffff1673ffffffffffffffffffffffffffffffffffffffff168152602001908152602001600020600086815260200190815260200160002081905550600073ffffffffffffffffffffffffffffffffffffffff168573ffffffffffffffffffffffffffffffffffffffff168373ffffffffffffffffffffffffffffffffffffffff167fc3d58168c5ae7397731d063d5bbf3d657854427343f4c083240f7aacaa2d0f628787604051612b25929190615700565b60405180910390a45050505050565b600073ffffffffffffffffffffffffffffffffffffffff168473ffffffffffffffffffffffffffffffffffffffff1603612ba3576040517f08c379a0000000000000000000000000000000000000000000000000000000008152600401612b9a90615775565b60405180910390fd5b6000339050612bc781600087612bb888613494565b612bc188613494565b87612fd2565b82600260008773ffffffffffffffffffffffffffffffffffffffff1673ffffffffffffffffffffffffffffffffffffffff16815260200190815260200160002060008681526020019081526020016000206000828254612c279190614f00565b925050819055508473ffffffffffffffffffffffffffffffffffffffff16600073ffffffffffffffffffffffffffffffffffffffff168273ffffffffffffffffffffffffffffffffffffffff167fc3d58168c5ae7397731d063d5bbf3d657854427343f4c083240f7aacaa2d0f628787604051612ca5929190615700565b60405180910390a4612cbc8160008787878761350e565b5050505050565b8151835114612d07576040517f08c379a0000000000000000000000000000000000000000000000000000000008152600401612cfe90614d54565b60405180910390fd5b600073ffffffffffffffffffffffffffffffffffffffff168473ffffffffffffffffffffffffffffffffffffffff1603612d76576040517f08c379a0000000000000000000000000000000000000000000000000000000008152600401612d6d90615775565b60405180910390fd5b6000339050612d89818787878787612fd2565b60005b8451811015612f3d576000858281518110612daa57612da9614a9e565b5b602002602001015190506000858381518110612dc957612dc8614a9e565b5b602002602001015190506000600260008b73ffffffffffffffffffffffffffffffffffffffff1673ffffffffffffffffffffffffffffffffffffffff168152602001908152602001600020600084815260200190815260200160002054905081811015612e6b576040517f08c379a0000000000000000000000000000000000000000000000000000000008152600401612e6290615392565b60405180910390fd5b818103600260008c73ffffffffffffffffffffffffffffffffffffffff1673ffffffffffffffffffffffffffffffffffffffff16815260200190815260200160002060008581526020019081526020016000208190555081600260008b73ffffffffffffffffffffffffffffffffffffffff1673ffffffffffffffffffffffffffffffffffffffff16815260200190815260200160002060008581526020019081526020016000206000828254612f229190614f00565b9250508190555050505080612f3690614d74565b9050612d8c565b508473ffffffffffffffffffffffffffffffffffffffff168673ffffffffffffffffffffffffffffffffffffffff168273ffffffffffffffffffffffffffffffffffffffff167f4a39dc06d4c0dbc64b70af90fd698a233a518aa5d07e595d983b8c0526c8f7fb8787604051612fb49291906153b2565b60405180910390a4612fca8187878787876136e1565b505050505050565b612fe08686868686866138b4565b600073ffffffffffffffffffffffffffffffffffffffff168573ffffffffffffffffffffffffffffffffffffffff16036130915760005b835181101561308f5782818151811061303357613032614a9e565b5b6020026020010151600e600086848151811061305257613051614a9e565b5b6020026020010151815260200190815260200160002060008282546130779190614f00565b925050819055508061308890614d74565b9050613017565b505b600073ffffffffffffffffffffffffffffffffffffffff168473ffffffffffffffffffffffffffffffffffffffff16036131425760005b8351811015613140578281815181106130e4576130e3614a9e565b5b6020026020010151600e600086848151811061310357613102614a9e565b5b6020026020010151815260200190815260200160002060008282546131289190615012565b925050819055508061313990614d74565b90506130c8565b505b505050505050565b6060613155846138bc565b613194576040517f08c379a000000000000000000000000000000000000000000000000000000000815260040161318b90615807565b60405180910390fd5b6000808573ffffffffffffffffffffffffffffffffffffffff16856040516131bc9190615863565b600060405180830381855af49150503d80600081146131f7576040519150601f19603f3d011682016040523d82523d6000602084013e6131fc565b606091505b509150915061320c8282866138df565b925050509392505050565b600073ffffffffffffffffffffffffffffffffffffffff168473ffffffffffffffffffffffffffffffffffffffff1603613286576040517f08c379a000000000000000000000000000000000000000000000000000000000815260040161327d90615775565b60405180910390fd5b60003390506132a981878761329a88613494565b6132a388613494565b87612fd2565b6000600260008873ffffffffffffffffffffffffffffffffffffffff1673ffffffffffffffffffffffffffffffffffffffff168152602001908152602001600020600086815260200190815260200160002054905083811015613341576040517f08c379a000000000000000000000000000000000000000000000000000000000815260040161333890615392565b60405180910390fd5b838103600260008973ffffffffffffffffffffffffffffffffffffffff1673ffffffffffffffffffffffffffffffffffffffff16815260200190815260200160002060008781526020019081526020016000208190555083600260008873ffffffffffffffffffffffffffffffffffffffff1673ffffffffffffffffffffffffffffffffffffffff168152602001908152602001600020600087815260200190815260200160002060008282546133f89190614f00565b925050819055508573ffffffffffffffffffffffffffffffffffffffff168773ffffffffffffffffffffffffffffffffffffffff168373ffffffffffffffffffffffffffffffffffffffff167fc3d58168c5ae7397731d063d5bbf3d657854427343f4c083240f7aacaa2d0f628888604051613475929190615700565b60405180910390a461348b82888888888861350e565b50505050505050565b60606000600167ffffffffffffffff8111156134b3576134b2613cef565b5b6040519080825280602002602001820160405280156134e15781602001602082028036833780820191505090505b50905082816000815181106134f9576134f8614a9e565b5b60200260200101818152505080915050919050565b60008473ffffffffffffffffffffffffffffffffffffffff163b11156136d9578373ffffffffffffffffffffffffffffffffffffffff1663f23a6e6187878686866040518663ffffffff1660e01b815260040161356f9594939291906158b3565b6020604051808303816000875af19250505080156135ab57506040513d601f19601f820116820180604052508101906135a89190615922565b60015b613650576135b761595c565b806308c379a00361361357506135cb61597e565b806135d65750613615565b806040517f08c379a000000000000000000000000000000000000000000000000000000000815260040161360a9190613ba3565b60405180910390fd5b505b6040517f08c379a000000000000000000000000000000000000000000000000000000000815260040161364790615a5a565b60405180910390fd5b63f23a6e6160e01b7bffffffffffffffffffffffffffffffffffffffffffffffffffffffff1916817bffffffffffffffffffffffffffffffffffffffffffffffffffffffff1916146136d7576040517f08c379a00000000000000000000000000000000000000000000000000000000081526004016136ce90615ac6565b60405180910390fd5b505b505050505050565b60008473ffffffffffffffffffffffffffffffffffffffff163b11156138ac578373ffffffffffffffffffffffffffffffffffffffff1663bc197c8187878686866040518663ffffffff1660e01b8152600401613742959493929190615ae6565b6020604051808303816000875af192505050801561377e57506040513d601f19601f8201168201806040525081019061377b9190615922565b60015b6138235761378a61595c565b806308c379a0036137e6575061379e61597e565b806137a957506137e8565b806040517f08c379a00000000000000000000000000000000000000000000000000000000081526004016137dd9190613ba3565b60405180910390fd5b505b6040517f08c379a000000000000000000000000000000000000000000000000000000000815260040161381a90615a5a565b60405180910390fd5b63bc197c8160e01b7bffffffffffffffffffffffffffffffffffffffffffffffffffffffff1916817bffffffffffffffffffffffffffffffffffffffffffffffffffffffff1916146138aa576040517f08c379a00000000000000000000000000000000000000000000000000000000081526004016138a190615ac6565b60405180910390fd5b505b505050505050565b505050505050565b6000808273ffffffffffffffffffffffffffffffffffffffff163b119050919050565b606083156138ef5782905061393f565b6000835111156139025782518084602001fd5b816040517f08c379a00000000000000000000000000000000000000000000000000000000081526004016139369190613ba3565b60405180910390fd5b9392505050565b6000604051905090565b600080fd5b600080fd5b600073ffffffffffffffffffffffffffffffffffffffff82169050919050565b60006139858261395a565b9050919050565b6139958161397a565b81146139a057600080fd5b50565b6000813590506139b28161398c565b92915050565b6000819050919050565b6139cb816139b8565b81146139d657600080fd5b50565b6000813590506139e8816139c2565b92915050565b60008060408385031215613a0557613a04613950565b5b6000613a13858286016139a3565b9250506020613a24858286016139d9565b9150509250929050565b613a37816139b8565b82525050565b6000602082019050613a526000830184613a2e565b92915050565b60007fffffffff0000000000000000000000000000000000000000000000000000000082169050919050565b613a8d81613a58565b8114613a9857600080fd5b50565b600081359050613aaa81613a84565b92915050565b600060208284031215613ac657613ac5613950565b5b6000613ad484828501613a9b565b91505092915050565b60008115159050919050565b613af281613add565b82525050565b6000602082019050613b0d6000830184613ae9565b92915050565b600081519050919050565b600082825260208201905092915050565b60005b83811015613b4d578082015181840152602081019050613b32565b60008484015250505050565b6000601f19601f8301169050919050565b6000613b7582613b13565b613b7f8185613b1e565b9350613b8f818560208601613b2f565b613b9881613b59565b840191505092915050565b60006020820190508181036000830152613bbd8184613b6a565b905092915050565b600060208284031215613bdb57613bda613950565b5b6000613be9848285016139d9565b91505092915050565b600060208284031215613c0857613c07613950565b5b6000613c16848285016139a3565b91505092915050565b60008060408385031215613c3657613c35613950565b5b6000613c44858286016139d9565b9250506020613c55858286016139d9565b9150509250929050565b613c688161397a565b82525050565b6000604082019050613c836000830185613c5f565b613c906020830184613a2e565b9392505050565b600080600060608486031215613cb057613caf613950565b5b6000613cbe868287016139a3565b9350506020613ccf868287016139d9565b9250506040613ce0868287016139d9565b9150509250925092565b600080fd5b7f4e487b7100000000000000000000000000000000000000000000000000000000600052604160045260246000fd5b613d2782613b59565b810181811067ffffffffffffffff82111715613d4657613d45613cef565b5b80604052505050565b6000613d59613946565b9050613d658282613d1e565b919050565b600067ffffffffffffffff821115613d8557613d84613cef565b5b602082029050602081019050919050565b600080fd5b6000613dae613da984613d6a565b613d4f565b90508083825260208201905060208402830185811115613dd157613dd0613d96565b5b835b81811015613dfa5780613de688826139d9565b845260208401935050602081019050613dd3565b5050509392505050565b600082601f830112613e1957613e18613cea565b5b8135613e29848260208601613d9b565b91505092915050565b600080fd5b600067ffffffffffffffff821115613e5257613e51613cef565b5b613e5b82613b59565b9050602081019050919050565b82818337600083830152505050565b6000613e8a613e8584613e37565b613d4f565b905082815260208101848484011115613ea657613ea5613e32565b5b613eb1848285613e68565b509392505050565b600082601f830112613ece57613ecd613cea565b5b8135613ede848260208601613e77565b91505092915050565b600080600080600060a08688031215613f0357613f02613950565b5b6000613f11888289016139a3565b9550506020613f22888289016139a3565b945050604086013567ffffffffffffffff811115613f4357613f42613955565b5b613f4f88828901613e04565b935050606086013567ffffffffffffffff811115613f7057613f6f613955565b5b613f7c88828901613e04565b925050608086013567ffffffffffffffff811115613f9d57613f9c613955565b5b613fa988828901613eb9565b9150509295509295909350565b613fbf81613add565b8114613fca57600080fd5b50565b600081359050613fdc81613fb6565b92915050565b600060208284031215613ff857613ff7613950565b5b600061400684828501613fcd565b91505092915050565b6000819050919050565b600061403461402f61402a8461395a565b61400f565b61395a565b9050919050565b600061404682614019565b9050919050565b60006140588261403b565b9050919050565b6140688161404d565b82525050565b6000602082019050614083600083018461405f565b92915050565b600061ffff82169050919050565b6140a081614089565b82525050565b60006040820190506140bb6000830185613c5f565b6140c86020830184614097565b9392505050565b600067ffffffffffffffff8211156140ea576140e9613cef565b5b602082029050602081019050919050565b600061410e614109846140cf565b613d4f565b9050808382526020820190506020840283018581111561413157614130613d96565b5b835b8181101561415a578061414688826139a3565b845260208401935050602081019050614133565b5050509392505050565b600082601f83011261417957614178613cea565b5b81356141898482602086016140fb565b91505092915050565b600080604083850312156141a9576141a8613950565b5b600083013567ffffffffffffffff8111156141c7576141c6613955565b5b6141d385828601614164565b925050602083013567ffffffffffffffff8111156141f4576141f3613955565b5b61420085828601613e04565b9150509250929050565b600081519050919050565b600082825260208201905092915050565b6000819050602082019050919050565b61423f816139b8565b82525050565b60006142518383614236565b60208301905092915050565b6000602082019050919050565b60006142758261420a565b61427f8185614215565b935061428a83614226565b8060005b838110156142bb5781516142a28882614245565b97506142ad8361425d565b92505060018101905061428e565b5085935050505092915050565b600060208201905081810360008301526142e2818461426a565b905092915050565b60008060006060848603121561430357614302613950565b5b6000614311868287016139a3565b935050602084013567ffffffffffffffff81111561433257614331613955565b5b61433e86828701613e04565b925050604084013567ffffffffffffffff81111561435f5761435e613955565b5b61436b86828701613e04565b9150509250925092565b600060208201905061438a6000830184613c5f565b92915050565b600067ffffffffffffffff8211156143ab576143aa613cef565b5b6143b482613b59565b9050602081019050919050565b60006143d46143cf84614390565b613d4f565b9050828152602081018484840111156143f0576143ef613e32565b5b6143fb848285613e68565b509392505050565b600082601f83011261441857614417613cea565b5b81356144288482602086016143c1565b91505092915050565b60006020828403121561444757614446613950565b5b600082013567ffffffffffffffff81111561446557614464613955565b5b61447184828501614403565b91505092915050565b60008060006060848603121561449357614492613950565b5b60006144a1868287016139d9565b93505060206144b2868287016139a3565b92505060406144c3868287016139d9565b9150509250925092565b600080604083850312156144e4576144e3613950565b5b60006144f2858286016139a3565b925050602061450385828601613fcd565b9150509250929050565b600080fd5b60008083601f84011261452857614527613cea565b5b8235905067ffffffffffffffff8111156145455761454461450d565b5b60208301915083602082028301111561456157614560613d96565b5b9250929050565b6000806020838503121561457f5761457e613950565b5b600083013567ffffffffffffffff81111561459d5761459c613955565b5b6145a985828601614512565b92509250509250929050565b600081519050919050565b600082825260208201905092915050565b6000819050602082019050919050565b600081519050919050565b600082825260208201905092915050565b6000614608826145e1565b61461281856145ec565b9350614622818560208601613b2f565b61462b81613b59565b840191505092915050565b600061464283836145fd565b905092915050565b6000602082019050919050565b6000614662826145b5565b61466c81856145c0565b93508360208202850161467e856145d1565b8060005b858110156146ba578484038952815161469b8582614636565b94506146a68361464a565b925060208a01995050600181019050614682565b50829750879550505050505092915050565b600060208201905081810360008301526146e68184614657565b905092915050565b60008083601f84011261470457614703613cea565b5b8235905067ffffffffffffffff8111156147215761472061450d565b5b60208301915083600182028301111561473d5761473c613d96565b5b9250929050565b60008083601f84011261475a57614759613cea565b5b8235905067ffffffffffffffff8111156147775761477661450d565b5b60208301915083600182028301111561479357614792613d96565b5b9250929050565b6000806000806000606086880312156147b6576147b5613950565b5b60006147c4888289016139d9565b955050602086013567ffffffffffffffff8111156147e5576147e4613955565b5b6147f1888289016146ee565b9450945050604086013567ffffffffffffffff81111561481457614813613955565b5b61482088828901614744565b92509250509295509295909350565b6000806040838503121561484657614845613950565b5b6000614854858286016139a3565b9250506020614865858286016139a3565b9150509250929050565b600080600080600060a0868803121561488b5761488a613950565b5b6000614899888289016139a3565b95505060206148aa888289016139a3565b94505060406148bb888289016139d9565b93505060606148cc888289016139d9565b925050608086013567ffffffffffffffff8111156148ed576148ec613955565b5b6148f988828901613eb9565b9150509295509295909350565b7f4e487b7100000000000000000000000000000000000000000000000000000000600052602260045260246000fd5b6000600282049050600182168061494d57607f821691505b6020821081036149605761495f614906565b5b50919050565b600081905092915050565b600061497c82613b13565b6149868185614966565b9350614996818560208601613b2f565b80840191505092915050565b60006149ae8285614971565b91506149ba8284614971565b91508190509392505050565b7f4e6f7420617574686f72697a6564000000000000000000000000000000000000600082015250565b60006149fc600e83613b1e565b9150614a07826149c6565b602082019050919050565b60006020820190508181036000830152614a2b816149ef565b9050919050565b7f496e76616c696420696e64657800000000000000000000000000000000000000600082015250565b6000614a68600d83613b1e565b9150614a7382614a32565b602082019050919050565b60006020820190508181036000830152614a9781614a5b565b9050919050565b7f4e487b7100000000000000000000000000000000000000000000000000000000600052603260045260246000fd5b7f4e487b7100000000000000000000000000000000000000000000000000000000600052601160045260246000fd5b6000614b07826139b8565b9150614b12836139b8565b9250828202614b20816139b8565b91508282048414831517614b3757614b36614acd565b5b5092915050565b7f4e487b7100000000000000000000000000000000000000000000000000000000600052601260045260246000fd5b6000614b78826139b8565b9150614b83836139b8565b925082614b9357614b92614b3e565b5b828204905092915050565b7f5265656e7472616e637947756172643a207265656e7472616e742063616c6c00600082015250565b6000614bd4601f83613b1e565b9150614bdf82614b9e565b602082019050919050565b60006020820190508181036000830152614c0381614bc7565b9050919050565b7f696e76616c696420696400000000000000000000000000000000000000000000600082015250565b6000614c40600a83613b1e565b9150614c4b82614c0a565b602082019050919050565b60006020820190508181036000830152614c6f81614c33565b9050919050565b7f4e6f7420617574686f72697a656420746f20736574206f70657261746f72207260008201527f65737472696374696f6e2e000000000000000000000000000000000000000000602082015250565b6000614cd2602b83613b1e565b9150614cdd82614c76565b604082019050919050565b60006020820190508181036000830152614d0181614cc5565b9050919050565b7f4c454e4754485f4d49534d415443480000000000000000000000000000000000600082015250565b6000614d3e600f83613b1e565b9150614d4982614d08565b602082019050919050565b60006020820190508181036000830152614d6d81614d31565b9050919050565b6000614d7f826139b8565b91507fffffffffffffffffffffffffffffffffffffffffffffffffffffffffffffffff8203614db157614db0614acd565b5b600182019050919050565b7f556e617070726f7665642063616c6c6572000000000000000000000000000000600082015250565b6000614df2601183613b1e565b9150614dfd82614dbc565b602082019050919050565b60006020820190508181036000830152614e2181614de5565b9050919050565b7f4c656e677468206d69736d617463680000000000000000000000000000000000600082015250565b6000614e5e600f83613b1e565b9150614e6982614e28565b602082019050919050565b60006020820190508181036000830152614e8d81614e51565b9050919050565b7f4e6f7420656e6f75676820746f6b656e73206f776e6564000000000000000000600082015250565b6000614eca601783613b1e565b9150614ed582614e94565b602082019050919050565b60006020820190508181036000830152614ef981614ebd565b9050919050565b6000614f0b826139b8565b9150614f16836139b8565b9250828201905080821115614f2e57614f2d614acd565b5b92915050565b600080fd5b600080fd5b600080fd5b60008083356001602003843603038112614f6057614f5f614f34565b5b80840192508235915067ffffffffffffffff821115614f8257614f81614f39565b5b602083019250600182023603831315614f9e57614f9d614f3e565b5b509250929050565b7f3020616d74000000000000000000000000000000000000000000000000000000600082015250565b6000614fdc600583613b1e565b9150614fe782614fa6565b602082019050919050565b6000602082019050818103600083015261500b81614fcf565b9050919050565b600061501d826139b8565b9150615028836139b8565b92508282039050818111156150405761503f614acd565b5b92915050565b60006150528385613b1e565b935061505f838584613e68565b61506883613b59565b840190509392505050565b600082825260208201905092915050565b60006150908385615073565b935061509d838584613e68565b6150a683613b59565b840190509392505050565b60006060820190506150c66000830188613a2e565b81810360208301526150d9818688615046565b905081810360408301526150ee818486615084565b90509695505050505050565b7f496e76616c696420746f6b656e49640000000000000000000000000000000000600082015250565b6000615130600f83613b1e565b915061513b826150fa565b602082019050919050565b6000602082019050818103600083015261515f81615123565b9050919050565b6000615171826139b8565b915061517c836139b8565b92508261518c5761518b614b3e565b5b828206905092915050565b60006040820190506151ac6000830185613c5f565b6151b96020830184613c5f565b9392505050565b6000815190506151cf81613fb6565b92915050565b6000602082840312156151eb576151ea613950565b5b60006151f9848285016151c0565b91505092915050565b7f214f574e45525f4f525f415050524f5645440000000000000000000000000000600082015250565b6000615238601283613b1e565b915061524382615202565b602082019050919050565b600060208201905081810360008301526152678161522b565b9050919050565b7f45786365656473206d6178206270730000000000000000000000000000000000600082015250565b60006152a4600f83613b1e565b91506152af8261526e565b602082019050919050565b600060208201905081810360008301526152d381615297565b9050919050565b7f46524f4d5f5a45524f5f41444452000000000000000000000000000000000000600082015250565b6000615310600e83613b1e565b915061531b826152da565b602082019050919050565b6000602082019050818103600083015261533f81615303565b9050919050565b7f494e53554646494349454e545f42414c00000000000000000000000000000000600082015250565b600061537c601083613b1e565b915061538782615346565b602082019050919050565b600060208201905081810360008301526153ab8161536f565b9050919050565b600060408201905081810360008301526153cc818561426a565b905081810360208301526153e0818461426a565b90509392505050565b60008190508160005260206000209050919050565b60006020601f8301049050919050565b600082821b905092915050565b60006008830261544b7fffffffffffffffffffffffffffffffffffffffffffffffffffffffffffffffff8261540e565b615455868361540e565b95508019841693508086168417925050509392505050565b600061548861548361547e846139b8565b61400f565b6139b8565b9050919050565b6000819050919050565b6154a28361546d565b6154b66154ae8261548f565b84845461541b565b825550505050565b600090565b6154cb6154be565b6154d6818484615499565b505050565b5b818110156154fa576154ef6000826154c3565b6001810190506154dc565b5050565b601f82111561553f57615510816153e9565b615519846153fe565b81016020851015615528578190505b61553c615534856153fe565b8301826154db565b50505b505050565b600082821c905092915050565b600061556260001984600802615544565b1980831691505092915050565b600061557b8383615551565b9150826002028217905092915050565b61559482613b13565b67ffffffffffffffff8111156155ad576155ac613cef565b5b6155b78254614935565b6155c28282856154fe565b600060209050601f8311600181146155f557600084156155e3578287015190505b6155ed858261556f565b865550615655565b601f198416615603866153e9565b60005b8281101561562b57848901518255600182019150602085019450602081019050615606565b868310156156485784890151615644601f891682615551565b8355505b6001600288020188555050505b505050505050565b600060408201905081810360008301526156778185613b6a565b9050818103602083015261568b8184613b6a565b90509392505050565b7f415050524f56494e475f53454c46000000000000000000000000000000000000600082015250565b60006156ca600e83613b1e565b91506156d582615694565b602082019050919050565b600060208201905081810360008301526156f9816156bd565b9050919050565b60006040820190506157156000830185613a2e565b6157226020830184613a2e565b9392505050565b7f544f5f5a45524f5f414444520000000000000000000000000000000000000000600082015250565b600061575f600c83613b1e565b915061576a82615729565b602082019050919050565b6000602082019050818103600083015261578e81615752565b9050919050565b7f416464726573733a2064656c65676174652063616c6c20746f206e6f6e2d636f60008201527f6e74726163740000000000000000000000000000000000000000000000000000602082015250565b60006157f1602683613b1e565b91506157fc82615795565b604082019050919050565b60006020820190508181036000830152615820816157e4565b9050919050565b600081905092915050565b600061583d826145e1565b6158478185615827565b9350615857818560208601613b2f565b80840191505092915050565b600061586f8284615832565b915081905092915050565b6000615885826145e1565b61588f8185615073565b935061589f818560208601613b2f565b6158a881613b59565b840191505092915050565b600060a0820190506158c86000830188613c5f565b6158d56020830187613c5f565b6158e26040830186613a2e565b6158ef6060830185613a2e565b8181036080830152615901818461587a565b90509695505050505050565b60008151905061591c81613a84565b92915050565b60006020828403121561593857615937613950565b5b60006159468482850161590d565b91505092915050565b60008160e01c9050919050565b600060033d111561597b5760046000803e61597860005161594f565b90505b90565b600060443d10615a0b57615990613946565b60043d036004823e80513d602482011167ffffffffffffffff821117156159b8575050615a0b565b808201805167ffffffffffffffff8111156159d65750505050615a0b565b80602083010160043d0385018111156159f3575050505050615a0b565b615a0282602001850186613d1e565b82955050505050505b90565b7f2145524331313535524543454956455200000000000000000000000000000000600082015250565b6000615a44601083613b1e565b9150615a4f82615a0e565b602082019050919050565b60006020820190508181036000830152615a7381615a37565b9050919050565b7f544f4b454e535f52454a45435445440000000000000000000000000000000000600082015250565b6000615ab0600f83613b1e565b9150615abb82615a7a565b602082019050919050565b60006020820190508181036000830152615adf81615aa3565b9050919050565b600060a082019050615afb6000830188613c5f565b615b086020830187613c5f565b8181036040830152615b1a818661426a565b90508181036060830152615b2e818561426a565b90508181036080830152615b42818461587a565b9050969550505050505056fe416464726573733a206c6f772d6c6576656c2064656c65676174652063616c6c206661696c6564a2646970667358221220654b5caa36350288269f430a4c9eb360c63102355e02433c2e9257f51548270264736f6c63430008120033",
  "immutableReferences": {},
  "source": "// SPDX-License-Identifier: Apache-2.0\npragma solidity ^0.8.0;\n\nimport { ERC1155 } from \"../eip/ERC1155.sol\";\n\nimport \"../extension/ContractMetadata.sol\";\nimport \"../extension/Multicall.sol\";\nimport \"../extension/Ownable.sol\";\nimport \"../extension/Royalty.sol\";\nimport \"../extension/BatchMintMetadata.sol\";\nimport \"../extension/LazyMint.sol\";\nimport \"../extension/interface/IClaimableERC1155.sol\";\nimport \"../extension/DefaultOperatorFilterer.sol\";\n\nimport \"../lib/TWStrings.sol\";\nimport \"../openzeppelin-presets/security/ReentrancyGuard.sol\";\n\n/**\n *      BASE:      ERC1155Base\n *      EXTENSION: LazyMint\n *\n *  The `ERC1155LazyMint` smart contract implements the ERC1155 NFT standard.\n *  It includes the following additions to standard ERC1155 logic:\n *\n *      - Lazy minting\n *\n *      - Ability to mint NFTs via the provided `mintTo` and `batchMintTo` functions.\n *\n *      - Contract metadata for royalty support on platforms such as OpenSea that use\n *        off-chain information to distribute roaylties.\n *\n *      - Ownership of the contract, with the ability to restrict certain functions to\n *        only be called by the contract's owner.\n *\n *      - Multicall capability to perform multiple actions atomically\n *\n *      - EIP 2981 compliance for royalty support on NFT marketplaces.\n *\n *\n *  The `ERC1155LazyMint` contract uses the `LazyMint` extension.\n *\n *  'Lazy minting' means defining the metadata of NFTs without minting it to an address. Regular 'minting'\n *  of  NFTs means actually assigning an owner to an NFT.\n *\n *  As a contract admin, this lets you prepare the metadata for NFTs that will be minted by an external party,\n *  without paying the gas cost for actually minting the NFTs.\n *\n */\n\ncontract ERC1155LazyMint is\n    ERC1155,\n    ContractMetadata,\n    Ownable,\n    Royalty,\n    Multicall,\n    BatchMintMetadata,\n    LazyMint,\n    IClaimableERC1155,\n    DefaultOperatorFilterer,\n    ReentrancyGuard\n{\n    using TWStrings for uint256;\n\n    /*//////////////////////////////////////////////////////////////\n                        Mappings\n    //////////////////////////////////////////////////////////////*/\n\n    /**\n     *  @notice Returns the total supply of NFTs of a given tokenId\n     *  @dev Mapping from tokenId => total circulating supply of NFTs of that tokenId.\n     */\n    mapping(uint256 => uint256) public totalSupply;\n\n    /*//////////////////////////////////////////////////////////////\n                            Constructor\n    //////////////////////////////////////////////////////////////*/\n\n    constructor(\n        string memory _name,\n        string memory _symbol,\n        address _royaltyRecipient,\n        uint128 _royaltyBps\n    ) ERC1155(_name, _symbol) {\n        _setupOwner(msg.sender);\n        _setupDefaultRoyaltyInfo(_royaltyRecipient, _royaltyBps);\n        _setOperatorRestriction(true);\n    }\n\n    /*//////////////////////////////////////////////////////////////\n                    Overriden metadata logic\n    //////////////////////////////////////////////////////////////*/\n\n    /// @notice Returns the metadata URI for the given tokenId.\n    function uri(uint256 _tokenId) public view virtual override returns (string memory) {\n        string memory batchUri = _getBaseURI(_tokenId);\n        return string(abi.encodePacked(batchUri, _tokenId.toString()));\n    }\n\n    /*//////////////////////////////////////////////////////////////\n                            CLAIM LOGIC\n    //////////////////////////////////////////////////////////////*/\n\n    /**\n     *  @notice          Lets an address claim multiple lazy minted NFTs at once to a recipient.\n     *                   This function prevents any reentrant calls, and is not allowed to be overridden.\n     *\n     *                   Contract creators should override `verifyClaim` and `transferTokensOnClaim`\n     *                   functions to create custom logic for verification and claiming,\n     *                   for e.g. price collection, allowlist, max quantity, etc.\n     *\n     *  @dev             The logic in `verifyClaim` determines whether the caller is authorized to mint NFTs.\n     *                   The logic in `transferTokensOnClaim` does actual minting of tokens,\n     *                   can also be used to apply other state changes.\n     *\n     *  @param _receiver  The recipient of the tokens to mint.\n     *  @param _tokenId   The tokenId of the lazy minted NFT to mint.\n     *  @param _quantity  The number of tokens to mint.\n     */\n    function claim(\n        address _receiver,\n        uint256 _tokenId,\n        uint256 _quantity\n    ) public payable nonReentrant {\n        require(_tokenId < nextTokenIdToMint(), \"invalid id\");\n        verifyClaim(msg.sender, _tokenId, _quantity); // Add your claim verification logic by overriding this function.\n\n        _transferTokensOnClaim(_receiver, _tokenId, _quantity); // Mints tokens. Apply any state updates by overriding this function.\n        emit TokensClaimed(msg.sender, _receiver, _tokenId, _quantity);\n    }\n\n    /**\n     *  @notice          Override this function to add logic for claim verification, based on conditions\n     *                   such as allowlist, price, max quantity etc.\n     *\n     *  @dev             Checks a request to claim NFTs against a custom condition.\n     *\n     *  @param _claimer   Caller of the claim function.\n     *  @param _tokenId   The tokenId of the lazy minted NFT to mint.\n     *  @param _quantity  The number of NFTs being claimed.\n     */\n    function verifyClaim(\n        address _claimer,\n        uint256 _tokenId,\n        uint256 _quantity\n    ) public view virtual {}\n\n    /**\n     *  @notice         Lets an owner or approved operator burn NFTs of the given tokenId.\n     *\n     *  @param _owner   The owner of the NFT to burn.\n     *  @param _tokenId The tokenId of the NFT to burn.\n     *  @param _amount  The amount of the NFT to burn.\n     */\n    function burn(\n        address _owner,\n        uint256 _tokenId,\n        uint256 _amount\n    ) external virtual {\n        address caller = msg.sender;\n\n        require(caller == _owner || isApprovedForAll[_owner][caller], \"Unapproved caller\");\n        require(balanceOf[_owner][_tokenId] >= _amount, \"Not enough tokens owned\");\n\n        _burn(_owner, _tokenId, _amount);\n    }\n\n    /**\n     *  @notice         Lets an owner or approved operator burn NFTs of the given tokenIds.\n     *\n     *  @param _owner    The owner of the NFTs to burn.\n     *  @param _tokenIds The tokenIds of the NFTs to burn.\n     *  @param _amounts  The amounts of the NFTs to burn.\n     */\n    function burnBatch(\n        address _owner,\n        uint256[] memory _tokenIds,\n        uint256[] memory _amounts\n    ) external virtual {\n        address caller = msg.sender;\n\n        require(caller == _owner || isApprovedForAll[_owner][caller], \"Unapproved caller\");\n        require(_tokenIds.length == _amounts.length, \"Length mismatch\");\n\n        for (uint256 i = 0; i < _tokenIds.length; i += 1) {\n            require(balanceOf[_owner][_tokenIds[i]] >= _amounts[i], \"Not enough tokens owned\");\n        }\n\n        _burnBatch(_owner, _tokenIds, _amounts);\n    }\n\n    /*//////////////////////////////////////////////////////////////\n                            ERC165 Logic\n    //////////////////////////////////////////////////////////////*/\n\n    /// @notice Returns whether this contract supports the given interface.\n    function supportsInterface(bytes4 interfaceId) public view virtual override(ERC1155, IERC165) returns (bool) {\n        return\n            interfaceId == 0x01ffc9a7 || // ERC165 Interface ID for ERC165\n            interfaceId == 0xd9b67a26 || // ERC165 Interface ID for ERC1155\n            interfaceId == 0x0e89341c || // ERC165 Interface ID for ERC1155MetadataURI\n            interfaceId == type(IERC2981).interfaceId; // ERC165 ID for ERC2981\n    }\n\n    /*//////////////////////////////////////////////////////////////\n                            View functions\n    //////////////////////////////////////////////////////////////*/\n\n    /// @notice The tokenId assigned to the next new NFT to be lazy minted.\n    function nextTokenIdToMint() public view virtual returns (uint256) {\n        return nextTokenIdToLazyMint;\n    }\n\n    /*//////////////////////////////////////////////////////////////\n                        ERC-1155 overrides\n    //////////////////////////////////////////////////////////////*/\n\n    /// @dev See {ERC1155-setApprovalForAll}\n    function setApprovalForAll(address operator, bool approved)\n        public\n        override(ERC1155)\n        onlyAllowedOperatorApproval(operator)\n    {\n        super.setApprovalForAll(operator, approved);\n    }\n\n    /**\n     * @dev See {IERC1155-safeTransferFrom}.\n     */\n    function safeTransferFrom(\n        address from,\n        address to,\n        uint256 id,\n        uint256 amount,\n        bytes memory data\n    ) public override(ERC1155) onlyAllowedOperator(from) {\n        super.safeTransferFrom(from, to, id, amount, data);\n    }\n\n    /**\n     * @dev See {IERC1155-safeBatchTransferFrom}.\n     */\n    function safeBatchTransferFrom(\n        address from,\n        address to,\n        uint256[] memory ids,\n        uint256[] memory amounts,\n        bytes memory data\n    ) public override(ERC1155) onlyAllowedOperator(from) {\n        super.safeBatchTransferFrom(from, to, ids, amounts, data);\n    }\n\n    /*//////////////////////////////////////////////////////////////\n                        Internal functions\n    //////////////////////////////////////////////////////////////*/\n\n    /**\n     *  @notice          Mints tokens to receiver on claim.\n     *                   Any state changes related to `claim` must be applied\n     *                   here by overriding this function.\n     *\n     *  @dev             Override this function to add logic for state updation.\n     *                   When overriding, apply any state changes before `_mint`.\n     */\n    function _transferTokensOnClaim(\n        address _receiver,\n        uint256 _tokenId,\n        uint256 _quantity\n    ) internal virtual {\n        _mint(_receiver, _tokenId, _quantity, \"\");\n    }\n\n    /// @dev Returns whether lazy minting can be done in the given execution context.\n    function _canLazyMint() internal view virtual override returns (bool) {\n        return msg.sender == owner();\n    }\n\n    /// @dev Returns whether contract metadata can be set in the given execution context.\n    function _canSetContractURI() internal view virtual override returns (bool) {\n        return msg.sender == owner();\n    }\n\n    /// @dev Returns whether owner can be set in the given execution context.\n    function _canSetOwner() internal view virtual override returns (bool) {\n        return msg.sender == owner();\n    }\n\n    /// @dev Returns whether royalty info can be set in the given execution context.\n    function _canSetRoyaltyInfo() internal view virtual override returns (bool) {\n        return msg.sender == owner();\n    }\n\n    /// @dev Returns whether operator restriction can be set in the given execution context.\n    function _canSetOperatorRestriction() internal virtual override returns (bool) {\n        return msg.sender == owner();\n    }\n\n    /// @dev Runs before every token transfer / mint / burn.\n    function _beforeTokenTransfer(\n        address operator,\n        address from,\n        address to,\n        uint256[] memory ids,\n        uint256[] memory amounts,\n        bytes memory data\n    ) internal virtual override {\n        super._beforeTokenTransfer(operator, from, to, ids, amounts, data);\n\n        if (from == address(0)) {\n            for (uint256 i = 0; i < ids.length; ++i) {\n                totalSupply[ids[i]] += amounts[i];\n            }\n        }\n\n        if (to == address(0)) {\n            for (uint256 i = 0; i < ids.length; ++i) {\n                totalSupply[ids[i]] -= amounts[i];\n            }\n        }\n    }\n}\n",
  "sourcePath": "@thirdweb-dev/contracts/base/ERC1155LazyMint.sol",
  "compiler": {
    "name": "solc",
    "version": "0.8.18+commit.87f61d96.Emscripten.clang"
  },
  "schemaVersion": "3.4.11",
  "updatedAt": "2023-02-13T12:05:00.469Z",
  "devdoc": {
    "events": {
      "ApprovalForAll(address,address,bool)": {
        "details": "MUST emit when approval for a second party/operator address to manage all tokens for an owner address is enabled or disabled (absense of an event assumes disabled)."
      },
      "ContractURIUpdated(string,string)": {
        "details": "Emitted when the contract URI is updated."
      },
      "DefaultRoyalty(address,uint256)": {
        "details": "Emitted when royalty info is updated."
      },
      "OwnerUpdated(address,address)": {
        "details": "Emitted when a new Owner is set."
      },
      "RoyaltyForToken(uint256,address,uint256)": {
        "details": "Emitted when royalty recipient for tokenId is set"
      },
      "TokensClaimed(address,address,uint256,uint256)": {
        "details": "Emitted when tokens are claimed"
      },
      "TokensLazyMinted(uint256,uint256,string,bytes)": {
        "details": "Emitted when tokens are lazy minted."
      },
      "TransferBatch(address,address,address,uint256[],uint256[])": {
        "details": "Either `TransferSingle` or `TransferBatch` MUST emit when tokens are transferred, including zero value transfers as well as minting or burning (see \"Safe Transfer Rules\" section of the standard). The `_operator` argument MUST be msg.sender. The `_from` argument MUST be the address of the holder whose balance is decreased. The `_to` argument MUST be the address of the recipient whose balance is increased. The `_ids` argument MUST be the list of tokens being transferred. The `_values` argument MUST be the list of number of tokens (matching the list and order of tokens specified in _ids) the holder balance is decreased by and match what the recipient balance is increased by. When minting/creating tokens, the `_from` argument MUST be set to `0x0` (i.e. zero address). When burning/destroying tokens, the `_to` argument MUST be set to `0x0` (i.e. zero address)."
      },
      "TransferSingle(address,address,address,uint256,uint256)": {
        "details": "Either `TransferSingle` or `TransferBatch` MUST emit when tokens are transferred, including zero value transfers as well as minting or burning (see \"Safe Transfer Rules\" section of the standard). The `_operator` argument MUST be msg.sender. The `_from` argument MUST be the address of the holder whose balance is decreased. The `_to` argument MUST be the address of the recipient whose balance is increased. The `_id` argument MUST be the token type being transferred. The `_value` argument MUST be the number of tokens the holder balance is decreased by and match what the recipient balance is increased by. When minting/creating tokens, the `_from` argument MUST be set to `0x0` (i.e. zero address). When burning/destroying tokens, the `_to` argument MUST be set to `0x0` (i.e. zero address)."
      },
      "URI(string,uint256)": {
        "details": "MUST emit when the URI is updated for a token ID. URIs are defined in RFC 3986. The URI MUST point a JSON file that conforms to the \"ERC-1155 Metadata URI JSON Schema\"."
      }
    },
    "kind": "dev",
    "methods": {
      "burn(address,uint256,uint256)": {
        "params": {
          "_amount": "The amount of the NFT to burn.",
          "_owner": "The owner of the NFT to burn.",
          "_tokenId": "The tokenId of the NFT to burn."
        }
      },
      "burnBatch(address,uint256[],uint256[])": {
        "params": {
          "_amounts": "The amounts of the NFTs to burn.",
          "_owner": "The owner of the NFTs to burn.",
          "_tokenIds": "The tokenIds of the NFTs to burn."
        }
      },
      "claim(address,uint256,uint256)": {
        "details": "The logic in `verifyClaim` determines whether the caller is authorized to mint NFTs.                   The logic in `transferTokensOnClaim` does actual minting of tokens,                   can also be used to apply other state changes.",
        "params": {
          "_quantity": "The number of tokens to mint.",
          "_receiver": "The recipient of the tokens to mint.",
          "_tokenId": "The tokenId of the lazy minted NFT to mint."
        }
      },
      "getBaseURICount()": {
        "details": "Each batch of tokens has an in ID and an associated `baseURI`.                  See {batchIds}."
      },
      "getBatchIdAtIndex(uint256)": {
        "details": "See {getBaseURICount}.",
        "params": {
          "_index": "ID of a token."
        }
      },
      "getRoyaltyInfoForToken(uint256)": {
        "details": "Returns royalty recipient and bps for `_tokenId`.",
        "params": {
          "_tokenId": "The tokenID of the NFT for which to query royalty info."
        }
      },
      "lazyMint(uint256,string,bytes)": {
        "params": {
          "_amount": "The number of NFTs to lazy mint.",
          "_baseURIForTokens": "The base URI for the 'n' number of NFTs being lazy minted, where the metadata for each                           of those NFTs is `${baseURIForTokens}/${tokenId}`.",
          "_data": "Additional bytes data to be used at the discretion of the consumer of the contract."
        },
        "returns": {
          "batchId": "         A unique integer identifier for the batch of NFTs lazy minted together."
        }
      },
      "multicall(bytes[])": {
        "details": "Receives and executes a batch of function calls on this contract.",
        "params": {
          "data": "The bytes data that makes up the batch of function calls to execute."
        },
        "returns": {
          "results": "The bytes data that makes up the result of the batch of function calls executed."
        }
      },
      "royaltyInfo(uint256,uint256)": {
        "details": "Returns royalty amount and recipient for `tokenId` and `salePrice`.",
        "params": {
          "salePrice": "Sale price of the token.",
          "tokenId": "The tokenID of the NFT for which to query royalty info."
        },
        "returns": {
          "receiver": "       Address of royalty recipient account.",
          "royaltyAmount": "  Royalty amount calculated at current royaltyBps value."
        }
      },
      "safeBatchTransferFrom(address,address,uint256[],uint256[],bytes)": {
        "details": "See {IERC1155-safeBatchTransferFrom}."
      },
      "safeTransferFrom(address,address,uint256,uint256,bytes)": {
        "details": "See {IERC1155-safeTransferFrom}."
      },
      "setApprovalForAll(address,bool)": {
        "details": "See {ERC1155-setApprovalForAll}"
      },
      "setContractURI(string)": {
        "details": "Caller should be authorized to setup contractURI, e.g. contract admin.                  See {_canSetContractURI}.                  Emits {ContractURIUpdated Event}.",
        "params": {
          "_uri": "keccak256 hash of the role. e.g. keccak256(\"TRANSFER_ROLE\")"
        }
      },
      "setDefaultRoyaltyInfo(address,uint256)": {
        "details": "Caller should be authorized to set royalty info.                  See {_canSetRoyaltyInfo}.                  Emits {DefaultRoyalty Event}; See {_setupDefaultRoyaltyInfo}.",
        "params": {
          "_royaltyBps": "Updated royalty bps.",
          "_royaltyRecipient": "Address to be set as default royalty recipient."
        }
      },
      "setOwner(address)": {
        "params": {
          "_newOwner": "The address to set as the new owner of the contract."
        }
      },
      "setRoyaltyInfoForToken(uint256,address,uint256)": {
        "details": "Sets royalty info for `_tokenId`. Caller should be authorized to set royalty info.                  See {_canSetRoyaltyInfo}.                  Emits {RoyaltyForToken Event}; See {_setupRoyaltyInfoForToken}.",
        "params": {
          "_bps": "Updated royalty bps for the token Id.",
          "_recipient": "Address to be set as royalty recipient for given token Id."
        }
      },
      "verifyClaim(address,uint256,uint256)": {
        "details": "Checks a request to claim NFTs against a custom condition.",
        "params": {
          "_claimer": "Caller of the claim function.",
          "_quantity": "The number of NFTs being claimed.",
          "_tokenId": "The tokenId of the lazy minted NFT to mint."
        }
      }
    },
    "stateVariables": {
      "totalSupply": {
        "details": "Mapping from tokenId => total circulating supply of NFTs of that tokenId."
      }
    },
    "version": 1
  },
  "userdoc": {
    "kind": "user",
    "methods": {
      "balanceOf(address,uint256)": {
        "notice": "Get the balance of an account's Tokens."
      },
      "burn(address,uint256,uint256)": {
        "notice": "Lets an owner or approved operator burn NFTs of the given tokenId."
      },
      "burnBatch(address,uint256[],uint256[])": {
        "notice": "Lets an owner or approved operator burn NFTs of the given tokenIds."
      },
      "claim(address,uint256,uint256)": {
        "notice": "Lets an address claim multiple lazy minted NFTs at once to a recipient.                   This function prevents any reentrant calls, and is not allowed to be overridden.                   Contract creators should override `verifyClaim` and `transferTokensOnClaim`                   functions to create custom logic for verification and claiming,                   for e.g. price collection, allowlist, max quantity, etc."
      },
      "contractURI()": {
        "notice": "Returns the contract metadata URI."
      },
      "getBaseURICount()": {
        "notice": "Returns the count of batches of NFTs."
      },
      "getBatchIdAtIndex(uint256)": {
        "notice": "Returns the ID for the batch of tokens the given tokenId belongs to."
      },
      "getDefaultRoyaltyInfo()": {
        "notice": "Returns the defualt royalty recipient and BPS for this contract's NFTs."
      },
      "getRoyaltyInfoForToken(uint256)": {
        "notice": "View royalty info for a given token."
      },
      "isApprovedForAll(address,address)": {
        "notice": "Queries the approval status of an operator for a given owner."
      },
      "lazyMint(uint256,string,bytes)": {
        "notice": "Lets an authorized address lazy mint a given amount of NFTs."
      },
      "multicall(bytes[])": {
        "notice": "Receives and executes a batch of function calls on this contract."
      },
      "nextTokenIdToMint()": {
        "notice": "The tokenId assigned to the next new NFT to be lazy minted."
      },
      "owner()": {
        "notice": "Returns the owner of the contract."
      },
      "royaltyInfo(uint256,uint256)": {
        "notice": "View royalty info for a given token and sale price."
      },
      "setContractURI(string)": {
        "notice": "Lets a contract admin set the URI for contract-level metadata."
      },
      "setDefaultRoyaltyInfo(address,uint256)": {
        "notice": "Updates default royalty recipient and bps."
      },
      "setOwner(address)": {
        "notice": "Lets an authorized wallet set a new owner for the contract."
      },
      "setRoyaltyInfoForToken(uint256,address,uint256)": {
        "notice": "Updates default royalty recipient and bps for a particular token."
      },
      "supportsInterface(bytes4)": {
        "notice": "Returns whether this contract supports the given interface."
      },
      "totalSupply(uint256)": {
        "notice": "Returns the total supply of NFTs of a given tokenId"
      },
      "uri(uint256)": {
        "notice": "Returns the metadata URI for the given tokenId."
      },
      "verifyClaim(address,uint256,uint256)": {
        "notice": "Override this function to add logic for claim verification, based on conditions                   such as allowlist, price, max quantity etc."
      }
    },
    "notice": "BASE:      ERC1155Base      EXTENSION: LazyMint  The `ERC1155LazyMint` smart contract implements the ERC1155 NFT standard.  It includes the following additions to standard ERC1155 logic:      - Lazy minting      - Ability to mint NFTs via the provided `mintTo` and `batchMintTo` functions.      - Contract metadata for royalty support on platforms such as OpenSea that use        off-chain information to distribute roaylties.      - Ownership of the contract, with the ability to restrict certain functions to        only be called by the contract's owner.      - Multicall capability to perform multiple actions atomically      - EIP 2981 compliance for royalty support on NFT marketplaces.  The `ERC1155LazyMint` contract uses the `LazyMint` extension.  'Lazy minting' means defining the metadata of NFTs without minting it to an address. Regular 'minting'  of  NFTs means actually assigning an owner to an NFT.  As a contract admin, this lets you prepare the metadata for NFTs that will be minted by an external party,  without paying the gas cost for actually minting the NFTs.",
    "version": 1
  }
}