{
  "contractName": "ERC1155",
  "abi": [
    {
      "inputs": [
        {
          "internalType": "string",
          "name": "_name",
          "type": "string"
        },
        {
          "internalType": "string",
          "name": "_symbol",
          "type": "string"
        }
      ],
      "stateMutability": "nonpayable",
      "type": "constructor"
    },
    {
      "anonymous": false,
      "inputs": [
        {
          "indexed": true,
          "internalType": "address",
          "name": "_owner",
          "type": "address"
        },
        {
          "indexed": true,
          "internalType": "address",
          "name": "_operator",
          "type": "address"
        },
        {
          "indexed": false,
          "internalType": "bool",
          "name": "_approved",
          "type": "bool"
        }
      ],
      "name": "ApprovalForAll",
      "type": "event"
    },
    {
      "anonymous": false,
      "inputs": [
        {
          "indexed": true,
          "internalType": "address",
          "name": "_operator",
          "type": "address"
        },
        {
          "indexed": true,
          "internalType": "address",
          "name": "_from",
          "type": "address"
        },
        {
          "indexed": true,
          "internalType": "address",
          "name": "_to",
          "type": "address"
        },
        {
          "indexed": false,
          "internalType": "uint256[]",
          "name": "_ids",
          "type": "uint256[]"
        },
        {
          "indexed": false,
          "internalType": "uint256[]",
          "name": "_values",
          "type": "uint256[]"
        }
      ],
      "name": "TransferBatch",
      "type": "event"
    },
    {
      "anonymous": false,
      "inputs": [
        {
          "indexed": true,
          "internalType": "address",
          "name": "_operator",
          "type": "address"
        },
        {
          "indexed": true,
          "internalType": "address",
          "name": "_from",
          "type": "address"
        },
        {
          "indexed": true,
          "internalType": "address",
          "name": "_to",
          "type": "address"
        },
        {
          "indexed": false,
          "internalType": "uint256",
          "name": "_id",
          "type": "uint256"
        },
        {
          "indexed": false,
          "internalType": "uint256",
          "name": "_value",
          "type": "uint256"
        }
      ],
      "name": "TransferSingle",
      "type": "event"
    },
    {
      "anonymous": false,
      "inputs": [
        {
          "indexed": false,
          "internalType": "string",
          "name": "_value",
          "type": "string"
        },
        {
          "indexed": true,
          "internalType": "uint256",
          "name": "_id",
          "type": "uint256"
        }
      ],
      "name": "URI",
      "type": "event"
    },
    {
      "inputs": [
        {
          "internalType": "address",
          "name": "",
          "type": "address"
        },
        {
          "internalType": "uint256",
          "name": "",
          "type": "uint256"
        }
      ],
      "name": "balanceOf",
      "outputs": [
        {
          "internalType": "uint256",
          "name": "",
          "type": "uint256"
        }
      ],
      "stateMutability": "view",
      "type": "function"
    },
    {
      "inputs": [
        {
          "internalType": "address",
          "name": "",
          "type": "address"
        },
        {
          "internalType": "address",
          "name": "",
          "type": "address"
        }
      ],
      "name": "isApprovedForAll",
      "outputs": [
        {
          "internalType": "bool",
          "name": "",
          "type": "bool"
        }
      ],
      "stateMutability": "view",
      "type": "function"
    },
    {
      "inputs": [],
      "name": "name",
      "outputs": [
        {
          "internalType": "string",
          "name": "",
          "type": "string"
        }
      ],
      "stateMutability": "view",
      "type": "function"
    },
    {
      "inputs": [],
      "name": "symbol",
      "outputs": [
        {
          "internalType": "string",
          "name": "",
          "type": "string"
        }
      ],
      "stateMutability": "view",
      "type": "function"
    },
    {
      "inputs": [
        {
          "internalType": "bytes4",
          "name": "interfaceId",
          "type": "bytes4"
        }
      ],
      "name": "supportsInterface",
      "outputs": [
        {
          "internalType": "bool",
          "name": "",
          "type": "bool"
        }
      ],
      "stateMutability": "view",
      "type": "function"
    },
    {
      "inputs": [
        {
          "internalType": "uint256",
          "name": "tokenId",
          "type": "uint256"
        }
      ],
      "name": "uri",
      "outputs": [
        {
          "internalType": "string",
          "name": "",
          "type": "string"
        }
      ],
      "stateMutability": "view",
      "type": "function"
    },
    {
      "inputs": [
        {
          "internalType": "address[]",
          "name": "accounts",
          "type": "address[]"
        },
        {
          "internalType": "uint256[]",
          "name": "ids",
          "type": "uint256[]"
        }
      ],
      "name": "balanceOfBatch",
      "outputs": [
        {
          "internalType": "uint256[]",
          "name": "",
          "type": "uint256[]"
        }
      ],
      "stateMutability": "view",
      "type": "function"
    },
    {
      "inputs": [
        {
          "internalType": "address",
          "name": "operator",
          "type": "address"
        },
        {
          "internalType": "bool",
          "name": "approved",
          "type": "bool"
        }
      ],
      "name": "setApprovalForAll",
      "outputs": [],
      "stateMutability": "nonpayable",
      "type": "function"
    },
    {
      "inputs": [
        {
          "internalType": "address",
          "name": "from",
          "type": "address"
        },
        {
          "internalType": "address",
          "name": "to",
          "type": "address"
        },
        {
          "internalType": "uint256",
          "name": "id",
          "type": "uint256"
        },
        {
          "internalType": "uint256",
          "name": "amount",
          "type": "uint256"
        },
        {
          "internalType": "bytes",
          "name": "data",
          "type": "bytes"
        }
      ],
      "name": "safeTransferFrom",
      "outputs": [],
      "stateMutability": "nonpayable",
      "type": "function"
    },
    {
      "inputs": [
        {
          "internalType": "address",
          "name": "from",
          "type": "address"
        },
        {
          "internalType": "address",
          "name": "to",
          "type": "address"
        },
        {
          "internalType": "uint256[]",
          "name": "ids",
          "type": "uint256[]"
        },
        {
          "internalType": "uint256[]",
          "name": "amounts",
          "type": "uint256[]"
        },
        {
          "internalType": "bytes",
          "name": "data",
          "type": "bytes"
        }
      ],
      "name": "safeBatchTransferFrom",
      "outputs": [],
      "stateMutability": "nonpayable",
      "type": "function"
    }
  ],
  "bytecode": "0x60806040523480156200001157600080fd5b50604051620028f2380380620028f28339818101604052810190620000379190620001f6565b8160009081620000489190620004c6565b5080600190816200005a9190620004c6565b505050620005ad565b6000604051905090565b600080fd5b600080fd5b600080fd5b600080fd5b6000601f19601f8301169050919050565b7f4e487b7100000000000000000000000000000000000000000000000000000000600052604160045260246000fd5b620000cc8262000081565b810181811067ffffffffffffffff82111715620000ee57620000ed62000092565b5b80604052505050565b60006200010362000063565b9050620001118282620000c1565b919050565b600067ffffffffffffffff82111562000134576200013362000092565b5b6200013f8262000081565b9050602081019050919050565b60005b838110156200016c5780820151818401526020810190506200014f565b60008484015250505050565b60006200018f620001898462000116565b620000f7565b905082815260208101848484011115620001ae57620001ad6200007c565b5b620001bb8482856200014c565b509392505050565b600082601f830112620001db57620001da62000077565b5b8151620001ed84826020860162000178565b91505092915050565b6000806040838503121562000210576200020f6200006d565b5b600083015167ffffffffffffffff81111562000231576200023062000072565b5b6200023f85828601620001c3565b925050602083015167ffffffffffffffff81111562000263576200026262000072565b5b6200027185828601620001c3565b9150509250929050565b600081519050919050565b7f4e487b7100000000000000000000000000000000000000000000000000000000600052602260045260246000fd5b60006002820490506001821680620002ce57607f821691505b602082108103620002e457620002e362000286565b5b50919050565b60008190508160005260206000209050919050565b60006020601f8301049050919050565b600082821b905092915050565b6000600883026200034e7fffffffffffffffffffffffffffffffffffffffffffffffffffffffffffffffff826200030f565b6200035a86836200030f565b95508019841693508086168417925050509392505050565b6000819050919050565b6000819050919050565b6000620003a7620003a16200039b8462000372565b6200037c565b62000372565b9050919050565b6000819050919050565b620003c38362000386565b620003db620003d282620003ae565b8484546200031c565b825550505050565b600090565b620003f2620003e3565b620003ff818484620003b8565b505050565b5b8181101562000427576200041b600082620003e8565b60018101905062000405565b5050565b601f82111562000476576200044081620002ea565b6200044b84620002ff565b810160208510156200045b578190505b620004736200046a85620002ff565b83018262000404565b50505b505050565b600082821c905092915050565b60006200049b600019846008026200047b565b1980831691505092915050565b6000620004b6838362000488565b9150826002028217905092915050565b620004d1826200027b565b67ffffffffffffffff811115620004ed57620004ec62000092565b5b620004f98254620002b5565b620005068282856200042b565b600060209050601f8311600181146200053e576000841562000529578287015190505b620005358582620004a8565b865550620005a5565b601f1984166200054e86620002ea565b60005b82811015620005785784890151825560018201915060208501945060208101905062000551565b8683101562000598578489015162000594601f89168262000488565b8355505b6001600288020188555050505b505050505050565b61233580620005bd6000396000f3fe608060405234801561001057600080fd5b506004361061009d5760003560e01c80634e1273f4116100665780634e1273f41461016c57806395d89b411461019c578063a22cb465146101ba578063e985e9c5146101d6578063f242432a146102065761009d565b8062fdd58e146100a257806301ffc9a7146100d257806306fdde03146101025780630e89341c146101205780632eb2c2d614610150575b600080fd5b6100bc60048036038101906100b7919061141c565b610222565b6040516100c9919061146b565b60405180910390f35b6100ec60048036038101906100e791906114de565b610247565b6040516100f99190611526565b60405180910390f35b61010a6102d9565b60405161011791906115d1565b60405180910390f35b61013a600480360381019061013591906115f3565b610367565b60405161014791906115d1565b60405180910390f35b61016a6004803603810190610165919061181d565b61040c565b005b610186600480360381019061018191906119af565b61051f565b6040516101939190611ae5565b60405180910390f35b6101a461067f565b6040516101b191906115d1565b60405180910390f35b6101d460048036038101906101cf9190611b33565b61070d565b005b6101f060048036038101906101eb9190611b73565b61087e565b6040516101fd9190611526565b60405180910390f35b610220600480360381019061021b9190611bb3565b6108ad565b005b6002602052816000526040600020602052806000526040600020600091509150505481565b60006301ffc9a760e01b827bffffffffffffffffffffffffffffffffffffffffffffffffffffffff191614806102a2575063d9b67a2660e01b827bffffffffffffffffffffffffffffffffffffffffffffffffffffffff1916145b806102d25750630e89341c60e01b827bffffffffffffffffffffffffffffffffffffffffffffffffffffffff1916145b9050919050565b600080546102e690611c79565b80601f016020809104026020016040519081016040528092919081815260200182805461031290611c79565b801561035f5780601f106103345761010080835404028352916020019161035f565b820191906000526020600020905b81548152906001019060200180831161034257829003601f168201915b505050505081565b606060046000838152602001908152602001600020805461038790611c79565b80601f01602080910402602001604051908101604052809291908181526020018280546103b390611c79565b80156104005780601f106103d557610100808354040283529160200191610400565b820191906000526020600020905b8154815290600101906020018083116103e357829003601f168201915b50505050509050919050565b3373ffffffffffffffffffffffffffffffffffffffff168573ffffffffffffffffffffffffffffffffffffffff1614806104cc5750600360008673ffffffffffffffffffffffffffffffffffffffff1673ffffffffffffffffffffffffffffffffffffffff16815260200190815260200160002060003373ffffffffffffffffffffffffffffffffffffffff1673ffffffffffffffffffffffffffffffffffffffff16815260200190815260200160002060009054906101000a900460ff165b61050b576040517f08c379a000000000000000000000000000000000000000000000000000000000815260040161050290611cf6565b60405180910390fd5b61051885858585856109c0565b5050505050565b60608151835114610565576040517f08c379a000000000000000000000000000000000000000000000000000000000815260040161055c90611d62565b60405180910390fd5b6000835167ffffffffffffffff81111561058257610581611625565b5b6040519080825280602002602001820160405280156105b05781602001602082028036833780820191505090505b50905060005b845181101561067457600260008683815181106105d6576105d5611d82565b5b602002602001015173ffffffffffffffffffffffffffffffffffffffff1673ffffffffffffffffffffffffffffffffffffffff168152602001908152602001600020600085838151811061062d5761062c611d82565b5b602002602001015181526020019081526020016000205482828151811061065757610656611d82565b5b6020026020010181815250508061066d90611de0565b90506105b6565b508091505092915050565b6001805461068c90611c79565b80601f01602080910402602001604051908101604052809291908181526020018280546106b890611c79565b80156107055780601f106106da57610100808354040283529160200191610705565b820191906000526020600020905b8154815290600101906020018083116106e857829003601f168201915b505050505081565b60003390508273ffffffffffffffffffffffffffffffffffffffff168173ffffffffffffffffffffffffffffffffffffffff1603610780576040517f08c379a000000000000000000000000000000000000000000000000000000000815260040161077790611e74565b60405180910390fd5b81600360008373ffffffffffffffffffffffffffffffffffffffff1673ffffffffffffffffffffffffffffffffffffffff16815260200190815260200160002060008573ffffffffffffffffffffffffffffffffffffffff1673ffffffffffffffffffffffffffffffffffffffff16815260200190815260200160002060006101000a81548160ff0219169083151502179055508273ffffffffffffffffffffffffffffffffffffffff168173ffffffffffffffffffffffffffffffffffffffff167f17307eab39ab6107e8899845ad3d59bd9653f200f220920489ca2b5937696c31846040516108719190611526565b60405180910390a3505050565b60036020528160005260406000206020528060005260406000206000915091509054906101000a900460ff1681565b3373ffffffffffffffffffffffffffffffffffffffff168573ffffffffffffffffffffffffffffffffffffffff16148061096d5750600360008673ffffffffffffffffffffffffffffffffffffffff1673ffffffffffffffffffffffffffffffffffffffff16815260200190815260200160002060003373ffffffffffffffffffffffffffffffffffffffff1673ffffffffffffffffffffffffffffffffffffffff16815260200190815260200160002060009054906101000a900460ff165b6109ac576040517f08c379a00000000000000000000000000000000000000000000000000000000081526004016109a390611cf6565b60405180910390fd5b6109b98585858585610ccf565b5050505050565b8151835114610a04576040517f08c379a00000000000000000000000000000000000000000000000000000000081526004016109fb90611d62565b60405180910390fd5b600073ffffffffffffffffffffffffffffffffffffffff168473ffffffffffffffffffffffffffffffffffffffff1603610a73576040517f08c379a0000000000000000000000000000000000000000000000000000000008152600401610a6a90611ee0565b60405180910390fd5b6000339050610a86818787878787610f4c565b60005b8451811015610c3a576000858281518110610aa757610aa6611d82565b5b602002602001015190506000858381518110610ac657610ac5611d82565b5b602002602001015190506000600260008b73ffffffffffffffffffffffffffffffffffffffff1673ffffffffffffffffffffffffffffffffffffffff168152602001908152602001600020600084815260200190815260200160002054905081811015610b68576040517f08c379a0000000000000000000000000000000000000000000000000000000008152600401610b5f90611f4c565b60405180910390fd5b818103600260008c73ffffffffffffffffffffffffffffffffffffffff1673ffffffffffffffffffffffffffffffffffffffff16815260200190815260200160002060008581526020019081526020016000208190555081600260008b73ffffffffffffffffffffffffffffffffffffffff1673ffffffffffffffffffffffffffffffffffffffff16815260200190815260200160002060008581526020019081526020016000206000828254610c1f9190611f6c565b9250508190555050505080610c3390611de0565b9050610a89565b508473ffffffffffffffffffffffffffffffffffffffff168673ffffffffffffffffffffffffffffffffffffffff168273ffffffffffffffffffffffffffffffffffffffff167f4a39dc06d4c0dbc64b70af90fd698a233a518aa5d07e595d983b8c0526c8f7fb8787604051610cb1929190611fa0565b60405180910390a4610cc7818787878787610f54565b505050505050565b600073ffffffffffffffffffffffffffffffffffffffff168473ffffffffffffffffffffffffffffffffffffffff1603610d3e576040517f08c379a0000000000000000000000000000000000000000000000000000000008152600401610d3590611ee0565b60405180910390fd5b6000339050610d61818787610d5288611127565b610d5b88611127565b87610f4c565b6000600260008873ffffffffffffffffffffffffffffffffffffffff1673ffffffffffffffffffffffffffffffffffffffff168152602001908152602001600020600086815260200190815260200160002054905083811015610df9576040517f08c379a0000000000000000000000000000000000000000000000000000000008152600401610df090611f4c565b60405180910390fd5b838103600260008973ffffffffffffffffffffffffffffffffffffffff1673ffffffffffffffffffffffffffffffffffffffff16815260200190815260200160002060008781526020019081526020016000208190555083600260008873ffffffffffffffffffffffffffffffffffffffff1673ffffffffffffffffffffffffffffffffffffffff16815260200190815260200160002060008781526020019081526020016000206000828254610eb09190611f6c565b925050819055508573ffffffffffffffffffffffffffffffffffffffff168773ffffffffffffffffffffffffffffffffffffffff168373ffffffffffffffffffffffffffffffffffffffff167fc3d58168c5ae7397731d063d5bbf3d657854427343f4c083240f7aacaa2d0f628888604051610f2d929190611fd7565b60405180910390a4610f438288888888886111a1565b50505050505050565b505050505050565b60008473ffffffffffffffffffffffffffffffffffffffff163b111561111f578373ffffffffffffffffffffffffffffffffffffffff1663bc197c8187878686866040518663ffffffff1660e01b8152600401610fb5959493929190612064565b6020604051808303816000875af1925050508015610ff157506040513d601f19601f82011682018060405250810190610fee91906120e1565b60015b61109657610ffd61211b565b806308c379a003611059575061101161213d565b8061101c575061105b565b806040517f08c379a000000000000000000000000000000000000000000000000000000000815260040161105091906115d1565b60405180910390fd5b505b6040517f08c379a000000000000000000000000000000000000000000000000000000000815260040161108d90612219565b60405180910390fd5b63bc197c8160e01b7bffffffffffffffffffffffffffffffffffffffffffffffffffffffff1916817bffffffffffffffffffffffffffffffffffffffffffffffffffffffff19161461111d576040517f08c379a000000000000000000000000000000000000000000000000000000000815260040161111490612285565b60405180910390fd5b505b505050505050565b60606000600167ffffffffffffffff81111561114657611145611625565b5b6040519080825280602002602001820160405280156111745781602001602082028036833780820191505090505b509050828160008151811061118c5761118b611d82565b5b60200260200101818152505080915050919050565b60008473ffffffffffffffffffffffffffffffffffffffff163b111561136c578373ffffffffffffffffffffffffffffffffffffffff1663f23a6e6187878686866040518663ffffffff1660e01b81526004016112029594939291906122a5565b6020604051808303816000875af192505050801561123e57506040513d601f19601f8201168201806040525081019061123b91906120e1565b60015b6112e35761124a61211b565b806308c379a0036112a6575061125e61213d565b8061126957506112a8565b806040517f08c379a000000000000000000000000000000000000000000000000000000000815260040161129d91906115d1565b60405180910390fd5b505b6040517f08c379a00000000000000000000000000000000000000000000000000000000081526004016112da90612219565b60405180910390fd5b63f23a6e6160e01b7bffffffffffffffffffffffffffffffffffffffffffffffffffffffff1916817bffffffffffffffffffffffffffffffffffffffffffffffffffffffff19161461136a576040517f08c379a000000000000000000000000000000000000000000000000000000000815260040161136190612285565b60405180910390fd5b505b505050505050565b6000604051905090565b600080fd5b600080fd5b600073ffffffffffffffffffffffffffffffffffffffff82169050919050565b60006113b382611388565b9050919050565b6113c3816113a8565b81146113ce57600080fd5b50565b6000813590506113e0816113ba565b92915050565b6000819050919050565b6113f9816113e6565b811461140457600080fd5b50565b600081359050611416816113f0565b92915050565b600080604083850312156114335761143261137e565b5b6000611441858286016113d1565b925050602061145285828601611407565b9150509250929050565b611465816113e6565b82525050565b6000602082019050611480600083018461145c565b92915050565b60007fffffffff0000000000000000000000000000000000000000000000000000000082169050919050565b6114bb81611486565b81146114c657600080fd5b50565b6000813590506114d8816114b2565b92915050565b6000602082840312156114f4576114f361137e565b5b6000611502848285016114c9565b91505092915050565b60008115159050919050565b6115208161150b565b82525050565b600060208201905061153b6000830184611517565b92915050565b600081519050919050565b600082825260208201905092915050565b60005b8381101561157b578082015181840152602081019050611560565b60008484015250505050565b6000601f19601f8301169050919050565b60006115a382611541565b6115ad818561154c565b93506115bd81856020860161155d565b6115c681611587565b840191505092915050565b600060208201905081810360008301526115eb8184611598565b905092915050565b6000602082840312156116095761160861137e565b5b600061161784828501611407565b91505092915050565b600080fd5b7f4e487b7100000000000000000000000000000000000000000000000000000000600052604160045260246000fd5b61165d82611587565b810181811067ffffffffffffffff8211171561167c5761167b611625565b5b80604052505050565b600061168f611374565b905061169b8282611654565b919050565b600067ffffffffffffffff8211156116bb576116ba611625565b5b602082029050602081019050919050565b600080fd5b60006116e46116df846116a0565b611685565b90508083825260208201905060208402830185811115611707576117066116cc565b5b835b81811015611730578061171c8882611407565b845260208401935050602081019050611709565b5050509392505050565b600082601f83011261174f5761174e611620565b5b813561175f8482602086016116d1565b91505092915050565b600080fd5b600067ffffffffffffffff82111561178857611787611625565b5b61179182611587565b9050602081019050919050565b82818337600083830152505050565b60006117c06117bb8461176d565b611685565b9050828152602081018484840111156117dc576117db611768565b5b6117e784828561179e565b509392505050565b600082601f83011261180457611803611620565b5b81356118148482602086016117ad565b91505092915050565b600080600080600060a086880312156118395761183861137e565b5b6000611847888289016113d1565b9550506020611858888289016113d1565b945050604086013567ffffffffffffffff81111561187957611878611383565b5b6118858882890161173a565b935050606086013567ffffffffffffffff8111156118a6576118a5611383565b5b6118b28882890161173a565b925050608086013567ffffffffffffffff8111156118d3576118d2611383565b5b6118df888289016117ef565b9150509295509295909350565b600067ffffffffffffffff82111561190757611906611625565b5b602082029050602081019050919050565b600061192b611926846118ec565b611685565b9050808382526020820190506020840283018581111561194e5761194d6116cc565b5b835b81811015611977578061196388826113d1565b845260208401935050602081019050611950565b5050509392505050565b600082601f83011261199657611995611620565b5b81356119a6848260208601611918565b91505092915050565b600080604083850312156119c6576119c561137e565b5b600083013567ffffffffffffffff8111156119e4576119e3611383565b5b6119f085828601611981565b925050602083013567ffffffffffffffff811115611a1157611a10611383565b5b611a1d8582860161173a565b9150509250929050565b600081519050919050565b600082825260208201905092915050565b6000819050602082019050919050565b611a5c816113e6565b82525050565b6000611a6e8383611a53565b60208301905092915050565b6000602082019050919050565b6000611a9282611a27565b611a9c8185611a32565b9350611aa783611a43565b8060005b83811015611ad8578151611abf8882611a62565b9750611aca83611a7a565b925050600181019050611aab565b5085935050505092915050565b60006020820190508181036000830152611aff8184611a87565b905092915050565b611b108161150b565b8114611b1b57600080fd5b50565b600081359050611b2d81611b07565b92915050565b60008060408385031215611b4a57611b4961137e565b5b6000611b58858286016113d1565b9250506020611b6985828601611b1e565b9150509250929050565b60008060408385031215611b8a57611b8961137e565b5b6000611b98858286016113d1565b9250506020611ba9858286016113d1565b9150509250929050565b600080600080600060a08688031215611bcf57611bce61137e565b5b6000611bdd888289016113d1565b9550506020611bee888289016113d1565b9450506040611bff88828901611407565b9350506060611c1088828901611407565b925050608086013567ffffffffffffffff811115611c3157611c30611383565b5b611c3d888289016117ef565b9150509295509295909350565b7f4e487b7100000000000000000000000000000000000000000000000000000000600052602260045260246000fd5b60006002820490506001821680611c9157607f821691505b602082108103611ca457611ca3611c4a565b5b50919050565b7f214f574e45525f4f525f415050524f5645440000000000000000000000000000600082015250565b6000611ce060128361154c565b9150611ceb82611caa565b602082019050919050565b60006020820190508181036000830152611d0f81611cd3565b9050919050565b7f4c454e4754485f4d49534d415443480000000000000000000000000000000000600082015250565b6000611d4c600f8361154c565b9150611d5782611d16565b602082019050919050565b60006020820190508181036000830152611d7b81611d3f565b9050919050565b7f4e487b7100000000000000000000000000000000000000000000000000000000600052603260045260246000fd5b7f4e487b7100000000000000000000000000000000000000000000000000000000600052601160045260246000fd5b6000611deb826113e6565b91507fffffffffffffffffffffffffffffffffffffffffffffffffffffffffffffffff8203611e1d57611e1c611db1565b5b600182019050919050565b7f415050524f56494e475f53454c46000000000000000000000000000000000000600082015250565b6000611e5e600e8361154c565b9150611e6982611e28565b602082019050919050565b60006020820190508181036000830152611e8d81611e51565b9050919050565b7f544f5f5a45524f5f414444520000000000000000000000000000000000000000600082015250565b6000611eca600c8361154c565b9150611ed582611e94565b602082019050919050565b60006020820190508181036000830152611ef981611ebd565b9050919050565b7f494e53554646494349454e545f42414c00000000000000000000000000000000600082015250565b6000611f3660108361154c565b9150611f4182611f00565b602082019050919050565b60006020820190508181036000830152611f6581611f29565b9050919050565b6000611f77826113e6565b9150611f82836113e6565b9250828201905080821115611f9a57611f99611db1565b5b92915050565b60006040820190508181036000830152611fba8185611a87565b90508181036020830152611fce8184611a87565b90509392505050565b6000604082019050611fec600083018561145c565b611ff9602083018461145c565b9392505050565b612009816113a8565b82525050565b600081519050919050565b600082825260208201905092915050565b60006120368261200f565b612040818561201a565b935061205081856020860161155d565b61205981611587565b840191505092915050565b600060a0820190506120796000830188612000565b6120866020830187612000565b81810360408301526120988186611a87565b905081810360608301526120ac8185611a87565b905081810360808301526120c0818461202b565b90509695505050505050565b6000815190506120db816114b2565b92915050565b6000602082840312156120f7576120f661137e565b5b6000612105848285016120cc565b91505092915050565b60008160e01c9050919050565b600060033d111561213a5760046000803e61213760005161210e565b90505b90565b600060443d106121ca5761214f611374565b60043d036004823e80513d602482011167ffffffffffffffff821117156121775750506121ca565b808201805167ffffffffffffffff81111561219557505050506121ca565b80602083010160043d0385018111156121b25750505050506121ca565b6121c182602001850186611654565b82955050505050505b90565b7f2145524331313535524543454956455200000000000000000000000000000000600082015250565b600061220360108361154c565b915061220e826121cd565b602082019050919050565b60006020820190508181036000830152612232816121f6565b9050919050565b7f544f4b454e535f52454a45435445440000000000000000000000000000000000600082015250565b600061226f600f8361154c565b915061227a82612239565b602082019050919050565b6000602082019050818103600083015261229e81612262565b9050919050565b600060a0820190506122ba6000830188612000565b6122c76020830187612000565b6122d4604083018661145c565b6122e1606083018561145c565b81810360808301526122f3818461202b565b9050969550505050505056fea2646970667358221220a31d0085a2985dc94e4f818577b281e9e6ea005feb79ffae65e50f97b78703ae64736f6c63430008120033",
  "immutableReferences": {},
  "source": "// SPDX-License-Identifier: Apache 2.0\npragma solidity ^0.8.0;\n\nimport \"./interface/IERC1155.sol\";\nimport \"./interface/IERC1155Metadata.sol\";\nimport \"./interface/IERC1155Receiver.sol\";\n\ncontract ERC1155 is IERC1155, IERC1155Metadata {\n    /*//////////////////////////////////////////////////////////////\n                        State variables\n    //////////////////////////////////////////////////////////////*/\n\n    string public name;\n    string public symbol;\n\n    /*//////////////////////////////////////////////////////////////\n                            Mappings\n    //////////////////////////////////////////////////////////////*/\n\n    mapping(address => mapping(uint256 => uint256)) public balanceOf;\n\n    mapping(address => mapping(address => bool)) public isApprovedForAll;\n\n    mapping(uint256 => string) internal _uri;\n\n    /*//////////////////////////////////////////////////////////////\n                            Constructor\n    //////////////////////////////////////////////////////////////*/\n\n    constructor(string memory _name, string memory _symbol) {\n        name = _name;\n        symbol = _symbol;\n    }\n\n    /*//////////////////////////////////////////////////////////////\n                            View functions\n    //////////////////////////////////////////////////////////////*/\n\n    function supportsInterface(bytes4 interfaceId) public view virtual returns (bool) {\n        return\n            interfaceId == 0x01ffc9a7 || // ERC165 Interface ID for ERC165\n            interfaceId == 0xd9b67a26 || // ERC165 Interface ID for ERC1155\n            interfaceId == 0x0e89341c; // ERC165 Interface ID for ERC1155MetadataURI\n    }\n\n    function uri(uint256 tokenId) public view virtual override returns (string memory) {\n        return _uri[tokenId];\n    }\n\n    function balanceOfBatch(address[] memory accounts, uint256[] memory ids)\n        public\n        view\n        virtual\n        override\n        returns (uint256[] memory)\n    {\n        require(accounts.length == ids.length, \"LENGTH_MISMATCH\");\n\n        uint256[] memory batchBalances = new uint256[](accounts.length);\n\n        for (uint256 i = 0; i < accounts.length; ++i) {\n            batchBalances[i] = balanceOf[accounts[i]][ids[i]];\n        }\n\n        return batchBalances;\n    }\n\n    /*//////////////////////////////////////////////////////////////\n                            ERC1155 logic\n    //////////////////////////////////////////////////////////////*/\n\n    function setApprovalForAll(address operator, bool approved) public virtual override {\n        address owner = msg.sender;\n        require(owner != operator, \"APPROVING_SELF\");\n        isApprovedForAll[owner][operator] = approved;\n        emit ApprovalForAll(owner, operator, approved);\n    }\n\n    function safeTransferFrom(\n        address from,\n        address to,\n        uint256 id,\n        uint256 amount,\n        bytes memory data\n    ) public virtual override {\n        require(from == msg.sender || isApprovedForAll[from][msg.sender], \"!OWNER_OR_APPROVED\");\n        _safeTransferFrom(from, to, id, amount, data);\n    }\n\n    function safeBatchTransferFrom(\n        address from,\n        address to,\n        uint256[] memory ids,\n        uint256[] memory amounts,\n        bytes memory data\n    ) public virtual override {\n        require(from == msg.sender || isApprovedForAll[from][msg.sender], \"!OWNER_OR_APPROVED\");\n        _safeBatchTransferFrom(from, to, ids, amounts, data);\n    }\n\n    /*//////////////////////////////////////////////////////////////\n                            Internal logic\n    //////////////////////////////////////////////////////////////*/\n\n    function _safeTransferFrom(\n        address from,\n        address to,\n        uint256 id,\n        uint256 amount,\n        bytes memory data\n    ) internal virtual {\n        require(to != address(0), \"TO_ZERO_ADDR\");\n\n        address operator = msg.sender;\n\n        _beforeTokenTransfer(operator, from, to, _asSingletonArray(id), _asSingletonArray(amount), data);\n\n        uint256 fromBalance = balanceOf[from][id];\n        require(fromBalance >= amount, \"INSUFFICIENT_BAL\");\n        unchecked {\n            balanceOf[from][id] = fromBalance - amount;\n        }\n        balanceOf[to][id] += amount;\n\n        emit TransferSingle(operator, from, to, id, amount);\n\n        _doSafeTransferAcceptanceCheck(operator, from, to, id, amount, data);\n    }\n\n    function _safeBatchTransferFrom(\n        address from,\n        address to,\n        uint256[] memory ids,\n        uint256[] memory amounts,\n        bytes memory data\n    ) internal virtual {\n        require(ids.length == amounts.length, \"LENGTH_MISMATCH\");\n        require(to != address(0), \"TO_ZERO_ADDR\");\n\n        address operator = msg.sender;\n\n        _beforeTokenTransfer(operator, from, to, ids, amounts, data);\n\n        for (uint256 i = 0; i < ids.length; ++i) {\n            uint256 id = ids[i];\n            uint256 amount = amounts[i];\n\n            uint256 fromBalance = balanceOf[from][id];\n            require(fromBalance >= amount, \"INSUFFICIENT_BAL\");\n            unchecked {\n                balanceOf[from][id] = fromBalance - amount;\n            }\n            balanceOf[to][id] += amount;\n        }\n\n        emit TransferBatch(operator, from, to, ids, amounts);\n\n        _doSafeBatchTransferAcceptanceCheck(operator, from, to, ids, amounts, data);\n    }\n\n    function _setTokenURI(uint256 tokenId, string memory newuri) internal virtual {\n        _uri[tokenId] = newuri;\n    }\n\n    function _mint(\n        address to,\n        uint256 id,\n        uint256 amount,\n        bytes memory data\n    ) internal virtual {\n        require(to != address(0), \"TO_ZERO_ADDR\");\n\n        address operator = msg.sender;\n\n        _beforeTokenTransfer(operator, address(0), to, _asSingletonArray(id), _asSingletonArray(amount), data);\n\n        balanceOf[to][id] += amount;\n        emit TransferSingle(operator, address(0), to, id, amount);\n\n        _doSafeTransferAcceptanceCheck(operator, address(0), to, id, amount, data);\n    }\n\n    function _mintBatch(\n        address to,\n        uint256[] memory ids,\n        uint256[] memory amounts,\n        bytes memory data\n    ) internal virtual {\n        require(to != address(0), \"TO_ZERO_ADDR\");\n        require(ids.length == amounts.length, \"LENGTH_MISMATCH\");\n\n        address operator = msg.sender;\n\n        _beforeTokenTransfer(operator, address(0), to, ids, amounts, data);\n\n        for (uint256 i = 0; i < ids.length; i++) {\n            balanceOf[to][ids[i]] += amounts[i];\n        }\n\n        emit TransferBatch(operator, address(0), to, ids, amounts);\n\n        _doSafeBatchTransferAcceptanceCheck(operator, address(0), to, ids, amounts, data);\n    }\n\n    function _burn(\n        address from,\n        uint256 id,\n        uint256 amount\n    ) internal virtual {\n        require(from != address(0), \"FROM_ZERO_ADDR\");\n\n        address operator = msg.sender;\n\n        _beforeTokenTransfer(operator, from, address(0), _asSingletonArray(id), _asSingletonArray(amount), \"\");\n\n        uint256 fromBalance = balanceOf[from][id];\n        require(fromBalance >= amount, \"INSUFFICIENT_BAL\");\n        unchecked {\n            balanceOf[from][id] = fromBalance - amount;\n        }\n\n        emit TransferSingle(operator, from, address(0), id, amount);\n    }\n\n    function _burnBatch(\n        address from,\n        uint256[] memory ids,\n        uint256[] memory amounts\n    ) internal virtual {\n        require(from != address(0), \"FROM_ZERO_ADDR\");\n        require(ids.length == amounts.length, \"LENGTH_MISMATCH\");\n\n        address operator = msg.sender;\n\n        _beforeTokenTransfer(operator, from, address(0), ids, amounts, \"\");\n\n        for (uint256 i = 0; i < ids.length; i++) {\n            uint256 id = ids[i];\n            uint256 amount = amounts[i];\n\n            uint256 fromBalance = balanceOf[from][id];\n            require(fromBalance >= amount, \"INSUFFICIENT_BAL\");\n            unchecked {\n                balanceOf[from][id] = fromBalance - amount;\n            }\n        }\n\n        emit TransferBatch(operator, from, address(0), ids, amounts);\n    }\n\n    function _beforeTokenTransfer(\n        address operator,\n        address from,\n        address to,\n        uint256[] memory ids,\n        uint256[] memory amounts,\n        bytes memory data\n    ) internal virtual {}\n\n    function _doSafeTransferAcceptanceCheck(\n        address operator,\n        address from,\n        address to,\n        uint256 id,\n        uint256 amount,\n        bytes memory data\n    ) private {\n        if (to.code.length > 0) {\n            try IERC1155Receiver(to).onERC1155Received(operator, from, id, amount, data) returns (bytes4 response) {\n                if (response != IERC1155Receiver.onERC1155Received.selector) {\n                    revert(\"TOKENS_REJECTED\");\n                }\n            } catch Error(string memory reason) {\n                revert(reason);\n            } catch {\n                revert(\"!ERC1155RECEIVER\");\n            }\n        }\n    }\n\n    function _doSafeBatchTransferAcceptanceCheck(\n        address operator,\n        address from,\n        address to,\n        uint256[] memory ids,\n        uint256[] memory amounts,\n        bytes memory data\n    ) private {\n        if (to.code.length > 0) {\n            try IERC1155Receiver(to).onERC1155BatchReceived(operator, from, ids, amounts, data) returns (\n                bytes4 response\n            ) {\n                if (response != IERC1155Receiver.onERC1155BatchReceived.selector) {\n                    revert(\"TOKENS_REJECTED\");\n                }\n            } catch Error(string memory reason) {\n                revert(reason);\n            } catch {\n                revert(\"!ERC1155RECEIVER\");\n            }\n        }\n    }\n\n    function _asSingletonArray(uint256 element) private pure returns (uint256[] memory) {\n        uint256[] memory array = new uint256[](1);\n        array[0] = element;\n\n        return array;\n    }\n}\n",
  "sourcePath": "@thirdweb-dev/contracts/eip/ERC1155.sol",
  "compiler": {
    "name": "solc",
    "version": "0.8.18+commit.87f61d96.Emscripten.clang"
  },
  "schemaVersion": "3.4.11",
  "updatedAt": "2023-02-13T12:05:00.499Z",
  "devdoc": {
    "events": {
      "ApprovalForAll(address,address,bool)": {
        "details": "MUST emit when approval for a second party/operator address to manage all tokens for an owner address is enabled or disabled (absense of an event assumes disabled)."
      },
      "TransferBatch(address,address,address,uint256[],uint256[])": {
        "details": "Either `TransferSingle` or `TransferBatch` MUST emit when tokens are transferred, including zero value transfers as well as minting or burning (see \"Safe Transfer Rules\" section of the standard). The `_operator` argument MUST be msg.sender. The `_from` argument MUST be the address of the holder whose balance is decreased. The `_to` argument MUST be the address of the recipient whose balance is increased. The `_ids` argument MUST be the list of tokens being transferred. The `_values` argument MUST be the list of number of tokens (matching the list and order of tokens specified in _ids) the holder balance is decreased by and match what the recipient balance is increased by. When minting/creating tokens, the `_from` argument MUST be set to `0x0` (i.e. zero address). When burning/destroying tokens, the `_to` argument MUST be set to `0x0` (i.e. zero address)."
      },
      "TransferSingle(address,address,address,uint256,uint256)": {
        "details": "Either `TransferSingle` or `TransferBatch` MUST emit when tokens are transferred, including zero value transfers as well as minting or burning (see \"Safe Transfer Rules\" section of the standard). The `_operator` argument MUST be msg.sender. The `_from` argument MUST be the address of the holder whose balance is decreased. The `_to` argument MUST be the address of the recipient whose balance is increased. The `_id` argument MUST be the token type being transferred. The `_value` argument MUST be the number of tokens the holder balance is decreased by and match what the recipient balance is increased by. When minting/creating tokens, the `_from` argument MUST be set to `0x0` (i.e. zero address). When burning/destroying tokens, the `_to` argument MUST be set to `0x0` (i.e. zero address)."
      },
      "URI(string,uint256)": {
        "details": "MUST emit when the URI is updated for a token ID. URIs are defined in RFC 3986. The URI MUST point a JSON file that conforms to the \"ERC-1155 Metadata URI JSON Schema\"."
      }
    },
    "kind": "dev",
    "methods": {},
    "stateVariables": {
      "balanceOf": {
        "params": {
          "_id": "ID of the Token",
          "_owner": "The address of the token holder"
        },
        "return": "The _owner's balance of the Token type requested",
        "returns": {
          "_0": "The _owner's balance of the Token type requested"
        }
      },
      "isApprovedForAll": {
        "params": {
          "_operator": "Address of authorized operator",
          "_owner": "The owner of the Tokens"
        },
        "return": "True if the operator is approved, false if not",
        "returns": {
          "_0": "True if the operator is approved, false if not"
        }
      }
    },
    "version": 1
  },
  "userdoc": {
    "kind": "user",
    "methods": {
      "balanceOf(address,uint256)": {
        "notice": "Get the balance of an account's Tokens."
      },
      "isApprovedForAll(address,address)": {
        "notice": "Queries the approval status of an operator for a given owner."
      }
    },
    "version": 1
  }
}