{
  "contractName": "ERC20Base",
  "abi": [
    {
      "inputs": [
        {
          "internalType": "string",
          "name": "_name",
          "type": "string"
        },
        {
          "internalType": "string",
          "name": "_symbol",
          "type": "string"
        }
      ],
      "stateMutability": "nonpayable",
      "type": "constructor"
    },
    {
      "anonymous": false,
      "inputs": [
        {
          "indexed": true,
          "internalType": "address",
          "name": "owner",
          "type": "address"
        },
        {
          "indexed": true,
          "internalType": "address",
          "name": "spender",
          "type": "address"
        },
        {
          "indexed": false,
          "internalType": "uint256",
          "name": "value",
          "type": "uint256"
        }
      ],
      "name": "Approval",
      "type": "event"
    },
    {
      "anonymous": false,
      "inputs": [
        {
          "indexed": false,
          "internalType": "string",
          "name": "prevURI",
          "type": "string"
        },
        {
          "indexed": false,
          "internalType": "string",
          "name": "newURI",
          "type": "string"
        }
      ],
      "name": "ContractURIUpdated",
      "type": "event"
    },
    {
      "anonymous": false,
      "inputs": [
        {
          "indexed": true,
          "internalType": "address",
          "name": "prevOwner",
          "type": "address"
        },
        {
          "indexed": true,
          "internalType": "address",
          "name": "newOwner",
          "type": "address"
        }
      ],
      "name": "OwnerUpdated",
      "type": "event"
    },
    {
      "anonymous": false,
      "inputs": [
        {
          "indexed": true,
          "internalType": "address",
          "name": "from",
          "type": "address"
        },
        {
          "indexed": true,
          "internalType": "address",
          "name": "to",
          "type": "address"
        },
        {
          "indexed": false,
          "internalType": "uint256",
          "name": "value",
          "type": "uint256"
        }
      ],
      "name": "Transfer",
      "type": "event"
    },
    {
      "inputs": [],
      "name": "DOMAIN_SEPARATOR",
      "outputs": [
        {
          "internalType": "bytes32",
          "name": "",
          "type": "bytes32"
        }
      ],
      "stateMutability": "view",
      "type": "function"
    },
    {
      "inputs": [
        {
          "internalType": "address",
          "name": "owner",
          "type": "address"
        },
        {
          "internalType": "address",
          "name": "spender",
          "type": "address"
        }
      ],
      "name": "allowance",
      "outputs": [
        {
          "internalType": "uint256",
          "name": "",
          "type": "uint256"
        }
      ],
      "stateMutability": "view",
      "type": "function"
    },
    {
      "inputs": [
        {
          "internalType": "address",
          "name": "spender",
          "type": "address"
        },
        {
          "internalType": "uint256",
          "name": "amount",
          "type": "uint256"
        }
      ],
      "name": "approve",
      "outputs": [
        {
          "internalType": "bool",
          "name": "",
          "type": "bool"
        }
      ],
      "stateMutability": "nonpayable",
      "type": "function"
    },
    {
      "inputs": [
        {
          "internalType": "address",
          "name": "account",
          "type": "address"
        }
      ],
      "name": "balanceOf",
      "outputs": [
        {
          "internalType": "uint256",
          "name": "",
          "type": "uint256"
        }
      ],
      "stateMutability": "view",
      "type": "function"
    },
    {
      "inputs": [],
      "name": "contractURI",
      "outputs": [
        {
          "internalType": "string",
          "name": "",
          "type": "string"
        }
      ],
      "stateMutability": "view",
      "type": "function"
    },
    {
      "inputs": [],
      "name": "decimals",
      "outputs": [
        {
          "internalType": "uint8",
          "name": "",
          "type": "uint8"
        }
      ],
      "stateMutability": "view",
      "type": "function"
    },
    {
      "inputs": [
        {
          "internalType": "address",
          "name": "spender",
          "type": "address"
        },
        {
          "internalType": "uint256",
          "name": "subtractedValue",
          "type": "uint256"
        }
      ],
      "name": "decreaseAllowance",
      "outputs": [
        {
          "internalType": "bool",
          "name": "",
          "type": "bool"
        }
      ],
      "stateMutability": "nonpayable",
      "type": "function"
    },
    {
      "inputs": [
        {
          "internalType": "address",
          "name": "spender",
          "type": "address"
        },
        {
          "internalType": "uint256",
          "name": "addedValue",
          "type": "uint256"
        }
      ],
      "name": "increaseAllowance",
      "outputs": [
        {
          "internalType": "bool",
          "name": "",
          "type": "bool"
        }
      ],
      "stateMutability": "nonpayable",
      "type": "function"
    },
    {
      "inputs": [
        {
          "internalType": "bytes[]",
          "name": "data",
          "type": "bytes[]"
        }
      ],
      "name": "multicall",
      "outputs": [
        {
          "internalType": "bytes[]",
          "name": "results",
          "type": "bytes[]"
        }
      ],
      "stateMutability": "nonpayable",
      "type": "function"
    },
    {
      "inputs": [],
      "name": "name",
      "outputs": [
        {
          "internalType": "string",
          "name": "",
          "type": "string"
        }
      ],
      "stateMutability": "view",
      "type": "function"
    },
    {
      "inputs": [
        {
          "internalType": "address",
          "name": "owner",
          "type": "address"
        }
      ],
      "name": "nonces",
      "outputs": [
        {
          "internalType": "uint256",
          "name": "",
          "type": "uint256"
        }
      ],
      "stateMutability": "view",
      "type": "function"
    },
    {
      "inputs": [],
      "name": "owner",
      "outputs": [
        {
          "internalType": "address",
          "name": "",
          "type": "address"
        }
      ],
      "stateMutability": "view",
      "type": "function"
    },
    {
      "inputs": [
        {
          "internalType": "address",
          "name": "owner",
          "type": "address"
        },
        {
          "internalType": "address",
          "name": "spender",
          "type": "address"
        },
        {
          "internalType": "uint256",
          "name": "value",
          "type": "uint256"
        },
        {
          "internalType": "uint256",
          "name": "deadline",
          "type": "uint256"
        },
        {
          "internalType": "uint8",
          "name": "v",
          "type": "uint8"
        },
        {
          "internalType": "bytes32",
          "name": "r",
          "type": "bytes32"
        },
        {
          "internalType": "bytes32",
          "name": "s",
          "type": "bytes32"
        }
      ],
      "name": "permit",
      "outputs": [],
      "stateMutability": "nonpayable",
      "type": "function"
    },
    {
      "inputs": [
        {
          "internalType": "string",
          "name": "_uri",
          "type": "string"
        }
      ],
      "name": "setContractURI",
      "outputs": [],
      "stateMutability": "nonpayable",
      "type": "function"
    },
    {
      "inputs": [
        {
          "internalType": "address",
          "name": "_newOwner",
          "type": "address"
        }
      ],
      "name": "setOwner",
      "outputs": [],
      "stateMutability": "nonpayable",
      "type": "function"
    },
    {
      "inputs": [],
      "name": "symbol",
      "outputs": [
        {
          "internalType": "string",
          "name": "",
          "type": "string"
        }
      ],
      "stateMutability": "view",
      "type": "function"
    },
    {
      "inputs": [],
      "name": "totalSupply",
      "outputs": [
        {
          "internalType": "uint256",
          "name": "",
          "type": "uint256"
        }
      ],
      "stateMutability": "view",
      "type": "function"
    },
    {
      "inputs": [
        {
          "internalType": "address",
          "name": "to",
          "type": "address"
        },
        {
          "internalType": "uint256",
          "name": "amount",
          "type": "uint256"
        }
      ],
      "name": "transfer",
      "outputs": [
        {
          "internalType": "bool",
          "name": "",
          "type": "bool"
        }
      ],
      "stateMutability": "nonpayable",
      "type": "function"
    },
    {
      "inputs": [
        {
          "internalType": "address",
          "name": "from",
          "type": "address"
        },
        {
          "internalType": "address",
          "name": "to",
          "type": "address"
        },
        {
          "internalType": "uint256",
          "name": "amount",
          "type": "uint256"
        }
      ],
      "name": "transferFrom",
      "outputs": [
        {
          "internalType": "bool",
          "name": "",
          "type": "bool"
        }
      ],
      "stateMutability": "nonpayable",
      "type": "function"
    },
    {
      "inputs": [
        {
          "internalType": "address",
          "name": "_to",
          "type": "address"
        },
        {
          "internalType": "uint256",
          "name": "_amount",
          "type": "uint256"
        }
      ],
      "name": "mintTo",
      "outputs": [],
      "stateMutability": "nonpayable",
      "type": "function"
    },
    {
      "inputs": [
        {
          "internalType": "uint256",
          "name": "_amount",
          "type": "uint256"
        }
      ],
      "name": "burn",
      "outputs": [],
      "stateMutability": "nonpayable",
      "type": "function"
    }
  ],
  "bytecode": "0x6101006040527f6e71edae12b1b97f4d1f60370fef10105fa2faae0126114a169c64845d6126c960e0908152503480156200003957600080fd5b50604051620040e9380380620040e983398181016040528101906200005f919062000478565b81818181816005908162000074919062000748565b50806006908162000086919062000748565b5050504660a081815250503073ffffffffffffffffffffffffffffffffffffffff1660c08173ffffffffffffffffffffffffffffffffffffffff1681525050620000d5620000f760201b60201c565b608081815250505050620000ef336200018560201b60201c565b5050620008fd565b60007f8b73c3c69bb8fe3d512ecc4cf759cc79239f7b179b0ffacaa9a75d522b39400f6200012a6200024b60201b60201c565b805190602001207fc89efdaa54c0f20c7adf612882df0950f5a951637e0307cdcb4c672f298b8bc646306040516020016200016a959493929190620008a0565b60405160208183030381529060405280519060200120905090565b6000600160009054906101000a900473ffffffffffffffffffffffffffffffffffffffff16905081600160006101000a81548173ffffffffffffffffffffffffffffffffffffffff021916908373ffffffffffffffffffffffffffffffffffffffff1602179055508173ffffffffffffffffffffffffffffffffffffffff168173ffffffffffffffffffffffffffffffffffffffff167f8292fce18fa69edf4db7b94ea2e58241df0ae57f97e0a6c9b29067028bf92d7660405160405180910390a35050565b6060600580546200025c9062000537565b80601f01602080910402602001604051908101604052809291908181526020018280546200028a9062000537565b8015620002db5780601f10620002af57610100808354040283529160200191620002db565b820191906000526020600020905b815481529060010190602001808311620002bd57829003601f168201915b5050505050905090565b6000604051905090565b600080fd5b600080fd5b600080fd5b600080fd5b6000601f19601f8301169050919050565b7f4e487b7100000000000000000000000000000000000000000000000000000000600052604160045260246000fd5b6200034e8262000303565b810181811067ffffffffffffffff8211171562000370576200036f62000314565b5b80604052505050565b600062000385620002e5565b905062000393828262000343565b919050565b600067ffffffffffffffff821115620003b657620003b562000314565b5b620003c18262000303565b9050602081019050919050565b60005b83811015620003ee578082015181840152602081019050620003d1565b60008484015250505050565b6000620004116200040b8462000398565b62000379565b90508281526020810184848401111562000430576200042f620002fe565b5b6200043d848285620003ce565b509392505050565b600082601f8301126200045d576200045c620002f9565b5b81516200046f848260208601620003fa565b91505092915050565b60008060408385031215620004925762000491620002ef565b5b600083015167ffffffffffffffff811115620004b357620004b2620002f4565b5b620004c18582860162000445565b925050602083015167ffffffffffffffff811115620004e557620004e4620002f4565b5b620004f38582860162000445565b9150509250929050565b600081519050919050565b7f4e487b7100000000000000000000000000000000000000000000000000000000600052602260045260246000fd5b600060028204905060018216806200055057607f821691505b60208210810362000566576200056562000508565b5b50919050565b60008190508160005260206000209050919050565b60006020601f8301049050919050565b600082821b905092915050565b600060088302620005d07fffffffffffffffffffffffffffffffffffffffffffffffffffffffffffffffff8262000591565b620005dc868362000591565b95508019841693508086168417925050509392505050565b6000819050919050565b6000819050919050565b600062000629620006236200061d84620005f4565b620005fe565b620005f4565b9050919050565b6000819050919050565b620006458362000608565b6200065d620006548262000630565b8484546200059e565b825550505050565b600090565b6200067462000665565b620006818184846200063a565b505050565b5b81811015620006a9576200069d6000826200066a565b60018101905062000687565b5050565b601f821115620006f857620006c2816200056c565b620006cd8462000581565b81016020851015620006dd578190505b620006f5620006ec8562000581565b83018262000686565b50505b505050565b600082821c905092915050565b60006200071d60001984600802620006fd565b1980831691505092915050565b60006200073883836200070a565b9150826002028217905092915050565b6200075382620004fd565b67ffffffffffffffff8111156200076f576200076e62000314565b5b6200077b825462000537565b62000788828285620006ad565b600060209050601f831160018114620007c05760008415620007ab578287015190505b620007b785826200072a565b86555062000827565b601f198416620007d0866200056c565b60005b82811015620007fa57848901518255600182019150602085019450602081019050620007d3565b868310156200081a578489015162000816601f8916826200070a565b8355505b6001600288020188555050505b505050505050565b6000819050919050565b62000844816200082f565b82525050565b6200085581620005f4565b82525050565b600073ffffffffffffffffffffffffffffffffffffffff82169050919050565b600062000888826200085b565b9050919050565b6200089a816200087b565b82525050565b600060a082019050620008b7600083018862000839565b620008c6602083018762000839565b620008d5604083018662000839565b620008e460608301856200084a565b620008f360808301846200088f565b9695505050505050565b60805160a05160c05160e0516137b2620009376000396000610bed01526000610598015260006105ee0152600061061701526137b26000f3fe608060405234801561001057600080fd5b50600436106101375760003560e01c806370a08231116100b8578063a457c2d71161007c578063a457c2d714610350578063a9059cbb14610380578063ac9650d8146103b0578063d505accf146103e0578063dd62ed3e146103fc578063e8a3d4851461042c57610137565b806370a08231146102985780637ecebe00146102c85780638da5cb5b146102f8578063938e3d7b1461031657806395d89b411461033257610137565b8063313ce567116100ff578063313ce567146101f45780633644e51514610212578063395093511461023057806342966c6814610260578063449a52f81461027c57610137565b806306fdde031461013c578063095ea7b31461015a57806313af40351461018a57806318160ddd146101a657806323b872dd146101c4575b600080fd5b61014461044a565b6040516101519190611ece565b60405180910390f35b610174600480360381019061016f9190611f98565b6104dc565b6040516101819190611ff3565b60405180910390f35b6101a4600480360381019061019f919061200e565b6104ff565b005b6101ae610552565b6040516101bb919061204a565b60405180910390f35b6101de60048036038101906101d99190612065565b61055c565b6040516101eb9190611ff3565b60405180910390f35b6101fc61058b565b60405161020991906120d4565b60405180910390f35b61021a610594565b6040516102279190612108565b60405180910390f35b61024a60048036038101906102459190611f98565b61064b565b6040516102579190611ff3565b60405180910390f35b61027a60048036038101906102759190612123565b6106f5565b005b61029660048036038101906102919190611f98565b61074d565b005b6102b260048036038101906102ad919061200e565b6107e5565b6040516102bf919061204a565b60405180910390f35b6102e260048036038101906102dd919061200e565b61082e565b6040516102ef919061204a565b60405180910390f35b61030061087e565b60405161030d919061215f565b60405180910390f35b610330600480360381019061032b91906122af565b6108a8565b005b61033a6108fb565b6040516103479190611ece565b60405180910390f35b61036a60048036038101906103659190611f98565b61098d565b6040516103779190611ff3565b60405180910390f35b61039a60048036038101906103959190611f98565b610a77565b6040516103a79190611ff3565b60405180910390f35b6103ca60048036038101906103c59190612358565b610a9a565b6040516103d791906124bc565b60405180910390f35b6103fa60048036038101906103f59190612536565b610ba6565b005b610416600480360381019061041191906125d8565b610cf0565b604051610423919061204a565b60405180910390f35b610434610d77565b6040516104419190611ece565b60405180910390f35b60606005805461045990612647565b80601f016020809104026020016040519081016040528092919081815260200182805461048590612647565b80156104d25780601f106104a7576101008083540402835291602001916104d2565b820191906000526020600020905b8154815290600101906020018083116104b557829003601f168201915b5050505050905090565b6000806104e7610e05565b90506104f4818585610e0d565b600191505092915050565b610507610fd6565b610546576040517f08c379a000000000000000000000000000000000000000000000000000000000815260040161053d906126c4565b60405180910390fd5b61054f81611013565b50565b6000600454905090565b600080610567610e05565b90506105748582856110d9565b61057f858585611165565b60019150509392505050565b60006012905090565b60007f000000000000000000000000000000000000000000000000000000000000000073ffffffffffffffffffffffffffffffffffffffff163073ffffffffffffffffffffffffffffffffffffffff1614801561061057507f000000000000000000000000000000000000000000000000000000000000000046145b1561063d577f00000000000000000000000000000000000000000000000000000000000000009050610648565b6106456113e7565b90505b90565b600080610656610e05565b90506106ea818585600360008673ffffffffffffffffffffffffffffffffffffffff1673ffffffffffffffffffffffffffffffffffffffff16815260200190815260200160002060008973ffffffffffffffffffffffffffffffffffffffff1673ffffffffffffffffffffffffffffffffffffffff168152602001908152602001600020546106e59190612713565b610e0d565b600191505092915050565b806106ff336107e5565b1015610740576040517f08c379a000000000000000000000000000000000000000000000000000000000815260040161073790612793565b60405180910390fd5b61074a338261146b565b50565b610755611643565b610794576040517f08c379a000000000000000000000000000000000000000000000000000000000815260040161078b906127ff565b60405180910390fd5b600081036107d7576040517f08c379a00000000000000000000000000000000000000000000000000000000081526004016107ce9061286b565b60405180910390fd5b6107e18282611680565b5050565b6000600260008373ffffffffffffffffffffffffffffffffffffffff1673ffffffffffffffffffffffffffffffffffffffff168152602001908152602001600020549050919050565b6000610877600760008473ffffffffffffffffffffffffffffffffffffffff1673ffffffffffffffffffffffffffffffffffffffff1681526020019081526020016000206117e0565b9050919050565b6000600160009054906101000a900473ffffffffffffffffffffffffffffffffffffffff16905090565b6108b06117ee565b6108ef576040517f08c379a00000000000000000000000000000000000000000000000000000000081526004016108e6906126c4565b60405180910390fd5b6108f88161182b565b50565b60606006805461090a90612647565b80601f016020809104026020016040519081016040528092919081815260200182805461093690612647565b80156109835780601f1061095857610100808354040283529160200191610983565b820191906000526020600020905b81548152906001019060200180831161096657829003601f168201915b5050505050905090565b600080610998610e05565b90506000600360008373ffffffffffffffffffffffffffffffffffffffff1673ffffffffffffffffffffffffffffffffffffffff16815260200190815260200160002060008673ffffffffffffffffffffffffffffffffffffffff1673ffffffffffffffffffffffffffffffffffffffff16815260200190815260200160002054905083811015610a5e576040517f08c379a0000000000000000000000000000000000000000000000000000000008152600401610a55906128fd565b60405180910390fd5b610a6b8286868403610e0d565b60019250505092915050565b600080610a82610e05565b9050610a8f818585611165565b600191505092915050565b60608282905067ffffffffffffffff811115610ab957610ab8612184565b5b604051908082528060200260200182016040528015610aec57816020015b6060815260200190600190039081610ad75790505b50905060005b83839050811015610b9f57610b6e30858584818110610b1457610b1361291d565b5b9050602002810190610b26919061295b565b8080601f016020809104026020016040519081016040528093929190818152602001838380828437600081840152601f19601f82011690508083019250505050505050611906565b828281518110610b8157610b8061291d565b5b60200260200101819052508080610b97906129be565b915050610af2565b5092915050565b83421115610be9576040517f08c379a0000000000000000000000000000000000000000000000000000000008152600401610be090612a52565b60405180910390fd5b60007f0000000000000000000000000000000000000000000000000000000000000000888888610c188c611933565b89604051602001610c2e96959493929190612a72565b6040516020818303038152906040528051906020012090506000610c59610c53610594565b83611991565b90506000610c69828787876119c4565b90508973ffffffffffffffffffffffffffffffffffffffff168173ffffffffffffffffffffffffffffffffffffffff1614610cd9576040517f08c379a0000000000000000000000000000000000000000000000000000000008152600401610cd090612b1f565b60405180910390fd5b610ce48a8a8a610e0d565b50505050505050505050565b6000600360008473ffffffffffffffffffffffffffffffffffffffff1673ffffffffffffffffffffffffffffffffffffffff16815260200190815260200160002060008373ffffffffffffffffffffffffffffffffffffffff1673ffffffffffffffffffffffffffffffffffffffff16815260200190815260200160002054905092915050565b60008054610d8490612647565b80601f0160208091040260200160405190810160405280929190818152602001828054610db090612647565b8015610dfd5780601f10610dd257610100808354040283529160200191610dfd565b820191906000526020600020905b815481529060010190602001808311610de057829003601f168201915b505050505081565b600033905090565b600073ffffffffffffffffffffffffffffffffffffffff168373ffffffffffffffffffffffffffffffffffffffff1603610e7c576040517f08c379a0000000000000000000000000000000000000000000000000000000008152600401610e7390612bb1565b60405180910390fd5b600073ffffffffffffffffffffffffffffffffffffffff168273ffffffffffffffffffffffffffffffffffffffff1603610eeb576040517f08c379a0000000000000000000000000000000000000000000000000000000008152600401610ee290612c43565b60405180910390fd5b80600360008573ffffffffffffffffffffffffffffffffffffffff1673ffffffffffffffffffffffffffffffffffffffff16815260200190815260200160002060008473ffffffffffffffffffffffffffffffffffffffff1673ffffffffffffffffffffffffffffffffffffffff168152602001908152602001600020819055508173ffffffffffffffffffffffffffffffffffffffff168373ffffffffffffffffffffffffffffffffffffffff167f8c5be1e5ebec7d5bd14f71427d1e84f3dd0314c0f7b2291e5b200ac8c7c3b92583604051610fc9919061204a565b60405180910390a3505050565b6000610fe061087e565b73ffffffffffffffffffffffffffffffffffffffff163373ffffffffffffffffffffffffffffffffffffffff1614905090565b6000600160009054906101000a900473ffffffffffffffffffffffffffffffffffffffff16905081600160006101000a81548173ffffffffffffffffffffffffffffffffffffffff021916908373ffffffffffffffffffffffffffffffffffffffff1602179055508173ffffffffffffffffffffffffffffffffffffffff168173ffffffffffffffffffffffffffffffffffffffff167f8292fce18fa69edf4db7b94ea2e58241df0ae57f97e0a6c9b29067028bf92d7660405160405180910390a35050565b60006110e58484610cf0565b90507fffffffffffffffffffffffffffffffffffffffffffffffffffffffffffffffff811461115f5781811015611151576040517f08c379a000000000000000000000000000000000000000000000000000000000815260040161114890612caf565b60405180910390fd5b61115e8484848403610e0d565b5b50505050565b600073ffffffffffffffffffffffffffffffffffffffff168373ffffffffffffffffffffffffffffffffffffffff16036111d4576040517f08c379a00000000000000000000000000000000000000000000000000000000081526004016111cb90612d41565b60405180910390fd5b600073ffffffffffffffffffffffffffffffffffffffff168273ffffffffffffffffffffffffffffffffffffffff1603611243576040517f08c379a000000000000000000000000000000000000000000000000000000000815260040161123a90612dd3565b60405180910390fd5b61124e8383836119ef565b6000600260008573ffffffffffffffffffffffffffffffffffffffff1673ffffffffffffffffffffffffffffffffffffffff168152602001908152602001600020549050818110156112d5576040517f08c379a00000000000000000000000000000000000000000000000000000000081526004016112cc90612e65565b60405180910390fd5b818103600260008673ffffffffffffffffffffffffffffffffffffffff1673ffffffffffffffffffffffffffffffffffffffff1681526020019081526020016000208190555081600260008573ffffffffffffffffffffffffffffffffffffffff1673ffffffffffffffffffffffffffffffffffffffff168152602001908152602001600020600082825461136a9190612713565b925050819055508273ffffffffffffffffffffffffffffffffffffffff168473ffffffffffffffffffffffffffffffffffffffff167fddf252ad1be2c89b69c2b068fc378daa952ba7f163c4a11628f55a4df523b3ef846040516113ce919061204a565b60405180910390a36113e18484846119f4565b50505050565b60007f8b73c3c69bb8fe3d512ecc4cf759cc79239f7b179b0ffacaa9a75d522b39400f61141261044a565b805190602001207fc89efdaa54c0f20c7adf612882df0950f5a951637e0307cdcb4c672f298b8bc64630604051602001611450959493929190612e85565b60405160208183030381529060405280519060200120905090565b600073ffffffffffffffffffffffffffffffffffffffff168273ffffffffffffffffffffffffffffffffffffffff16036114da576040517f08c379a00000000000000000000000000000000000000000000000000000000081526004016114d190612f4a565b60405180910390fd5b6114e6826000836119ef565b6000600260008473ffffffffffffffffffffffffffffffffffffffff1673ffffffffffffffffffffffffffffffffffffffff1681526020019081526020016000205490508181101561156d576040517f08c379a000000000000000000000000000000000000000000000000000000000815260040161156490612fdc565b60405180910390fd5b818103600260008573ffffffffffffffffffffffffffffffffffffffff1673ffffffffffffffffffffffffffffffffffffffff1681526020019081526020016000208190555081600460008282546115c59190612ffc565b92505081905550600073ffffffffffffffffffffffffffffffffffffffff168373ffffffffffffffffffffffffffffffffffffffff167fddf252ad1be2c89b69c2b068fc378daa952ba7f163c4a11628f55a4df523b3ef8460405161162a919061204a565b60405180910390a361163e836000846119f4565b505050565b600061164d61087e565b73ffffffffffffffffffffffffffffffffffffffff163373ffffffffffffffffffffffffffffffffffffffff1614905090565b600073ffffffffffffffffffffffffffffffffffffffff168273ffffffffffffffffffffffffffffffffffffffff16036116ef576040517f08c379a00000000000000000000000000000000000000000000000000000000081526004016116e69061307c565b60405180910390fd5b6116fb600083836119ef565b806004600082825461170d9190612713565b9250508190555080600260008473ffffffffffffffffffffffffffffffffffffffff1673ffffffffffffffffffffffffffffffffffffffff16815260200190815260200160002060008282546117639190612713565b925050819055508173ffffffffffffffffffffffffffffffffffffffff16600073ffffffffffffffffffffffffffffffffffffffff167fddf252ad1be2c89b69c2b068fc378daa952ba7f163c4a11628f55a4df523b3ef836040516117c8919061204a565b60405180910390a36117dc600083836119f4565b5050565b600081600001549050919050565b60006117f861087e565b73ffffffffffffffffffffffffffffffffffffffff163373ffffffffffffffffffffffffffffffffffffffff1614905090565b600080805461183990612647565b80601f016020809104026020016040519081016040528092919081815260200182805461186590612647565b80156118b25780601f10611887576101008083540402835291602001916118b2565b820191906000526020600020905b81548152906001019060200180831161189557829003601f168201915b5050505050905081600090816118c89190613248565b507fc9c7c3fe08b88b4df9d4d47ef47d2c43d55c025a0ba88ca442580ed9e7348a1681836040516118fa92919061331a565b60405180910390a15050565b606061192b8383604051806060016040528060278152602001613756602791396119f9565b905092915050565b600080600760008473ffffffffffffffffffffffffffffffffffffffff1673ffffffffffffffffffffffffffffffffffffffff1681526020019081526020016000209050611980816117e0565b915061198b81611ac6565b50919050565b600082826040516020016119a69291906133c9565b60405160208183030381529060405280519060200120905092915050565b60008060006119d587878787611adc565b915091506119e281611be8565b8192505050949350505050565b505050565b505050565b6060611a0484611db4565b611a43576040517f08c379a0000000000000000000000000000000000000000000000000000000008152600401611a3a90613472565b60405180910390fd5b6000808573ffffffffffffffffffffffffffffffffffffffff1685604051611a6b91906134ce565b600060405180830381855af49150503d8060008114611aa6576040519150601f19603f3d011682016040523d82523d6000602084013e611aab565b606091505b5091509150611abb828286611dd7565b925050509392505050565b6001816000016000828254019250508190555050565b6000807f7fffffffffffffffffffffffffffffff5d576e7357a4501ddfe92f46681b20a08360001c1115611b17576000600391509150611bdf565b601b8560ff1614158015611b2f5750601c8560ff1614155b15611b41576000600491509150611bdf565b600060018787878760405160008152602001604052604051611b6694939291906134e5565b6020604051602081039080840390855afa158015611b88573d6000803e3d6000fd5b505050602060405103519050600073ffffffffffffffffffffffffffffffffffffffff168173ffffffffffffffffffffffffffffffffffffffff1603611bd657600060019250925050611bdf565b80600092509250505b94509492505050565b60006004811115611bfc57611bfb61352a565b5b816004811115611c0f57611c0e61352a565b5b0315611db15760016004811115611c2957611c2861352a565b5b816004811115611c3c57611c3b61352a565b5b03611c7c576040517f08c379a0000000000000000000000000000000000000000000000000000000008152600401611c73906135a5565b60405180910390fd5b60026004811115611c9057611c8f61352a565b5b816004811115611ca357611ca261352a565b5b03611ce3576040517f08c379a0000000000000000000000000000000000000000000000000000000008152600401611cda90613611565b60405180910390fd5b60036004811115611cf757611cf661352a565b5b816004811115611d0a57611d0961352a565b5b03611d4a576040517f08c379a0000000000000000000000000000000000000000000000000000000008152600401611d41906136a3565b60405180910390fd5b600480811115611d5d57611d5c61352a565b5b816004811115611d7057611d6f61352a565b5b03611db0576040517f08c379a0000000000000000000000000000000000000000000000000000000008152600401611da790613735565b60405180910390fd5b5b50565b6000808273ffffffffffffffffffffffffffffffffffffffff163b119050919050565b60608315611de757829050611e37565b600083511115611dfa5782518084602001fd5b816040517f08c379a0000000000000000000000000000000000000000000000000000000008152600401611e2e9190611ece565b60405180910390fd5b9392505050565b600081519050919050565b600082825260208201905092915050565b60005b83811015611e78578082015181840152602081019050611e5d565b60008484015250505050565b6000601f19601f8301169050919050565b6000611ea082611e3e565b611eaa8185611e49565b9350611eba818560208601611e5a565b611ec381611e84565b840191505092915050565b60006020820190508181036000830152611ee88184611e95565b905092915050565b6000604051905090565b600080fd5b600080fd5b600073ffffffffffffffffffffffffffffffffffffffff82169050919050565b6000611f2f82611f04565b9050919050565b611f3f81611f24565b8114611f4a57600080fd5b50565b600081359050611f5c81611f36565b92915050565b6000819050919050565b611f7581611f62565b8114611f8057600080fd5b50565b600081359050611f9281611f6c565b92915050565b60008060408385031215611faf57611fae611efa565b5b6000611fbd85828601611f4d565b9250506020611fce85828601611f83565b9150509250929050565b60008115159050919050565b611fed81611fd8565b82525050565b60006020820190506120086000830184611fe4565b92915050565b60006020828403121561202457612023611efa565b5b600061203284828501611f4d565b91505092915050565b61204481611f62565b82525050565b600060208201905061205f600083018461203b565b92915050565b60008060006060848603121561207e5761207d611efa565b5b600061208c86828701611f4d565b935050602061209d86828701611f4d565b92505060406120ae86828701611f83565b9150509250925092565b600060ff82169050919050565b6120ce816120b8565b82525050565b60006020820190506120e960008301846120c5565b92915050565b6000819050919050565b612102816120ef565b82525050565b600060208201905061211d60008301846120f9565b92915050565b60006020828403121561213957612138611efa565b5b600061214784828501611f83565b91505092915050565b61215981611f24565b82525050565b60006020820190506121746000830184612150565b92915050565b600080fd5b600080fd5b7f4e487b7100000000000000000000000000000000000000000000000000000000600052604160045260246000fd5b6121bc82611e84565b810181811067ffffffffffffffff821117156121db576121da612184565b5b80604052505050565b60006121ee611ef0565b90506121fa82826121b3565b919050565b600067ffffffffffffffff82111561221a57612219612184565b5b61222382611e84565b9050602081019050919050565b82818337600083830152505050565b600061225261224d846121ff565b6121e4565b90508281526020810184848401111561226e5761226d61217f565b5b612279848285612230565b509392505050565b600082601f8301126122965761229561217a565b5b81356122a684826020860161223f565b91505092915050565b6000602082840312156122c5576122c4611efa565b5b600082013567ffffffffffffffff8111156122e3576122e2611eff565b5b6122ef84828501612281565b91505092915050565b600080fd5b600080fd5b60008083601f8401126123185761231761217a565b5b8235905067ffffffffffffffff811115612335576123346122f8565b5b602083019150836020820283011115612351576123506122fd565b5b9250929050565b6000806020838503121561236f5761236e611efa565b5b600083013567ffffffffffffffff81111561238d5761238c611eff565b5b61239985828601612302565b92509250509250929050565b600081519050919050565b600082825260208201905092915050565b6000819050602082019050919050565b600081519050919050565b600082825260208201905092915050565b60006123f8826123d1565b61240281856123dc565b9350612412818560208601611e5a565b61241b81611e84565b840191505092915050565b600061243283836123ed565b905092915050565b6000602082019050919050565b6000612452826123a5565b61245c81856123b0565b93508360208202850161246e856123c1565b8060005b858110156124aa578484038952815161248b8582612426565b94506124968361243a565b925060208a01995050600181019050612472565b50829750879550505050505092915050565b600060208201905081810360008301526124d68184612447565b905092915050565b6124e7816120b8565b81146124f257600080fd5b50565b600081359050612504816124de565b92915050565b612513816120ef565b811461251e57600080fd5b50565b6000813590506125308161250a565b92915050565b600080600080600080600060e0888a03121561255557612554611efa565b5b60006125638a828b01611f4d565b97505060206125748a828b01611f4d565b96505060406125858a828b01611f83565b95505060606125968a828b01611f83565b94505060806125a78a828b016124f5565b93505060a06125b88a828b01612521565b92505060c06125c98a828b01612521565b91505092959891949750929550565b600080604083850312156125ef576125ee611efa565b5b60006125fd85828601611f4d565b925050602061260e85828601611f4d565b9150509250929050565b7f4e487b7100000000000000000000000000000000000000000000000000000000600052602260045260246000fd5b6000600282049050600182168061265f57607f821691505b60208210810361267257612671612618565b5b50919050565b7f4e6f7420617574686f72697a6564000000000000000000000000000000000000600082015250565b60006126ae600e83611e49565b91506126b982612678565b602082019050919050565b600060208201905081810360008301526126dd816126a1565b9050919050565b7f4e487b7100000000000000000000000000000000000000000000000000000000600052601160045260246000fd5b600061271e82611f62565b915061272983611f62565b9250828201905080821115612741576127406126e4565b5b92915050565b7f6e6f7420656e6f7567682062616c616e63650000000000000000000000000000600082015250565b600061277d601283611e49565b915061278882612747565b602082019050919050565b600060208201905081810360008301526127ac81612770565b9050919050565b7f4e6f7420617574686f72697a656420746f206d696e742e000000000000000000600082015250565b60006127e9601783611e49565b91506127f4826127b3565b602082019050919050565b60006020820190508181036000830152612818816127dc565b9050919050565b7f4d696e74696e67207a65726f20746f6b656e732e000000000000000000000000600082015250565b6000612855601483611e49565b91506128608261281f565b602082019050919050565b6000602082019050818103600083015261288481612848565b9050919050565b7f45524332303a2064656372656173656420616c6c6f77616e63652062656c6f7760008201527f207a65726f000000000000000000000000000000000000000000000000000000602082015250565b60006128e7602583611e49565b91506128f28261288b565b604082019050919050565b60006020820190508181036000830152612916816128da565b9050919050565b7f4e487b7100000000000000000000000000000000000000000000000000000000600052603260045260246000fd5b600080fd5b600080fd5b600080fd5b600080833560016020038436030381126129785761297761294c565b5b80840192508235915067ffffffffffffffff82111561299a57612999612951565b5b6020830192506001820236038313156129b6576129b5612956565b5b509250929050565b60006129c982611f62565b91507fffffffffffffffffffffffffffffffffffffffffffffffffffffffffffffffff82036129fb576129fa6126e4565b5b600182019050919050565b7f45524332305065726d69743a206578706972656420646561646c696e65000000600082015250565b6000612a3c601d83611e49565b9150612a4782612a06565b602082019050919050565b60006020820190508181036000830152612a6b81612a2f565b9050919050565b600060c082019050612a8760008301896120f9565b612a946020830188612150565b612aa16040830187612150565b612aae606083018661203b565b612abb608083018561203b565b612ac860a083018461203b565b979650505050505050565b7f45524332305065726d69743a20696e76616c6964207369676e61747572650000600082015250565b6000612b09601e83611e49565b9150612b1482612ad3565b602082019050919050565b60006020820190508181036000830152612b3881612afc565b9050919050565b7f45524332303a20617070726f76652066726f6d20746865207a65726f2061646460008201527f7265737300000000000000000000000000000000000000000000000000000000602082015250565b6000612b9b602483611e49565b9150612ba682612b3f565b604082019050919050565b60006020820190508181036000830152612bca81612b8e565b9050919050565b7f45524332303a20617070726f766520746f20746865207a65726f20616464726560008201527f7373000000000000000000000000000000000000000000000000000000000000602082015250565b6000612c2d602283611e49565b9150612c3882612bd1565b604082019050919050565b60006020820190508181036000830152612c5c81612c20565b9050919050565b7f45524332303a20696e73756666696369656e7420616c6c6f77616e6365000000600082015250565b6000612c99601d83611e49565b9150612ca482612c63565b602082019050919050565b60006020820190508181036000830152612cc881612c8c565b9050919050565b7f45524332303a207472616e736665722066726f6d20746865207a65726f20616460008201527f6472657373000000000000000000000000000000000000000000000000000000602082015250565b6000612d2b602583611e49565b9150612d3682612ccf565b604082019050919050565b60006020820190508181036000830152612d5a81612d1e565b9050919050565b7f45524332303a207472616e7366657220746f20746865207a65726f206164647260008201527f6573730000000000000000000000000000000000000000000000000000000000602082015250565b6000612dbd602383611e49565b9150612dc882612d61565b604082019050919050565b60006020820190508181036000830152612dec81612db0565b9050919050565b7f45524332303a207472616e7366657220616d6f756e742065786365656473206260008201527f616c616e63650000000000000000000000000000000000000000000000000000602082015250565b6000612e4f602683611e49565b9150612e5a82612df3565b604082019050919050565b60006020820190508181036000830152612e7e81612e42565b9050919050565b600060a082019050612e9a60008301886120f9565b612ea760208301876120f9565b612eb460408301866120f9565b612ec1606083018561203b565b612ece6080830184612150565b9695505050505050565b7f45524332303a206275726e2066726f6d20746865207a65726f2061646472657360008201527f7300000000000000000000000000000000000000000000000000000000000000602082015250565b6000612f34602183611e49565b9150612f3f82612ed8565b604082019050919050565b60006020820190508181036000830152612f6381612f27565b9050919050565b7f45524332303a206275726e20616d6f756e7420657863656564732062616c616e60008201527f6365000000000000000000000000000000000000000000000000000000000000602082015250565b6000612fc6602283611e49565b9150612fd182612f6a565b604082019050919050565b60006020820190508181036000830152612ff581612fb9565b9050919050565b600061300782611f62565b915061301283611f62565b925082820390508181111561302a576130296126e4565b5b92915050565b7f45524332303a206d696e7420746f20746865207a65726f206164647265737300600082015250565b6000613066601f83611e49565b915061307182613030565b602082019050919050565b6000602082019050818103600083015261309581613059565b9050919050565b60008190508160005260206000209050919050565b60006020601f8301049050919050565b600082821b905092915050565b6000600883026130fe7fffffffffffffffffffffffffffffffffffffffffffffffffffffffffffffffff826130c1565b61310886836130c1565b95508019841693508086168417925050509392505050565b6000819050919050565b600061314561314061313b84611f62565b613120565b611f62565b9050919050565b6000819050919050565b61315f8361312a565b61317361316b8261314c565b8484546130ce565b825550505050565b600090565b61318861317b565b613193818484613156565b505050565b5b818110156131b7576131ac600082613180565b600181019050613199565b5050565b601f8211156131fc576131cd8161309c565b6131d6846130b1565b810160208510156131e5578190505b6131f96131f1856130b1565b830182613198565b50505b505050565b600082821c905092915050565b600061321f60001984600802613201565b1980831691505092915050565b6000613238838361320e565b9150826002028217905092915050565b61325182611e3e565b67ffffffffffffffff81111561326a57613269612184565b5b6132748254612647565b61327f8282856131bb565b600060209050601f8311600181146132b257600084156132a0578287015190505b6132aa858261322c565b865550613312565b601f1984166132c08661309c565b60005b828110156132e8578489015182556001820191506020850194506020810190506132c3565b868310156133055784890151613301601f89168261320e565b8355505b6001600288020188555050505b505050505050565b600060408201905081810360008301526133348185611e95565b905081810360208301526133488184611e95565b90509392505050565b600081905092915050565b7f1901000000000000000000000000000000000000000000000000000000000000600082015250565b6000613392600283613351565b915061339d8261335c565b600282019050919050565b6000819050919050565b6133c36133be826120ef565b6133a8565b82525050565b60006133d482613385565b91506133e082856133b2565b6020820191506133f082846133b2565b6020820191508190509392505050565b7f416464726573733a2064656c65676174652063616c6c20746f206e6f6e2d636f60008201527f6e74726163740000000000000000000000000000000000000000000000000000602082015250565b600061345c602683611e49565b915061346782613400565b604082019050919050565b6000602082019050818103600083015261348b8161344f565b9050919050565b600081905092915050565b60006134a8826123d1565b6134b28185613492565b93506134c2818560208601611e5a565b80840191505092915050565b60006134da828461349d565b915081905092915050565b60006080820190506134fa60008301876120f9565b61350760208301866120c5565b61351460408301856120f9565b61352160608301846120f9565b95945050505050565b7f4e487b7100000000000000000000000000000000000000000000000000000000600052602160045260246000fd5b7f45434453413a20696e76616c6964207369676e61747572650000000000000000600082015250565b600061358f601883611e49565b915061359a82613559565b602082019050919050565b600060208201905081810360008301526135be81613582565b9050919050565b7f45434453413a20696e76616c6964207369676e6174757265206c656e67746800600082015250565b60006135fb601f83611e49565b9150613606826135c5565b602082019050919050565b6000602082019050818103600083015261362a816135ee565b9050919050565b7f45434453413a20696e76616c6964207369676e6174757265202773272076616c60008201527f7565000000000000000000000000000000000000000000000000000000000000602082015250565b600061368d602283611e49565b915061369882613631565b604082019050919050565b600060208201905081810360008301526136bc81613680565b9050919050565b7f45434453413a20696e76616c6964207369676e6174757265202776272076616c60008201527f7565000000000000000000000000000000000000000000000000000000000000602082015250565b600061371f602283611e49565b915061372a826136c3565b604082019050919050565b6000602082019050818103600083015261374e81613712565b905091905056fe416464726573733a206c6f772d6c6576656c2064656c65676174652063616c6c206661696c6564a264697066735822122083b6529c6821f3871160dcdbe3e34c79eca75eff9caddcb29a27c1645c1f4a8b64736f6c63430008120033",
  "immutableReferences": {
    "4530": [
      {
        "length": 32,
        "start": 1559
      }
    ],
    "4532": [
      {
        "length": 32,
        "start": 1518
      }
    ],
    "4534": [
      {
        "length": 32,
        "start": 1432
      }
    ],
    "4539": [
      {
        "length": 32,
        "start": 3053
      }
    ]
  },
  "source": "// SPDX-License-Identifier: Apache-2.0\npragma solidity ^0.8.0;\n\nimport \"../openzeppelin-presets/token/ERC20/extensions/ERC20Permit.sol\";\n\nimport \"../extension/ContractMetadata.sol\";\nimport \"../extension/Multicall.sol\";\nimport \"../extension/Ownable.sol\";\n\n/**\n *  The `ERC20Base` smart contract implements the ERC20 standard.\n *  It includes the following additions to standard ERC20 logic:\n *\n *      - Ability to mint & burn tokens via the provided `mint` & `burn` functions.\n *\n *      - Ownership of the contract, with the ability to restrict certain functions to\n *        only be called by the contract's owner.\n *\n *      - Multicall capability to perform multiple actions atomically\n *\n *      - EIP 2612 compliance: See {ERC20-permit} method, which can be used to change an account's ERC20 allowance by\n *                             presenting a message signed by the account.\n */\n\ncontract ERC20Base is ContractMetadata, Multicall, Ownable, ERC20Permit {\n    /*//////////////////////////////////////////////////////////////\n                            Constructor\n    //////////////////////////////////////////////////////////////*/\n\n    constructor(string memory _name, string memory _symbol) ERC20Permit(_name, _symbol) {\n        _setupOwner(msg.sender);\n    }\n\n    /*//////////////////////////////////////////////////////////////\n                            Minting logic\n    //////////////////////////////////////////////////////////////*/\n\n    /**\n     *  @notice          Lets an authorized address mint tokens to a recipient.\n     *  @dev             The logic in the `_canMint` function determines whether the caller is authorized to mint tokens.\n     *\n     *  @param _to       The recipient of the tokens to mint.\n     *  @param _amount   Quantity of tokens to mint.\n     */\n    function mintTo(address _to, uint256 _amount) public virtual {\n        require(_canMint(), \"Not authorized to mint.\");\n        require(_amount != 0, \"Minting zero tokens.\");\n\n        _mint(_to, _amount);\n    }\n\n    /**\n     *  @notice          Lets an owner a given amount of their tokens.\n     *  @dev             Caller should own the `_amount` of tokens.\n     *\n     *  @param _amount   The number of tokens to burn.\n     */\n    function burn(uint256 _amount) external virtual {\n        require(balanceOf(msg.sender) >= _amount, \"not enough balance\");\n        _burn(msg.sender, _amount);\n    }\n\n    /*//////////////////////////////////////////////////////////////\n                        Internal (overrideable) functions\n    //////////////////////////////////////////////////////////////*/\n\n    /// @dev Returns whether contract metadata can be set in the given execution context.\n    function _canSetContractURI() internal view virtual override returns (bool) {\n        return msg.sender == owner();\n    }\n\n    /// @dev Returns whether tokens can be minted in the given execution context.\n    function _canMint() internal view virtual returns (bool) {\n        return msg.sender == owner();\n    }\n\n    /// @dev Returns whether owner can be set in the given execution context.\n    function _canSetOwner() internal view virtual override returns (bool) {\n        return msg.sender == owner();\n    }\n}\n",
  "sourcePath": "@thirdweb-dev/contracts/base/ERC20Base.sol",
  "compiler": {
    "name": "solc",
    "version": "0.8.18+commit.87f61d96.Emscripten.clang"
  },
  "schemaVersion": "3.4.11",
  "updatedAt": "2023-02-13T12:05:00.488Z",
  "devdoc": {
    "events": {
      "ContractURIUpdated(string,string)": {
        "details": "Emitted when the contract URI is updated."
      },
      "OwnerUpdated(address,address)": {
        "details": "Emitted when a new Owner is set."
      }
    },
    "kind": "dev",
    "methods": {
      "DOMAIN_SEPARATOR()": {
        "details": "See {IERC20Permit-DOMAIN_SEPARATOR}."
      },
      "allowance(address,address)": {
        "details": "See {IERC20-allowance}."
      },
      "approve(address,uint256)": {
        "details": "See {IERC20-approve}. NOTE: If `amount` is the maximum `uint256`, the allowance is not updated on `transferFrom`. This is semantically equivalent to an infinite approval. Requirements: - `spender` cannot be the zero address."
      },
      "balanceOf(address)": {
        "details": "See {IERC20-balanceOf}."
      },
      "burn(uint256)": {
        "details": "Caller should own the `_amount` of tokens.",
        "params": {
          "_amount": "The number of tokens to burn."
        }
      },
      "decimals()": {
        "details": "Returns the number of decimals used to get its user representation. For example, if `decimals` equals `2`, a balance of `505` tokens should be displayed to a user as `5.05` (`505 / 10 ** 2`). Tokens usually opt for a value of 18, imitating the relationship between Ether and Wei. This is the value {ERC20} uses, unless this function is overridden; NOTE: This information is only used for _display_ purposes: it in no way affects any of the arithmetic of the contract, including {IERC20-balanceOf} and {IERC20-transfer}."
      },
      "decreaseAllowance(address,uint256)": {
        "details": "Atomically decreases the allowance granted to `spender` by the caller. This is an alternative to {approve} that can be used as a mitigation for problems described in {IERC20-approve}. Emits an {Approval} event indicating the updated allowance. Requirements: - `spender` cannot be the zero address. - `spender` must have allowance for the caller of at least `subtractedValue`."
      },
      "increaseAllowance(address,uint256)": {
        "details": "Atomically increases the allowance granted to `spender` by the caller. This is an alternative to {approve} that can be used as a mitigation for problems described in {IERC20-approve}. Emits an {Approval} event indicating the updated allowance. Requirements: - `spender` cannot be the zero address."
      },
      "mintTo(address,uint256)": {
        "details": "The logic in the `_canMint` function determines whether the caller is authorized to mint tokens.",
        "params": {
          "_amount": "Quantity of tokens to mint.",
          "_to": "The recipient of the tokens to mint."
        }
      },
      "multicall(bytes[])": {
        "details": "Receives and executes a batch of function calls on this contract.",
        "params": {
          "data": "The bytes data that makes up the batch of function calls to execute."
        },
        "returns": {
          "results": "The bytes data that makes up the result of the batch of function calls executed."
        }
      },
      "name()": {
        "details": "Returns the name of the token."
      },
      "nonces(address)": {
        "details": "See {IERC20Permit-nonces}."
      },
      "permit(address,address,uint256,uint256,uint8,bytes32,bytes32)": {
        "details": "See {IERC20Permit-permit}."
      },
      "setContractURI(string)": {
        "details": "Caller should be authorized to setup contractURI, e.g. contract admin.                  See {_canSetContractURI}.                  Emits {ContractURIUpdated Event}.",
        "params": {
          "_uri": "keccak256 hash of the role. e.g. keccak256(\"TRANSFER_ROLE\")"
        }
      },
      "setOwner(address)": {
        "params": {
          "_newOwner": "The address to set as the new owner of the contract."
        }
      },
      "symbol()": {
        "details": "Returns the symbol of the token, usually a shorter version of the name."
      },
      "totalSupply()": {
        "details": "See {IERC20-totalSupply}."
      },
      "transfer(address,uint256)": {
        "details": "See {IERC20-transfer}. Requirements: - `to` cannot be the zero address. - the caller must have a balance of at least `amount`."
      },
      "transferFrom(address,address,uint256)": {
        "details": "See {IERC20-transferFrom}. Emits an {Approval} event indicating the updated allowance. This is not required by the EIP. See the note at the beginning of {ERC20}. NOTE: Does not update the allowance if the current allowance is the maximum `uint256`. Requirements: - `from` and `to` cannot be the zero address. - `from` must have a balance of at least `amount`. - the caller must have allowance for ``from``'s tokens of at least `amount`."
      }
    },
    "version": 1
  },
  "userdoc": {
    "kind": "user",
    "methods": {
      "burn(uint256)": {
        "notice": "Lets an owner a given amount of their tokens."
      },
      "contractURI()": {
        "notice": "Returns the contract metadata URI."
      },
      "mintTo(address,uint256)": {
        "notice": "Lets an authorized address mint tokens to a recipient."
      },
      "multicall(bytes[])": {
        "notice": "Receives and executes a batch of function calls on this contract."
      },
      "owner()": {
        "notice": "Returns the owner of the contract."
      },
      "setContractURI(string)": {
        "notice": "Lets a contract admin set the URI for contract-level metadata."
      },
      "setOwner(address)": {
        "notice": "Lets an authorized wallet set a new owner for the contract."
      }
    },
    "notice": "The `ERC20Base` smart contract implements the ERC20 standard.  It includes the following additions to standard ERC20 logic:      - Ability to mint & burn tokens via the provided `mint` & `burn` functions.      - Ownership of the contract, with the ability to restrict certain functions to        only be called by the contract's owner.      - Multicall capability to perform multiple actions atomically      - EIP 2612 compliance: See {ERC20-permit} method, which can be used to change an account's ERC20 allowance by                             presenting a message signed by the account.",
    "version": 1
  }
}