{
  "contractName": "Multicall",
  "abi": [
    {
      "inputs": [
        {
          "internalType": "bytes[]",
          "name": "data",
          "type": "bytes[]"
        }
      ],
      "name": "multicall",
      "outputs": [
        {
          "internalType": "bytes[]",
          "name": "results",
          "type": "bytes[]"
        }
      ],
      "stateMutability": "nonpayable",
      "type": "function"
    }
  ],
  "bytecode": "0x608060405234801561001057600080fd5b5061082a806100206000396000f3fe608060405234801561001057600080fd5b506004361061002b5760003560e01c8063ac9650d814610030575b600080fd5b61004a6004803603810190610045919061035f565b610060565b60405161005791906104fe565b60405180910390f35b60608282905067ffffffffffffffff81111561007f5761007e610520565b5b6040519080825280602002602001820160405280156100b257816020015b606081526020019060019003908161009d5790505b50905060005b8383905081101561016557610134308585848181106100da576100d961054f565b5b90506020028101906100ec919061058d565b8080601f016020809104026020016040519081016040528093929190818152602001838380828437600081840152601f19601f8201169050808301925050505050505061016c565b8282815181106101475761014661054f565b5b6020026020010181905250808061015d90610629565b9150506100b8565b5092915050565b606061019183836040518060600160405280602781526020016107ce60279139610199565b905092915050565b60606101a484610266565b6101e3576040517f08c379a00000000000000000000000000000000000000000000000000000000081526004016101da906106f4565b60405180910390fd5b6000808573ffffffffffffffffffffffffffffffffffffffff168560405161020b9190610750565b600060405180830381855af49150503d8060008114610246576040519150601f19603f3d011682016040523d82523d6000602084013e61024b565b606091505b509150915061025b828286610289565b925050509392505050565b6000808273ffffffffffffffffffffffffffffffffffffffff163b119050919050565b60608315610299578290506102e9565b6000835111156102ac5782518084602001fd5b816040517f08c379a00000000000000000000000000000000000000000000000000000000081526004016102e091906107ab565b60405180910390fd5b9392505050565b600080fd5b600080fd5b600080fd5b600080fd5b600080fd5b60008083601f84011261031f5761031e6102fa565b5b8235905067ffffffffffffffff81111561033c5761033b6102ff565b5b60208301915083602082028301111561035857610357610304565b5b9250929050565b60008060208385031215610376576103756102f0565b5b600083013567ffffffffffffffff811115610394576103936102f5565b5b6103a085828601610309565b92509250509250929050565b600081519050919050565b600082825260208201905092915050565b6000819050602082019050919050565b600081519050919050565b600082825260208201905092915050565b60005b838110156104125780820151818401526020810190506103f7565b60008484015250505050565b6000601f19601f8301169050919050565b600061043a826103d8565b61044481856103e3565b93506104548185602086016103f4565b61045d8161041e565b840191505092915050565b6000610474838361042f565b905092915050565b6000602082019050919050565b6000610494826103ac565b61049e81856103b7565b9350836020820285016104b0856103c8565b8060005b858110156104ec57848403895281516104cd8582610468565b94506104d88361047c565b925060208a019950506001810190506104b4565b50829750879550505050505092915050565b600060208201905081810360008301526105188184610489565b905092915050565b7f4e487b7100000000000000000000000000000000000000000000000000000000600052604160045260246000fd5b7f4e487b7100000000000000000000000000000000000000000000000000000000600052603260045260246000fd5b600080fd5b600080fd5b600080fd5b600080833560016020038436030381126105aa576105a961057e565b5b80840192508235915067ffffffffffffffff8211156105cc576105cb610583565b5b6020830192506001820236038313156105e8576105e7610588565b5b509250929050565b7f4e487b7100000000000000000000000000000000000000000000000000000000600052601160045260246000fd5b6000819050919050565b60006106348261061f565b91507fffffffffffffffffffffffffffffffffffffffffffffffffffffffffffffffff8203610666576106656105f0565b5b600182019050919050565b600082825260208201905092915050565b7f416464726573733a2064656c65676174652063616c6c20746f206e6f6e2d636f60008201527f6e74726163740000000000000000000000000000000000000000000000000000602082015250565b60006106de602683610671565b91506106e982610682565b604082019050919050565b6000602082019050818103600083015261070d816106d1565b9050919050565b600081905092915050565b600061072a826103d8565b6107348185610714565b93506107448185602086016103f4565b80840191505092915050565b600061075c828461071f565b915081905092915050565b600081519050919050565b600061077d82610767565b6107878185610671565b93506107978185602086016103f4565b6107a08161041e565b840191505092915050565b600060208201905081810360008301526107c58184610772565b90509291505056fe416464726573733a206c6f772d6c6576656c2064656c65676174652063616c6c206661696c6564a2646970667358221220f6b7b7ee66d5d9943d6f3ce7d3aa412515b74852ae156259f24af3bd7622da1564736f6c63430008120033",
  "immutableReferences": {},
  "source": "// SPDX-License-Identifier: MIT\n// OpenZeppelin Contracts (last updated v4.5.0) (utils/Multicall.sol)\n\npragma solidity ^0.8.0;\n\nimport \"../lib/TWAddress.sol\";\nimport \"./interface/IMulticall.sol\";\n\n/**\n * @dev Provides a function to batch together multiple calls in a single external call.\n *\n * _Available since v4.1._\n */\ncontract Multicall is IMulticall {\n    /**\n     *  @notice Receives and executes a batch of function calls on this contract.\n     *  @dev Receives and executes a batch of function calls on this contract.\n     *\n     *  @param data The bytes data that makes up the batch of function calls to execute.\n     *  @return results The bytes data that makes up the result of the batch of function calls executed.\n     */\n    function multicall(bytes[] calldata data) external virtual override returns (bytes[] memory results) {\n        results = new bytes[](data.length);\n        for (uint256 i = 0; i < data.length; i++) {\n            results[i] = TWAddress.functionDelegateCall(address(this), data[i]);\n        }\n        return results;\n    }\n}\n",
  "sourcePath": "@thirdweb-dev/contracts/extension/Multicall.sol",
  "compiler": {
    "name": "solc",
    "version": "0.8.18+commit.87f61d96.Emscripten.clang"
  },
  "schemaVersion": "3.4.11",
  "updatedAt": "2023-02-13T12:05:00.519Z",
  "devdoc": {
    "details": "Provides a function to batch together multiple calls in a single external call. _Available since v4.1._",
    "kind": "dev",
    "methods": {
      "multicall(bytes[])": {
        "details": "Receives and executes a batch of function calls on this contract.",
        "params": {
          "data": "The bytes data that makes up the batch of function calls to execute."
        },
        "returns": {
          "results": "The bytes data that makes up the result of the batch of function calls executed."
        }
      }
    },
    "version": 1
  },
  "userdoc": {
    "kind": "user",
    "methods": {
      "multicall(bytes[])": {
        "notice": "Receives and executes a batch of function calls on this contract."
      }
    },
    "version": 1
  }
}