{
  "contractName": "Nft1155",
  "abi": [
    {
      "inputs": [
        {
          "internalType": "string",
          "name": "_name",
          "type": "string"
        },
        {
          "internalType": "string",
          "name": "_symbol",
          "type": "string"
        },
        {
          "internalType": "address",
          "name": "_royaltyRecipient",
          "type": "address"
        },
        {
          "internalType": "uint128",
          "name": "_royaltyBps",
          "type": "uint128"
        },
        {
          "internalType": "address",
          "name": "erc20addr",
          "type": "address"
        }
      ],
      "stateMutability": "nonpayable",
      "type": "constructor"
    },
    {
      "inputs": [
        {
          "internalType": "address",
          "name": "operator",
          "type": "address"
        }
      ],
      "name": "OperatorNotAllowed",
      "type": "error"
    },
    {
      "anonymous": false,
      "inputs": [
        {
          "indexed": true,
          "internalType": "address",
          "name": "_owner",
          "type": "address"
        },
        {
          "indexed": true,
          "internalType": "address",
          "name": "_operator",
          "type": "address"
        },
        {
          "indexed": false,
          "internalType": "bool",
          "name": "_approved",
          "type": "bool"
        }
      ],
      "name": "ApprovalForAll",
      "type": "event"
    },
    {
      "anonymous": false,
      "inputs": [
        {
          "indexed": false,
          "internalType": "string",
          "name": "prevURI",
          "type": "string"
        },
        {
          "indexed": false,
          "internalType": "string",
          "name": "newURI",
          "type": "string"
        }
      ],
      "name": "ContractURIUpdated",
      "type": "event"
    },
    {
      "anonymous": false,
      "inputs": [
        {
          "indexed": true,
          "internalType": "address",
          "name": "newRoyaltyRecipient",
          "type": "address"
        },
        {
          "indexed": false,
          "internalType": "uint256",
          "name": "newRoyaltyBps",
          "type": "uint256"
        }
      ],
      "name": "DefaultRoyalty",
      "type": "event"
    },
    {
      "anonymous": false,
      "inputs": [
        {
          "indexed": false,
          "internalType": "bool",
          "name": "restriction",
          "type": "bool"
        }
      ],
      "name": "OperatorRestriction",
      "type": "event"
    },
    {
      "anonymous": false,
      "inputs": [
        {
          "indexed": true,
          "internalType": "address",
          "name": "prevOwner",
          "type": "address"
        },
        {
          "indexed": true,
          "internalType": "address",
          "name": "newOwner",
          "type": "address"
        }
      ],
      "name": "OwnerUpdated",
      "type": "event"
    },
    {
      "anonymous": false,
      "inputs": [
        {
          "indexed": true,
          "internalType": "uint256",
          "name": "tokenId",
          "type": "uint256"
        },
        {
          "indexed": true,
          "internalType": "address",
          "name": "royaltyRecipient",
          "type": "address"
        },
        {
          "indexed": false,
          "internalType": "uint256",
          "name": "royaltyBps",
          "type": "uint256"
        }
      ],
      "name": "RoyaltyForToken",
      "type": "event"
    },
    {
      "anonymous": false,
      "inputs": [
        {
          "indexed": true,
          "internalType": "address",
          "name": "claimer",
          "type": "address"
        },
        {
          "indexed": true,
          "internalType": "address",
          "name": "receiver",
          "type": "address"
        },
        {
          "indexed": true,
          "internalType": "uint256",
          "name": "tokenId",
          "type": "uint256"
        },
        {
          "indexed": false,
          "internalType": "uint256",
          "name": "quantityClaimed",
          "type": "uint256"
        }
      ],
      "name": "TokensClaimed",
      "type": "event"
    },
    {
      "anonymous": false,
      "inputs": [
        {
          "indexed": true,
          "internalType": "uint256",
          "name": "startTokenId",
          "type": "uint256"
        },
        {
          "indexed": false,
          "internalType": "uint256",
          "name": "endTokenId",
          "type": "uint256"
        },
        {
          "indexed": false,
          "internalType": "string",
          "name": "baseURI",
          "type": "string"
        },
        {
          "indexed": false,
          "internalType": "bytes",
          "name": "encryptedBaseURI",
          "type": "bytes"
        }
      ],
      "name": "TokensLazyMinted",
      "type": "event"
    },
    {
      "anonymous": false,
      "inputs": [
        {
          "indexed": true,
          "internalType": "address",
          "name": "_operator",
          "type": "address"
        },
        {
          "indexed": true,
          "internalType": "address",
          "name": "_from",
          "type": "address"
        },
        {
          "indexed": true,
          "internalType": "address",
          "name": "_to",
          "type": "address"
        },
        {
          "indexed": false,
          "internalType": "uint256[]",
          "name": "_ids",
          "type": "uint256[]"
        },
        {
          "indexed": false,
          "internalType": "uint256[]",
          "name": "_values",
          "type": "uint256[]"
        }
      ],
      "name": "TransferBatch",
      "type": "event"
    },
    {
      "anonymous": false,
      "inputs": [
        {
          "indexed": true,
          "internalType": "address",
          "name": "_operator",
          "type": "address"
        },
        {
          "indexed": true,
          "internalType": "address",
          "name": "_from",
          "type": "address"
        },
        {
          "indexed": true,
          "internalType": "address",
          "name": "_to",
          "type": "address"
        },
        {
          "indexed": false,
          "internalType": "uint256",
          "name": "_id",
          "type": "uint256"
        },
        {
          "indexed": false,
          "internalType": "uint256",
          "name": "_value",
          "type": "uint256"
        }
      ],
      "name": "TransferSingle",
      "type": "event"
    },
    {
      "anonymous": false,
      "inputs": [
        {
          "indexed": false,
          "internalType": "string",
          "name": "_value",
          "type": "string"
        },
        {
          "indexed": true,
          "internalType": "uint256",
          "name": "_id",
          "type": "uint256"
        }
      ],
      "name": "URI",
      "type": "event"
    },
    {
      "inputs": [],
      "name": "OPERATOR_FILTER_REGISTRY",
      "outputs": [
        {
          "internalType": "contract IOperatorFilterRegistry",
          "name": "",
          "type": "address"
        }
      ],
      "stateMutability": "view",
      "type": "function"
    },
    {
      "inputs": [
        {
          "internalType": "address",
          "name": "",
          "type": "address"
        },
        {
          "internalType": "uint256",
          "name": "",
          "type": "uint256"
        }
      ],
      "name": "balanceOf",
      "outputs": [
        {
          "internalType": "uint256",
          "name": "",
          "type": "uint256"
        }
      ],
      "stateMutability": "view",
      "type": "function"
    },
    {
      "inputs": [
        {
          "internalType": "address[]",
          "name": "accounts",
          "type": "address[]"
        },
        {
          "internalType": "uint256[]",
          "name": "ids",
          "type": "uint256[]"
        }
      ],
      "name": "balanceOfBatch",
      "outputs": [
        {
          "internalType": "uint256[]",
          "name": "",
          "type": "uint256[]"
        }
      ],
      "stateMutability": "view",
      "type": "function"
    },
    {
      "inputs": [
        {
          "internalType": "address",
          "name": "_owner",
          "type": "address"
        },
        {
          "internalType": "uint256",
          "name": "_tokenId",
          "type": "uint256"
        },
        {
          "internalType": "uint256",
          "name": "_amount",
          "type": "uint256"
        }
      ],
      "name": "burn",
      "outputs": [],
      "stateMutability": "nonpayable",
      "type": "function"
    },
    {
      "inputs": [
        {
          "internalType": "address",
          "name": "_owner",
          "type": "address"
        },
        {
          "internalType": "uint256[]",
          "name": "_tokenIds",
          "type": "uint256[]"
        },
        {
          "internalType": "uint256[]",
          "name": "_amounts",
          "type": "uint256[]"
        }
      ],
      "name": "burnBatch",
      "outputs": [],
      "stateMutability": "nonpayable",
      "type": "function"
    },
    {
      "inputs": [
        {
          "internalType": "address",
          "name": "_receiver",
          "type": "address"
        },
        {
          "internalType": "uint256",
          "name": "_tokenId",
          "type": "uint256"
        },
        {
          "internalType": "uint256",
          "name": "_quantity",
          "type": "uint256"
        }
      ],
      "name": "claim",
      "outputs": [],
      "stateMutability": "payable",
      "type": "function"
    },
    {
      "inputs": [],
      "name": "contractURI",
      "outputs": [
        {
          "internalType": "string",
          "name": "",
          "type": "string"
        }
      ],
      "stateMutability": "view",
      "type": "function"
    },
    {
      "inputs": [],
      "name": "getBaseURICount",
      "outputs": [
        {
          "internalType": "uint256",
          "name": "",
          "type": "uint256"
        }
      ],
      "stateMutability": "view",
      "type": "function"
    },
    {
      "inputs": [
        {
          "internalType": "uint256",
          "name": "_index",
          "type": "uint256"
        }
      ],
      "name": "getBatchIdAtIndex",
      "outputs": [
        {
          "internalType": "uint256",
          "name": "",
          "type": "uint256"
        }
      ],
      "stateMutability": "view",
      "type": "function"
    },
    {
      "inputs": [],
      "name": "getDefaultRoyaltyInfo",
      "outputs": [
        {
          "internalType": "address",
          "name": "",
          "type": "address"
        },
        {
          "internalType": "uint16",
          "name": "",
          "type": "uint16"
        }
      ],
      "stateMutability": "view",
      "type": "function"
    },
    {
      "inputs": [
        {
          "internalType": "uint256",
          "name": "_tokenId",
          "type": "uint256"
        }
      ],
      "name": "getRoyaltyInfoForToken",
      "outputs": [
        {
          "internalType": "address",
          "name": "",
          "type": "address"
        },
        {
          "internalType": "uint16",
          "name": "",
          "type": "uint16"
        }
      ],
      "stateMutability": "view",
      "type": "function"
    },
    {
      "inputs": [
        {
          "internalType": "address",
          "name": "",
          "type": "address"
        },
        {
          "internalType": "address",
          "name": "",
          "type": "address"
        }
      ],
      "name": "isApprovedForAll",
      "outputs": [
        {
          "internalType": "bool",
          "name": "",
          "type": "bool"
        }
      ],
      "stateMutability": "view",
      "type": "function"
    },
    {
      "inputs": [
        {
          "internalType": "uint256",
          "name": "_amount",
          "type": "uint256"
        },
        {
          "internalType": "string",
          "name": "_baseURIForTokens",
          "type": "string"
        },
        {
          "internalType": "bytes",
          "name": "_data",
          "type": "bytes"
        }
      ],
      "name": "lazyMint",
      "outputs": [
        {
          "internalType": "uint256",
          "name": "batchId",
          "type": "uint256"
        }
      ],
      "stateMutability": "nonpayable",
      "type": "function"
    },
    {
      "inputs": [
        {
          "internalType": "bytes[]",
          "name": "data",
          "type": "bytes[]"
        }
      ],
      "name": "multicall",
      "outputs": [
        {
          "internalType": "bytes[]",
          "name": "results",
          "type": "bytes[]"
        }
      ],
      "stateMutability": "nonpayable",
      "type": "function"
    },
    {
      "inputs": [],
      "name": "name",
      "outputs": [
        {
          "internalType": "string",
          "name": "",
          "type": "string"
        }
      ],
      "stateMutability": "view",
      "type": "function"
    },
    {
      "inputs": [],
      "name": "nextTokenIdToMint",
      "outputs": [
        {
          "internalType": "uint256",
          "name": "",
          "type": "uint256"
        }
      ],
      "stateMutability": "view",
      "type": "function"
    },
    {
      "inputs": [],
      "name": "operatorRestriction",
      "outputs": [
        {
          "internalType": "bool",
          "name": "",
          "type": "bool"
        }
      ],
      "stateMutability": "view",
      "type": "function"
    },
    {
      "inputs": [],
      "name": "owner",
      "outputs": [
        {
          "internalType": "address",
          "name": "",
          "type": "address"
        }
      ],
      "stateMutability": "view",
      "type": "function"
    },
    {
      "inputs": [
        {
          "internalType": "uint256",
          "name": "tokenId",
          "type": "uint256"
        },
        {
          "internalType": "uint256",
          "name": "salePrice",
          "type": "uint256"
        }
      ],
      "name": "royaltyInfo",
      "outputs": [
        {
          "internalType": "address",
          "name": "receiver",
          "type": "address"
        },
        {
          "internalType": "uint256",
          "name": "royaltyAmount",
          "type": "uint256"
        }
      ],
      "stateMutability": "view",
      "type": "function"
    },
    {
      "inputs": [
        {
          "internalType": "address",
          "name": "from",
          "type": "address"
        },
        {
          "internalType": "address",
          "name": "to",
          "type": "address"
        },
        {
          "internalType": "uint256[]",
          "name": "ids",
          "type": "uint256[]"
        },
        {
          "internalType": "uint256[]",
          "name": "amounts",
          "type": "uint256[]"
        },
        {
          "internalType": "bytes",
          "name": "data",
          "type": "bytes"
        }
      ],
      "name": "safeBatchTransferFrom",
      "outputs": [],
      "stateMutability": "nonpayable",
      "type": "function"
    },
    {
      "inputs": [
        {
          "internalType": "address",
          "name": "from",
          "type": "address"
        },
        {
          "internalType": "address",
          "name": "to",
          "type": "address"
        },
        {
          "internalType": "uint256",
          "name": "id",
          "type": "uint256"
        },
        {
          "internalType": "uint256",
          "name": "amount",
          "type": "uint256"
        },
        {
          "internalType": "bytes",
          "name": "data",
          "type": "bytes"
        }
      ],
      "name": "safeTransferFrom",
      "outputs": [],
      "stateMutability": "nonpayable",
      "type": "function"
    },
    {
      "inputs": [
        {
          "internalType": "address",
          "name": "operator",
          "type": "address"
        },
        {
          "internalType": "bool",
          "name": "approved",
          "type": "bool"
        }
      ],
      "name": "setApprovalForAll",
      "outputs": [],
      "stateMutability": "nonpayable",
      "type": "function"
    },
    {
      "inputs": [
        {
          "internalType": "string",
          "name": "_uri",
          "type": "string"
        }
      ],
      "name": "setContractURI",
      "outputs": [],
      "stateMutability": "nonpayable",
      "type": "function"
    },
    {
      "inputs": [
        {
          "internalType": "address",
          "name": "_royaltyRecipient",
          "type": "address"
        },
        {
          "internalType": "uint256",
          "name": "_royaltyBps",
          "type": "uint256"
        }
      ],
      "name": "setDefaultRoyaltyInfo",
      "outputs": [],
      "stateMutability": "nonpayable",
      "type": "function"
    },
    {
      "inputs": [
        {
          "internalType": "bool",
          "name": "_restriction",
          "type": "bool"
        }
      ],
      "name": "setOperatorRestriction",
      "outputs": [],
      "stateMutability": "nonpayable",
      "type": "function"
    },
    {
      "inputs": [
        {
          "internalType": "address",
          "name": "_newOwner",
          "type": "address"
        }
      ],
      "name": "setOwner",
      "outputs": [],
      "stateMutability": "nonpayable",
      "type": "function"
    },
    {
      "inputs": [
        {
          "internalType": "uint256",
          "name": "_tokenId",
          "type": "uint256"
        },
        {
          "internalType": "address",
          "name": "_recipient",
          "type": "address"
        },
        {
          "internalType": "uint256",
          "name": "_bps",
          "type": "uint256"
        }
      ],
      "name": "setRoyaltyInfoForToken",
      "outputs": [],
      "stateMutability": "nonpayable",
      "type": "function"
    },
    {
      "inputs": [
        {
          "internalType": "bytes4",
          "name": "interfaceId",
          "type": "bytes4"
        }
      ],
      "name": "supportsInterface",
      "outputs": [
        {
          "internalType": "bool",
          "name": "",
          "type": "bool"
        }
      ],
      "stateMutability": "view",
      "type": "function"
    },
    {
      "inputs": [],
      "name": "symbol",
      "outputs": [
        {
          "internalType": "string",
          "name": "",
          "type": "string"
        }
      ],
      "stateMutability": "view",
      "type": "function"
    },
    {
      "inputs": [
        {
          "internalType": "uint256",
          "name": "",
          "type": "uint256"
        }
      ],
      "name": "totalSupply",
      "outputs": [
        {
          "internalType": "uint256",
          "name": "",
          "type": "uint256"
        }
      ],
      "stateMutability": "view",
      "type": "function"
    },
    {
      "inputs": [
        {
          "internalType": "uint256",
          "name": "_tokenId",
          "type": "uint256"
        }
      ],
      "name": "uri",
      "outputs": [
        {
          "internalType": "string",
          "name": "",
          "type": "string"
        }
      ],
      "stateMutability": "view",
      "type": "function"
    },
    {
      "inputs": [
        {
          "internalType": "address",
          "name": "_claimer",
          "type": "address"
        },
        {
          "internalType": "uint256",
          "name": "_tokenId",
          "type": "uint256"
        },
        {
          "internalType": "uint256",
          "name": "_quantity",
          "type": "uint256"
        }
      ],
      "name": "verifyClaim",
      "outputs": [],
      "stateMutability": "view",
      "type": "function"
    }
  ],
  "bytecode": "0x60806040523480156200001157600080fd5b50604051620069f0380380620069f083398181016040528101906200003791906200076b565b84848484733cc6cdda760b79bafa08df41ecfa224f810dceb660018585816000908162000065919062000a7c565b50806001908162000077919062000a7c565b50505060006daaeb6d7670e522a718067333cd4e73ffffffffffffffffffffffffffffffffffffffff163b11156200026f57801562000135576daaeb6d7670e522a718067333cd4e73ffffffffffffffffffffffffffffffffffffffff16637d3e3dbe30846040518363ffffffff1660e01b8152600401620000fb92919062000b74565b600060405180830381600087803b1580156200011657600080fd5b505af11580156200012b573d6000803e3d6000fd5b505050506200026e565b600073ffffffffffffffffffffffffffffffffffffffff168273ffffffffffffffffffffffffffffffffffffffff1614620001ef576daaeb6d7670e522a718067333cd4e73ffffffffffffffffffffffffffffffffffffffff1663a0af290330846040518363ffffffff1660e01b8152600401620001b592919062000b74565b600060405180830381600087803b158015620001d057600080fd5b505af1158015620001e5573d6000803e3d6000fd5b505050506200026d565b6daaeb6d7670e522a718067333cd4e73ffffffffffffffffffffffffffffffffffffffff16634420e486306040518263ffffffff1660e01b815260040162000238919062000ba1565b600060405180830381600087803b1580156200025357600080fd5b505af115801562000268573d6000803e3d6000fd5b505050505b5b5b50506001600d819055506200028a336200031060201b60201c565b620002ae82826fffffffffffffffffffffffffffffffff16620003d660201b60201c565b620002c06001620004d060201b60201c565b5050505080600f60006101000a81548173ffffffffffffffffffffffffffffffffffffffff021916908373ffffffffffffffffffffffffffffffffffffffff160217905550505050505062000ca9565b6000600660009054906101000a900473ffffffffffffffffffffffffffffffffffffffff16905081600660006101000a81548173ffffffffffffffffffffffffffffffffffffffff021916908373ffffffffffffffffffffffffffffffffffffffff1602179055508173ffffffffffffffffffffffffffffffffffffffff168173ffffffffffffffffffffffffffffffffffffffff167f8292fce18fa69edf4db7b94ea2e58241df0ae57f97e0a6c9b29067028bf92d7660405160405180910390a35050565b6127108111156200041e576040517f08c379a0000000000000000000000000000000000000000000000000000000008152600401620004159062000c1f565b60405180910390fd5b81600760006101000a81548173ffffffffffffffffffffffffffffffffffffffff021916908373ffffffffffffffffffffffffffffffffffffffff16021790555080600760146101000a81548161ffff021916908361ffff1602179055508173ffffffffffffffffffffffffffffffffffffffff167f90d7ec04bcb8978719414f82e52e4cb651db41d0e6f8cea6118c2191e6183adb82604051620004c4919062000c52565b60405180910390a25050565b80600c60006101000a81548160ff0219169083151502179055507f38475885990d8dfe9ca01f0ef160a1b5514426eab9ddbc953a3353410ba78096816040516200051b919062000c8c565b60405180910390a150565b6000604051905090565b600080fd5b600080fd5b600080fd5b600080fd5b6000601f19601f8301169050919050565b7f4e487b7100000000000000000000000000000000000000000000000000000000600052604160045260246000fd5b6200058f8262000544565b810181811067ffffffffffffffff82111715620005b157620005b062000555565b5b80604052505050565b6000620005c662000526565b9050620005d4828262000584565b919050565b600067ffffffffffffffff821115620005f757620005f662000555565b5b620006028262000544565b9050602081019050919050565b60005b838110156200062f57808201518184015260208101905062000612565b60008484015250505050565b6000620006526200064c84620005d9565b620005ba565b9050828152602081018484840111156200067157620006706200053f565b5b6200067e8482856200060f565b509392505050565b600082601f8301126200069e576200069d6200053a565b5b8151620006b08482602086016200063b565b91505092915050565b600073ffffffffffffffffffffffffffffffffffffffff82169050919050565b6000620006e682620006b9565b9050919050565b620006f881620006d9565b81146200070457600080fd5b50565b6000815190506200071881620006ed565b92915050565b60006fffffffffffffffffffffffffffffffff82169050919050565b62000745816200071e565b81146200075157600080fd5b50565b60008151905062000765816200073a565b92915050565b600080600080600060a086880312156200078a576200078962000530565b5b600086015167ffffffffffffffff811115620007ab57620007aa62000535565b5b620007b98882890162000686565b955050602086015167ffffffffffffffff811115620007dd57620007dc62000535565b5b620007eb8882890162000686565b9450506040620007fe8882890162000707565b9350506060620008118882890162000754565b9250506080620008248882890162000707565b9150509295509295909350565b600081519050919050565b7f4e487b7100000000000000000000000000000000000000000000000000000000600052602260045260246000fd5b600060028204905060018216806200088457607f821691505b6020821081036200089a57620008996200083c565b5b50919050565b60008190508160005260206000209050919050565b60006020601f8301049050919050565b600082821b905092915050565b600060088302620009047fffffffffffffffffffffffffffffffffffffffffffffffffffffffffffffffff82620008c5565b620009108683620008c5565b95508019841693508086168417925050509392505050565b6000819050919050565b6000819050919050565b60006200095d62000957620009518462000928565b62000932565b62000928565b9050919050565b6000819050919050565b62000979836200093c565b62000991620009888262000964565b848454620008d2565b825550505050565b600090565b620009a862000999565b620009b58184846200096e565b505050565b5b81811015620009dd57620009d16000826200099e565b600181019050620009bb565b5050565b601f82111562000a2c57620009f681620008a0565b62000a0184620008b5565b8101602085101562000a11578190505b62000a2962000a2085620008b5565b830182620009ba565b50505b505050565b600082821c905092915050565b600062000a516000198460080262000a31565b1980831691505092915050565b600062000a6c838362000a3e565b9150826002028217905092915050565b62000a878262000831565b67ffffffffffffffff81111562000aa35762000aa262000555565b5b62000aaf82546200086b565b62000abc828285620009e1565b600060209050601f83116001811462000af4576000841562000adf578287015190505b62000aeb858262000a5e565b86555062000b5b565b601f19841662000b0486620008a0565b60005b8281101562000b2e5784890151825560018201915060208501945060208101905062000b07565b8683101562000b4e578489015162000b4a601f89168262000a3e565b8355505b6001600288020188555050505b505050505050565b62000b6e81620006d9565b82525050565b600060408201905062000b8b600083018562000b63565b62000b9a602083018462000b63565b9392505050565b600060208201905062000bb8600083018462000b63565b92915050565b600082825260208201905092915050565b7f45786365656473206d6178206270730000000000000000000000000000000000600082015250565b600062000c07600f8362000bbe565b915062000c148262000bcf565b602082019050919050565b6000602082019050818103600083015262000c3a8162000bf8565b9050919050565b62000c4c8162000928565b82525050565b600060208201905062000c69600083018462000c41565b92915050565b60008115159050919050565b62000c868162000c6f565b82525050565b600060208201905062000ca3600083018462000c7b565b92915050565b615d378062000cb96000396000f3fe6080604052600436106101e25760003560e01c8063600dd5ea11610102578063ac9650d811610095578063e8a3d48511610064578063e8a3d48514610731578063e985e9c51461075c578063f242432a14610799578063f5298aca146107c2576101e2565b8063ac9650d81461064e578063b24f2d391461068b578063bd85b039146106b7578063d37c353b146106f4576101e2565b8063938e3d7b116100d1578063938e3d7b146105a857806395d89b41146105d15780639bcf7a15146105fc578063a22cb46514610625576101e2565b8063600dd5ea1461050057806363b45e2d146105295780636b20c454146105545780638da5cb5b1461057d576101e2565b80632eb2c2d61161017a5780634bbb1abf116101495780634bbb1abf146104315780634cc157df1461045a5780634e1273f414610498578063504c6e01146104d5576101e2565b80632eb2c2d61461038957806332f0cd64146103b25780633b1475a7146103db57806341f4343414610406576101e2565b806313af4035116101b657806313af4035146102c95780632419f51b146102f25780632a55205a1461032f5780632bc43fd91461036d576101e2565b8062fdd58e146101e757806301ffc9a71461022457806306fdde03146102615780630e89341c1461028c575b600080fd5b3480156101f357600080fd5b5061020e60048036038101906102099190613acc565b6107eb565b60405161021b9190613b1b565b60405180910390f35b34801561023057600080fd5b5061024b60048036038101906102469190613b8e565b610810565b6040516102589190613bd6565b60405180910390f35b34801561026d57600080fd5b5061027661090a565b6040516102839190613c81565b60405180910390f35b34801561029857600080fd5b506102b360048036038101906102ae9190613ca3565b610998565b6040516102c09190613c81565b60405180910390f35b3480156102d557600080fd5b506102f060048036038101906102eb9190613cd0565b6109d9565b005b3480156102fe57600080fd5b5061031960048036038101906103149190613ca3565b610a2c565b6040516103269190613b1b565b60405180910390f35b34801561033b57600080fd5b5061035660048036038101906103519190613cfd565b610a9d565b604051610364929190613d4c565b60405180910390f35b61038760048036038101906103829190613d75565b610adb565b005b34801561039557600080fd5b506103b060048036038101906103ab9190613fc5565b610bfa565b005b3480156103be57600080fd5b506103d960048036038101906103d491906140c0565b610c4d565b005b3480156103e757600080fd5b506103f0610ca0565b6040516103fd9190613b1b565b60405180910390f35b34801561041257600080fd5b5061041b610caa565b604051610428919061414c565b60405180910390f35b34801561043d57600080fd5b5061045860048036038101906104539190613d75565b610cbc565b005b34801561046657600080fd5b50610481600480360381019061047c9190613ca3565b610d9f565b60405161048f929190614184565b60405180910390f35b3480156104a457600080fd5b506104bf60048036038101906104ba9190614270565b610eaa565b6040516104cc91906143a6565b60405180910390f35b3480156104e157600080fd5b506104ea61100a565b6040516104f79190613bd6565b60405180910390f35b34801561050c57600080fd5b5061052760048036038101906105229190613acc565b61101d565b005b34801561053557600080fd5b5061053e611072565b60405161054b9190613b1b565b60405180910390f35b34801561056057600080fd5b5061057b600480360381019061057691906143c8565b61107f565b005b34801561058957600080fd5b506105926112c0565b60405161059f9190614453565b60405180910390f35b3480156105b457600080fd5b506105cf60048036038101906105ca919061450f565b6112ea565b005b3480156105dd57600080fd5b506105e661133d565b6040516105f39190613c81565b60405180910390f35b34801561060857600080fd5b50610623600480360381019061061e9190614558565b6113cb565b005b34801561063157600080fd5b5061064c600480360381019061064791906145ab565b611422565b005b34801561065a57600080fd5b5061067560048036038101906106709190614646565b61143b565b60405161068291906147aa565b60405180910390f35b34801561069757600080fd5b506106a0611547565b6040516106ae929190614184565b60405180910390f35b3480156106c357600080fd5b506106de60048036038101906106d99190613ca3565b611586565b6040516106eb9190613b1b565b60405180910390f35b34801561070057600080fd5b5061071b60048036038101906107169190614878565b61159e565b6040516107289190613b1b565b60405180910390f35b34801561073d57600080fd5b506107466116ef565b6040516107539190613c81565b60405180910390f35b34801561076857600080fd5b50610783600480360381019061077e919061490d565b61177d565b6040516107909190613bd6565b60405180910390f35b3480156107a557600080fd5b506107c060048036038101906107bb919061494d565b6117ac565b005b3480156107ce57600080fd5b506107e960048036038101906107e49190613d75565b6117ff565b005b6002602052816000526040600020602052806000526040600020600091509150505481565b60006301ffc9a760e01b827bffffffffffffffffffffffffffffffffffffffffffffffffffffffff1916148061086b575063d9b67a2660e01b827bffffffffffffffffffffffffffffffffffffffffffffffffffffffff1916145b8061089b5750630e89341c60e01b827bffffffffffffffffffffffffffffffffffffffffffffffffffffffff1916145b8061090357507f2a55205a000000000000000000000000000000000000000000000000000000007bffffffffffffffffffffffffffffffffffffffffffffffffffffffff1916827bffffffffffffffffffffffffffffffffffffffffffffffffffffffff1916145b9050919050565b6000805461091790614a13565b80601f016020809104026020016040519081016040528092919081815260200182805461094390614a13565b80156109905780601f1061096557610100808354040283529160200191610990565b820191906000526020600020905b81548152906001019060200180831161097357829003601f168201915b505050505081565b606060006109a5836119a7565b9050806109b184611b4c565b6040516020016109c2929190614a80565b604051602081830303815290604052915050919050565b6109e1611cac565b610a20576040517f08c379a0000000000000000000000000000000000000000000000000000000008152600401610a1790614af0565b60405180910390fd5b610a2981611ce9565b50565b6000610a36611072565b8210610a77576040517f08c379a0000000000000000000000000000000000000000000000000000000008152600401610a6e90614b5c565b60405180910390fd5b60098281548110610a8b57610a8a614b7c565b5b90600052602060002001549050919050565b600080600080610aac86610d9f565b61ffff16915091508193506127108186610ac69190614bda565b610ad09190614c4b565b925050509250929050565b6002600d5403610b20576040517f08c379a0000000000000000000000000000000000000000000000000000000008152600401610b1790614cc8565b60405180910390fd5b6002600d81905550610b30610ca0565b8210610b71576040517f08c379a0000000000000000000000000000000000000000000000000000000008152600401610b6890614d34565b60405180910390fd5b610b7c338383610cbc565b610b87838383611daf565b818373ffffffffffffffffffffffffffffffffffffffff163373ffffffffffffffffffffffffffffffffffffffff167fff097c7d8b1957a4ff09ef1361b5fb54dcede3941ba836d0beb9d10bec725de684604051610be59190613b1b565b60405180910390a46001600d81905550505050565b843373ffffffffffffffffffffffffffffffffffffffff168173ffffffffffffffffffffffffffffffffffffffff1614610c3857610c3733611dcf565b5b610c458686868686611ee2565b505050505050565b610c55611ff5565b610c94576040517f08c379a0000000000000000000000000000000000000000000000000000000008152600401610c8b90614dc6565b60405180910390fd5b610c9d81612032565b50565b6000600b54905090565b6daaeb6d7670e522a718067333cd4e81565b601e600f60009054906101000a900473ffffffffffffffffffffffffffffffffffffffff1673ffffffffffffffffffffffffffffffffffffffff166370a08231856040518263ffffffff1660e01b8152600401610d199190614453565b602060405180830381865afa158015610d36573d6000803e3d6000fd5b505050506040513d601f19601f82011682018060405250810190610d5a9190614dfb565b11610d9a576040517f08c379a0000000000000000000000000000000000000000000000000000000008152600401610d9190614e74565b60405180910390fd5b505050565b6000806000600860008581526020019081526020016000206040518060400160405290816000820160009054906101000a900473ffffffffffffffffffffffffffffffffffffffff1673ffffffffffffffffffffffffffffffffffffffff1673ffffffffffffffffffffffffffffffffffffffff1681526020016001820154815250509050600073ffffffffffffffffffffffffffffffffffffffff16816000015173ffffffffffffffffffffffffffffffffffffffff1614610e6b5780600001518160200151610ea0565b600760009054906101000a900473ffffffffffffffffffffffffffffffffffffffff16600760149054906101000a900461ffff165b9250925050915091565b60608151835114610ef0576040517f08c379a0000000000000000000000000000000000000000000000000000000008152600401610ee790614ee0565b60405180910390fd5b6000835167ffffffffffffffff811115610f0d57610f0c613dcd565b5b604051908082528060200260200182016040528015610f3b5781602001602082028036833780820191505090505b50905060005b8451811015610fff5760026000868381518110610f6157610f60614b7c565b5b602002602001015173ffffffffffffffffffffffffffffffffffffffff1673ffffffffffffffffffffffffffffffffffffffff1681526020019081526020016000206000858381518110610fb857610fb7614b7c565b5b6020026020010151815260200190815260200160002054828281518110610fe257610fe1614b7c565b5b60200260200101818152505080610ff890614f00565b9050610f41565b508091505092915050565b600c60009054906101000a900460ff1681565b611025612086565b611064576040517f08c379a000000000000000000000000000000000000000000000000000000000815260040161105b90614af0565b60405180910390fd5b61106e82826120c3565b5050565b6000600980549050905090565b60003390508373ffffffffffffffffffffffffffffffffffffffff168173ffffffffffffffffffffffffffffffffffffffff1614806111445750600360008573ffffffffffffffffffffffffffffffffffffffff1673ffffffffffffffffffffffffffffffffffffffff16815260200190815260200160002060008273ffffffffffffffffffffffffffffffffffffffff1673ffffffffffffffffffffffffffffffffffffffff16815260200190815260200160002060009054906101000a900460ff165b611183576040517f08c379a000000000000000000000000000000000000000000000000000000000815260040161117a90614f94565b60405180910390fd5b81518351146111c7576040517f08c379a00000000000000000000000000000000000000000000000000000000081526004016111be90615000565b60405180910390fd5b60005b83518110156112ae578281815181106111e6576111e5614b7c565b5b6020026020010151600260008773ffffffffffffffffffffffffffffffffffffffff1673ffffffffffffffffffffffffffffffffffffffff168152602001908152602001600020600086848151811061124257611241614b7c565b5b6020026020010151815260200190815260200160002054101561129a576040517f08c379a00000000000000000000000000000000000000000000000000000000081526004016112919061506c565b60405180910390fd5b6001816112a7919061508c565b90506111ca565b506112ba8484846121b8565b50505050565b6000600660009054906101000a900473ffffffffffffffffffffffffffffffffffffffff16905090565b6112f2612463565b611331576040517f08c379a000000000000000000000000000000000000000000000000000000000815260040161132890614af0565b60405180910390fd5b61133a816124a0565b50565b6001805461134a90614a13565b80601f016020809104026020016040519081016040528092919081815260200182805461137690614a13565b80156113c35780601f10611398576101008083540402835291602001916113c3565b820191906000526020600020905b8154815290600101906020018083116113a657829003601f168201915b505050505081565b6113d3612086565b611412576040517f08c379a000000000000000000000000000000000000000000000000000000000815260040161140990614af0565b60405180910390fd5b61141d83838361257c565b505050565b8161142c81611dcf565b61143683836126a7565b505050565b60608282905067ffffffffffffffff81111561145a57611459613dcd565b5b60405190808252806020026020018201604052801561148d57816020015b60608152602001906001900390816114785790505b50905060005b838390508110156115405761150f308585848181106114b5576114b4614b7c565b5b90506020028101906114c791906150cf565b8080601f016020809104026020016040519081016040528093929190818152602001838380828437600081840152601f19601f82011690508083019250505050505050612818565b82828151811061152257611521614b7c565b5b6020026020010181905250808061153890614f00565b915050611493565b5092915050565b600080600760009054906101000a900473ffffffffffffffffffffffffffffffffffffffff16600760149054906101000a900461ffff16915091509091565b600e6020528060005260406000206000915090505481565b60006115a8612845565b6115e7576040517f08c379a00000000000000000000000000000000000000000000000000000000081526004016115de90614af0565b60405180910390fd5b6000860361162a576040517f08c379a00000000000000000000000000000000000000000000000000000000081526004016116219061517e565b60405180910390fd5b6000600b549050611680818888888080601f016020809104026020016040519081016040528093929190818152602001838380828437600081840152601f19601f82011690508083019250505050505050612882565b600b600082955083919050555050807f2a0365091ef1a40953c670dce28177e37520648a6fdc91506bffac0ab045570d600189846116be919061508c565b6116c8919061519e565b888888886040516116dd95949392919061523d565b60405180910390a25095945050505050565b600580546116fc90614a13565b80601f016020809104026020016040519081016040528092919081815260200182805461172890614a13565b80156117755780601f1061174a57610100808354040283529160200191611775565b820191906000526020600020905b81548152906001019060200180831161175857829003601f168201915b505050505081565b60036020528160005260406000206020528060005260406000206000915091509054906101000a900460ff1681565b843373ffffffffffffffffffffffffffffffffffffffff168173ffffffffffffffffffffffffffffffffffffffff16146117ea576117e933611dcf565b5b6117f786868686866128e8565b505050505050565b60003390508373ffffffffffffffffffffffffffffffffffffffff168173ffffffffffffffffffffffffffffffffffffffff1614806118c45750600360008573ffffffffffffffffffffffffffffffffffffffff1673ffffffffffffffffffffffffffffffffffffffff16815260200190815260200160002060008273ffffffffffffffffffffffffffffffffffffffff1673ffffffffffffffffffffffffffffffffffffffff16815260200190815260200160002060009054906101000a900460ff165b611903576040517f08c379a00000000000000000000000000000000000000000000000000000000081526004016118fa90614f94565b60405180910390fd5b81600260008673ffffffffffffffffffffffffffffffffffffffff1673ffffffffffffffffffffffffffffffffffffffff1681526020019081526020016000206000858152602001908152602001600020541015611996576040517f08c379a000000000000000000000000000000000000000000000000000000000815260040161198d9061506c565b60405180910390fd5b6119a18484846129fb565b50505050565b606060006119b3611072565b905060006009805480602002602001604051908101604052809291908181526020018280548015611a0357602002820191906000526020600020905b8154815260200190600101908083116119ef575b5050505050905060005b82811015611b0b57818181518110611a2857611a27614b7c565b5b6020026020010151851015611af757600a6000838381518110611a4e57611a4d614b7c565b5b602002602001015181526020019081526020016000208054611a6f90614a13565b80601f0160208091040260200160405190810160405280929190818152602001828054611a9b90614a13565b8015611ae85780601f10611abd57610100808354040283529160200191611ae8565b820191906000526020600020905b815481529060010190602001808311611acb57829003601f168201915b50505050509350505050611b47565b600181611b04919061508c565b9050611a0d565b506040517f08c379a0000000000000000000000000000000000000000000000000000000008152600401611b3e906152d2565b60405180910390fd5b919050565b606060008203611b93576040518060400160405280600181526020017f30000000000000000000000000000000000000000000000000000000000000008152509050611ca7565b600082905060005b60008214611bc5578080611bae90614f00565b915050600a82611bbe9190614c4b565b9150611b9b565b60008167ffffffffffffffff811115611be157611be0613dcd565b5b6040519080825280601f01601f191660200182016040528015611c135781602001600182028036833780820191505090505b5090505b60008514611ca057600182611c2c919061519e565b9150600a85611c3b91906152f2565b6030611c47919061508c565b60f81b818381518110611c5d57611c5c614b7c565b5b60200101907effffffffffffffffffffffffffffffffffffffffffffffffffffffffffffff1916908160001a905350600a85611c999190614c4b565b9450611c17565b8093505050505b919050565b6000611cb66112c0565b73ffffffffffffffffffffffffffffffffffffffff163373ffffffffffffffffffffffffffffffffffffffff1614905090565b6000600660009054906101000a900473ffffffffffffffffffffffffffffffffffffffff16905081600660006101000a81548173ffffffffffffffffffffffffffffffffffffffff021916908373ffffffffffffffffffffffffffffffffffffffff1602179055508173ffffffffffffffffffffffffffffffffffffffff168173ffffffffffffffffffffffffffffffffffffffff167f8292fce18fa69edf4db7b94ea2e58241df0ae57f97e0a6c9b29067028bf92d7660405160405180910390a35050565b611dca83838360405180602001604052806000815250612c12565b505050565b600c60009054906101000a900460ff1615611edf5760006daaeb6d7670e522a718067333cd4e73ffffffffffffffffffffffffffffffffffffffff163b1115611ede576daaeb6d7670e522a718067333cd4e73ffffffffffffffffffffffffffffffffffffffff1663c617113430836040518363ffffffff1660e01b8152600401611e5b929190615323565b602060405180830381865afa158015611e78573d6000803e3d6000fd5b505050506040513d601f19601f82011682018060405250810190611e9c9190615361565b611edd57806040517fede71dcc000000000000000000000000000000000000000000000000000000008152600401611ed49190614453565b60405180910390fd5b5b5b50565b3373ffffffffffffffffffffffffffffffffffffffff168573ffffffffffffffffffffffffffffffffffffffff161480611fa25750600360008673ffffffffffffffffffffffffffffffffffffffff1673ffffffffffffffffffffffffffffffffffffffff16815260200190815260200160002060003373ffffffffffffffffffffffffffffffffffffffff1673ffffffffffffffffffffffffffffffffffffffff16815260200190815260200160002060009054906101000a900460ff165b611fe1576040517f08c379a0000000000000000000000000000000000000000000000000000000008152600401611fd8906153da565b60405180910390fd5b611fee8585858585612da1565b5050505050565b6000611fff6112c0565b73ffffffffffffffffffffffffffffffffffffffff163373ffffffffffffffffffffffffffffffffffffffff1614905090565b80600c60006101000a81548160ff0219169083151502179055507f38475885990d8dfe9ca01f0ef160a1b5514426eab9ddbc953a3353410ba780968160405161207b9190613bd6565b60405180910390a150565b60006120906112c0565b73ffffffffffffffffffffffffffffffffffffffff163373ffffffffffffffffffffffffffffffffffffffff1614905090565b612710811115612108576040517f08c379a00000000000000000000000000000000000000000000000000000000081526004016120ff90615446565b60405180910390fd5b81600760006101000a81548173ffffffffffffffffffffffffffffffffffffffff021916908373ffffffffffffffffffffffffffffffffffffffff16021790555080600760146101000a81548161ffff021916908361ffff1602179055508173ffffffffffffffffffffffffffffffffffffffff167f90d7ec04bcb8978719414f82e52e4cb651db41d0e6f8cea6118c2191e6183adb826040516121ac9190613b1b565b60405180910390a25050565b600073ffffffffffffffffffffffffffffffffffffffff168373ffffffffffffffffffffffffffffffffffffffff1603612227576040517f08c379a000000000000000000000000000000000000000000000000000000000815260040161221e906154b2565b60405180910390fd5b805182511461226b576040517f08c379a000000000000000000000000000000000000000000000000000000000815260040161226290614ee0565b60405180910390fd5b600033905061228e818560008686604051806020016040528060008152506130b0565b60005b83518110156123dd5760008482815181106122af576122ae614b7c565b5b6020026020010151905060008483815181106122ce576122cd614b7c565b5b602002602001015190506000600260008973ffffffffffffffffffffffffffffffffffffffff1673ffffffffffffffffffffffffffffffffffffffff168152602001908152602001600020600084815260200190815260200160002054905081811015612370576040517f08c379a00000000000000000000000000000000000000000000000000000000081526004016123679061551e565b60405180910390fd5b818103600260008a73ffffffffffffffffffffffffffffffffffffffff1673ffffffffffffffffffffffffffffffffffffffff16815260200190815260200160002060008581526020019081526020016000208190555050505080806123d590614f00565b915050612291565b50600073ffffffffffffffffffffffffffffffffffffffff168473ffffffffffffffffffffffffffffffffffffffff168273ffffffffffffffffffffffffffffffffffffffff167f4a39dc06d4c0dbc64b70af90fd698a233a518aa5d07e595d983b8c0526c8f7fb868660405161245592919061553e565b60405180910390a450505050565b600061246d6112c0565b73ffffffffffffffffffffffffffffffffffffffff163373ffffffffffffffffffffffffffffffffffffffff1614905090565b6000600580546124af90614a13565b80601f01602080910402602001604051908101604052809291908181526020018280546124db90614a13565b80156125285780601f106124fd57610100808354040283529160200191612528565b820191906000526020600020905b81548152906001019060200180831161250b57829003601f168201915b50505050509050816005908161253e9190615717565b507fc9c7c3fe08b88b4df9d4d47ef47d2c43d55c025a0ba88ca442580ed9e7348a1681836040516125709291906157e9565b60405180910390a15050565b6127108111156125c1576040517f08c379a00000000000000000000000000000000000000000000000000000000081526004016125b890615446565b60405180910390fd5b60405180604001604052808373ffffffffffffffffffffffffffffffffffffffff168152602001828152506008600085815260200190815260200160002060008201518160000160006101000a81548173ffffffffffffffffffffffffffffffffffffffff021916908373ffffffffffffffffffffffffffffffffffffffff160217905550602082015181600101559050508173ffffffffffffffffffffffffffffffffffffffff16837f7365cf4122f072a3365c20d54eff9b38d73c096c28e1892ec8f5b0e403a0f12d8360405161269a9190613b1b565b60405180910390a3505050565b60003390508273ffffffffffffffffffffffffffffffffffffffff168173ffffffffffffffffffffffffffffffffffffffff160361271a576040517f08c379a00000000000000000000000000000000000000000000000000000000081526004016127119061586c565b60405180910390fd5b81600360008373ffffffffffffffffffffffffffffffffffffffff1673ffffffffffffffffffffffffffffffffffffffff16815260200190815260200160002060008573ffffffffffffffffffffffffffffffffffffffff1673ffffffffffffffffffffffffffffffffffffffff16815260200190815260200160002060006101000a81548160ff0219169083151502179055508273ffffffffffffffffffffffffffffffffffffffff168173ffffffffffffffffffffffffffffffffffffffff167f17307eab39ab6107e8899845ad3d59bd9653f200f220920489ca2b5937696c318460405161280b9190613bd6565b60405180910390a3505050565b606061283d8383604051806060016040528060278152602001615cdb60279139613228565b905092915050565b600061284f6112c0565b73ffffffffffffffffffffffffffffffffffffffff163373ffffffffffffffffffffffffffffffffffffffff1614905090565b6000808385612891919061508c565b9050809150600981908060018154018082558091505060019003906000526020600020016000909190919091505582600a600083815260200190815260200160002090816128df9190615717565b50935093915050565b3373ffffffffffffffffffffffffffffffffffffffff168573ffffffffffffffffffffffffffffffffffffffff1614806129a85750600360008673ffffffffffffffffffffffffffffffffffffffff1673ffffffffffffffffffffffffffffffffffffffff16815260200190815260200160002060003373ffffffffffffffffffffffffffffffffffffffff1673ffffffffffffffffffffffffffffffffffffffff16815260200190815260200160002060009054906101000a900460ff165b6129e7576040517f08c379a00000000000000000000000000000000000000000000000000000000081526004016129de906153da565b60405180910390fd5b6129f485858585856132f5565b5050505050565b600073ffffffffffffffffffffffffffffffffffffffff168373ffffffffffffffffffffffffffffffffffffffff1603612a6a576040517f08c379a0000000000000000000000000000000000000000000000000000000008152600401612a61906154b2565b60405180910390fd5b6000339050612a9d81856000612a7f87613572565b612a8887613572565b604051806020016040528060008152506130b0565b6000600260008673ffffffffffffffffffffffffffffffffffffffff1673ffffffffffffffffffffffffffffffffffffffff168152602001908152602001600020600085815260200190815260200160002054905082811015612b35576040517f08c379a0000000000000000000000000000000000000000000000000000000008152600401612b2c9061551e565b60405180910390fd5b828103600260008773ffffffffffffffffffffffffffffffffffffffff1673ffffffffffffffffffffffffffffffffffffffff168152602001908152602001600020600086815260200190815260200160002081905550600073ffffffffffffffffffffffffffffffffffffffff168573ffffffffffffffffffffffffffffffffffffffff168373ffffffffffffffffffffffffffffffffffffffff167fc3d58168c5ae7397731d063d5bbf3d657854427343f4c083240f7aacaa2d0f628787604051612c0392919061588c565b60405180910390a45050505050565b600073ffffffffffffffffffffffffffffffffffffffff168473ffffffffffffffffffffffffffffffffffffffff1603612c81576040517f08c379a0000000000000000000000000000000000000000000000000000000008152600401612c7890615901565b60405180910390fd5b6000339050612ca581600087612c9688613572565b612c9f88613572565b876130b0565b82600260008773ffffffffffffffffffffffffffffffffffffffff1673ffffffffffffffffffffffffffffffffffffffff16815260200190815260200160002060008681526020019081526020016000206000828254612d05919061508c565b925050819055508473ffffffffffffffffffffffffffffffffffffffff16600073ffffffffffffffffffffffffffffffffffffffff168273ffffffffffffffffffffffffffffffffffffffff167fc3d58168c5ae7397731d063d5bbf3d657854427343f4c083240f7aacaa2d0f628787604051612d8392919061588c565b60405180910390a4612d9a816000878787876135ec565b5050505050565b8151835114612de5576040517f08c379a0000000000000000000000000000000000000000000000000000000008152600401612ddc90614ee0565b60405180910390fd5b600073ffffffffffffffffffffffffffffffffffffffff168473ffffffffffffffffffffffffffffffffffffffff1603612e54576040517f08c379a0000000000000000000000000000000000000000000000000000000008152600401612e4b90615901565b60405180910390fd5b6000339050612e678187878787876130b0565b60005b845181101561301b576000858281518110612e8857612e87614b7c565b5b602002602001015190506000858381518110612ea757612ea6614b7c565b5b602002602001015190506000600260008b73ffffffffffffffffffffffffffffffffffffffff1673ffffffffffffffffffffffffffffffffffffffff168152602001908152602001600020600084815260200190815260200160002054905081811015612f49576040517f08c379a0000000000000000000000000000000000000000000000000000000008152600401612f409061551e565b60405180910390fd5b818103600260008c73ffffffffffffffffffffffffffffffffffffffff1673ffffffffffffffffffffffffffffffffffffffff16815260200190815260200160002060008581526020019081526020016000208190555081600260008b73ffffffffffffffffffffffffffffffffffffffff1673ffffffffffffffffffffffffffffffffffffffff16815260200190815260200160002060008581526020019081526020016000206000828254613000919061508c565b925050819055505050508061301490614f00565b9050612e6a565b508473ffffffffffffffffffffffffffffffffffffffff168673ffffffffffffffffffffffffffffffffffffffff168273ffffffffffffffffffffffffffffffffffffffff167f4a39dc06d4c0dbc64b70af90fd698a233a518aa5d07e595d983b8c0526c8f7fb878760405161309292919061553e565b60405180910390a46130a88187878787876137bf565b505050505050565b6130be868686868686613992565b600073ffffffffffffffffffffffffffffffffffffffff168573ffffffffffffffffffffffffffffffffffffffff160361316f5760005b835181101561316d5782818151811061311157613110614b7c565b5b6020026020010151600e60008684815181106131305761312f614b7c565b5b602002602001015181526020019081526020016000206000828254613155919061508c565b925050819055508061316690614f00565b90506130f5565b505b600073ffffffffffffffffffffffffffffffffffffffff168473ffffffffffffffffffffffffffffffffffffffff16036132205760005b835181101561321e578281815181106131c2576131c1614b7c565b5b6020026020010151600e60008684815181106131e1576131e0614b7c565b5b602002602001015181526020019081526020016000206000828254613206919061519e565b925050819055508061321790614f00565b90506131a6565b505b505050505050565b60606132338461399a565b613272576040517f08c379a000000000000000000000000000000000000000000000000000000000815260040161326990615993565b60405180910390fd5b6000808573ffffffffffffffffffffffffffffffffffffffff168560405161329a91906159ef565b600060405180830381855af49150503d80600081146132d5576040519150601f19603f3d011682016040523d82523d6000602084013e6132da565b606091505b50915091506132ea8282866139bd565b925050509392505050565b600073ffffffffffffffffffffffffffffffffffffffff168473ffffffffffffffffffffffffffffffffffffffff1603613364576040517f08c379a000000000000000000000000000000000000000000000000000000000815260040161335b90615901565b60405180910390fd5b600033905061338781878761337888613572565b61338188613572565b876130b0565b6000600260008873ffffffffffffffffffffffffffffffffffffffff1673ffffffffffffffffffffffffffffffffffffffff16815260200190815260200160002060008681526020019081526020016000205490508381101561341f576040517f08c379a00000000000000000000000000000000000000000000000000000000081526004016134169061551e565b60405180910390fd5b838103600260008973ffffffffffffffffffffffffffffffffffffffff1673ffffffffffffffffffffffffffffffffffffffff16815260200190815260200160002060008781526020019081526020016000208190555083600260008873ffffffffffffffffffffffffffffffffffffffff1673ffffffffffffffffffffffffffffffffffffffff168152602001908152602001600020600087815260200190815260200160002060008282546134d6919061508c565b925050819055508573ffffffffffffffffffffffffffffffffffffffff168773ffffffffffffffffffffffffffffffffffffffff168373ffffffffffffffffffffffffffffffffffffffff167fc3d58168c5ae7397731d063d5bbf3d657854427343f4c083240f7aacaa2d0f62888860405161355392919061588c565b60405180910390a46135698288888888886135ec565b50505050505050565b60606000600167ffffffffffffffff81111561359157613590613dcd565b5b6040519080825280602002602001820160405280156135bf5781602001602082028036833780820191505090505b50905082816000815181106135d7576135d6614b7c565b5b60200260200101818152505080915050919050565b60008473ffffffffffffffffffffffffffffffffffffffff163b11156137b7578373ffffffffffffffffffffffffffffffffffffffff1663f23a6e6187878686866040518663ffffffff1660e01b815260040161364d959493929190615a3f565b6020604051808303816000875af192505050801561368957506040513d601f19601f820116820180604052508101906136869190615aae565b60015b61372e57613695615ae8565b806308c379a0036136f157506136a9615b0a565b806136b457506136f3565b806040517f08c379a00000000000000000000000000000000000000000000000000000000081526004016136e89190613c81565b60405180910390fd5b505b6040517f08c379a000000000000000000000000000000000000000000000000000000000815260040161372590615be6565b60405180910390fd5b63f23a6e6160e01b7bffffffffffffffffffffffffffffffffffffffffffffffffffffffff1916817bffffffffffffffffffffffffffffffffffffffffffffffffffffffff1916146137b5576040517f08c379a00000000000000000000000000000000000000000000000000000000081526004016137ac90615c52565b60405180910390fd5b505b505050505050565b60008473ffffffffffffffffffffffffffffffffffffffff163b111561398a578373ffffffffffffffffffffffffffffffffffffffff1663bc197c8187878686866040518663ffffffff1660e01b8152600401613820959493929190615c72565b6020604051808303816000875af192505050801561385c57506040513d601f19601f820116820180604052508101906138599190615aae565b60015b61390157613868615ae8565b806308c379a0036138c4575061387c615b0a565b8061388757506138c6565b806040517f08c379a00000000000000000000000000000000000000000000000000000000081526004016138bb9190613c81565b60405180910390fd5b505b6040517f08c379a00000000000000000000000000000000000000000000000000000000081526004016138f890615be6565b60405180910390fd5b63bc197c8160e01b7bffffffffffffffffffffffffffffffffffffffffffffffffffffffff1916817bffffffffffffffffffffffffffffffffffffffffffffffffffffffff191614613988576040517f08c379a000000000000000000000000000000000000000000000000000000000815260040161397f90615c52565b60405180910390fd5b505b505050505050565b505050505050565b6000808273ffffffffffffffffffffffffffffffffffffffff163b119050919050565b606083156139cd57829050613a1d565b6000835111156139e05782518084602001fd5b816040517f08c379a0000000000000000000000000000000000000000000000000000000008152600401613a149190613c81565b60405180910390fd5b9392505050565b6000604051905090565b600080fd5b600080fd5b600073ffffffffffffffffffffffffffffffffffffffff82169050919050565b6000613a6382613a38565b9050919050565b613a7381613a58565b8114613a7e57600080fd5b50565b600081359050613a9081613a6a565b92915050565b6000819050919050565b613aa981613a96565b8114613ab457600080fd5b50565b600081359050613ac681613aa0565b92915050565b60008060408385031215613ae357613ae2613a2e565b5b6000613af185828601613a81565b9250506020613b0285828601613ab7565b9150509250929050565b613b1581613a96565b82525050565b6000602082019050613b306000830184613b0c565b92915050565b60007fffffffff0000000000000000000000000000000000000000000000000000000082169050919050565b613b6b81613b36565b8114613b7657600080fd5b50565b600081359050613b8881613b62565b92915050565b600060208284031215613ba457613ba3613a2e565b5b6000613bb284828501613b79565b91505092915050565b60008115159050919050565b613bd081613bbb565b82525050565b6000602082019050613beb6000830184613bc7565b92915050565b600081519050919050565b600082825260208201905092915050565b60005b83811015613c2b578082015181840152602081019050613c10565b60008484015250505050565b6000601f19601f8301169050919050565b6000613c5382613bf1565b613c5d8185613bfc565b9350613c6d818560208601613c0d565b613c7681613c37565b840191505092915050565b60006020820190508181036000830152613c9b8184613c48565b905092915050565b600060208284031215613cb957613cb8613a2e565b5b6000613cc784828501613ab7565b91505092915050565b600060208284031215613ce657613ce5613a2e565b5b6000613cf484828501613a81565b91505092915050565b60008060408385031215613d1457613d13613a2e565b5b6000613d2285828601613ab7565b9250506020613d3385828601613ab7565b9150509250929050565b613d4681613a58565b82525050565b6000604082019050613d616000830185613d3d565b613d6e6020830184613b0c565b9392505050565b600080600060608486031215613d8e57613d8d613a2e565b5b6000613d9c86828701613a81565b9350506020613dad86828701613ab7565b9250506040613dbe86828701613ab7565b9150509250925092565b600080fd5b7f4e487b7100000000000000000000000000000000000000000000000000000000600052604160045260246000fd5b613e0582613c37565b810181811067ffffffffffffffff82111715613e2457613e23613dcd565b5b80604052505050565b6000613e37613a24565b9050613e438282613dfc565b919050565b600067ffffffffffffffff821115613e6357613e62613dcd565b5b602082029050602081019050919050565b600080fd5b6000613e8c613e8784613e48565b613e2d565b90508083825260208201905060208402830185811115613eaf57613eae613e74565b5b835b81811015613ed85780613ec48882613ab7565b845260208401935050602081019050613eb1565b5050509392505050565b600082601f830112613ef757613ef6613dc8565b5b8135613f07848260208601613e79565b91505092915050565b600080fd5b600067ffffffffffffffff821115613f3057613f2f613dcd565b5b613f3982613c37565b9050602081019050919050565b82818337600083830152505050565b6000613f68613f6384613f15565b613e2d565b905082815260208101848484011115613f8457613f83613f10565b5b613f8f848285613f46565b509392505050565b600082601f830112613fac57613fab613dc8565b5b8135613fbc848260208601613f55565b91505092915050565b600080600080600060a08688031215613fe157613fe0613a2e565b5b6000613fef88828901613a81565b955050602061400088828901613a81565b945050604086013567ffffffffffffffff81111561402157614020613a33565b5b61402d88828901613ee2565b935050606086013567ffffffffffffffff81111561404e5761404d613a33565b5b61405a88828901613ee2565b925050608086013567ffffffffffffffff81111561407b5761407a613a33565b5b61408788828901613f97565b9150509295509295909350565b61409d81613bbb565b81146140a857600080fd5b50565b6000813590506140ba81614094565b92915050565b6000602082840312156140d6576140d5613a2e565b5b60006140e4848285016140ab565b91505092915050565b6000819050919050565b600061411261410d61410884613a38565b6140ed565b613a38565b9050919050565b6000614124826140f7565b9050919050565b600061413682614119565b9050919050565b6141468161412b565b82525050565b6000602082019050614161600083018461413d565b92915050565b600061ffff82169050919050565b61417e81614167565b82525050565b60006040820190506141996000830185613d3d565b6141a66020830184614175565b9392505050565b600067ffffffffffffffff8211156141c8576141c7613dcd565b5b602082029050602081019050919050565b60006141ec6141e7846141ad565b613e2d565b9050808382526020820190506020840283018581111561420f5761420e613e74565b5b835b8181101561423857806142248882613a81565b845260208401935050602081019050614211565b5050509392505050565b600082601f83011261425757614256613dc8565b5b81356142678482602086016141d9565b91505092915050565b6000806040838503121561428757614286613a2e565b5b600083013567ffffffffffffffff8111156142a5576142a4613a33565b5b6142b185828601614242565b925050602083013567ffffffffffffffff8111156142d2576142d1613a33565b5b6142de85828601613ee2565b9150509250929050565b600081519050919050565b600082825260208201905092915050565b6000819050602082019050919050565b61431d81613a96565b82525050565b600061432f8383614314565b60208301905092915050565b6000602082019050919050565b6000614353826142e8565b61435d81856142f3565b935061436883614304565b8060005b838110156143995781516143808882614323565b975061438b8361433b565b92505060018101905061436c565b5085935050505092915050565b600060208201905081810360008301526143c08184614348565b905092915050565b6000806000606084860312156143e1576143e0613a2e565b5b60006143ef86828701613a81565b935050602084013567ffffffffffffffff8111156144105761440f613a33565b5b61441c86828701613ee2565b925050604084013567ffffffffffffffff81111561443d5761443c613a33565b5b61444986828701613ee2565b9150509250925092565b60006020820190506144686000830184613d3d565b92915050565b600067ffffffffffffffff82111561448957614488613dcd565b5b61449282613c37565b9050602081019050919050565b60006144b26144ad8461446e565b613e2d565b9050828152602081018484840111156144ce576144cd613f10565b5b6144d9848285613f46565b509392505050565b600082601f8301126144f6576144f5613dc8565b5b813561450684826020860161449f565b91505092915050565b60006020828403121561452557614524613a2e565b5b600082013567ffffffffffffffff81111561454357614542613a33565b5b61454f848285016144e1565b91505092915050565b60008060006060848603121561457157614570613a2e565b5b600061457f86828701613ab7565b935050602061459086828701613a81565b92505060406145a186828701613ab7565b9150509250925092565b600080604083850312156145c2576145c1613a2e565b5b60006145d085828601613a81565b92505060206145e1858286016140ab565b9150509250929050565b600080fd5b60008083601f84011261460657614605613dc8565b5b8235905067ffffffffffffffff811115614623576146226145eb565b5b60208301915083602082028301111561463f5761463e613e74565b5b9250929050565b6000806020838503121561465d5761465c613a2e565b5b600083013567ffffffffffffffff81111561467b5761467a613a33565b5b614687858286016145f0565b92509250509250929050565b600081519050919050565b600082825260208201905092915050565b6000819050602082019050919050565b600081519050919050565b600082825260208201905092915050565b60006146e6826146bf565b6146f081856146ca565b9350614700818560208601613c0d565b61470981613c37565b840191505092915050565b600061472083836146db565b905092915050565b6000602082019050919050565b600061474082614693565b61474a818561469e565b93508360208202850161475c856146af565b8060005b8581101561479857848403895281516147798582614714565b945061478483614728565b925060208a01995050600181019050614760565b50829750879550505050505092915050565b600060208201905081810360008301526147c48184614735565b905092915050565b60008083601f8401126147e2576147e1613dc8565b5b8235905067ffffffffffffffff8111156147ff576147fe6145eb565b5b60208301915083600182028301111561481b5761481a613e74565b5b9250929050565b60008083601f84011261483857614837613dc8565b5b8235905067ffffffffffffffff811115614855576148546145eb565b5b60208301915083600182028301111561487157614870613e74565b5b9250929050565b60008060008060006060868803121561489457614893613a2e565b5b60006148a288828901613ab7565b955050602086013567ffffffffffffffff8111156148c3576148c2613a33565b5b6148cf888289016147cc565b9450945050604086013567ffffffffffffffff8111156148f2576148f1613a33565b5b6148fe88828901614822565b92509250509295509295909350565b6000806040838503121561492457614923613a2e565b5b600061493285828601613a81565b925050602061494385828601613a81565b9150509250929050565b600080600080600060a0868803121561496957614968613a2e565b5b600061497788828901613a81565b955050602061498888828901613a81565b945050604061499988828901613ab7565b93505060606149aa88828901613ab7565b925050608086013567ffffffffffffffff8111156149cb576149ca613a33565b5b6149d788828901613f97565b9150509295509295909350565b7f4e487b7100000000000000000000000000000000000000000000000000000000600052602260045260246000fd5b60006002820490506001821680614a2b57607f821691505b602082108103614a3e57614a3d6149e4565b5b50919050565b600081905092915050565b6000614a5a82613bf1565b614a648185614a44565b9350614a74818560208601613c0d565b80840191505092915050565b6000614a8c8285614a4f565b9150614a988284614a4f565b91508190509392505050565b7f4e6f7420617574686f72697a6564000000000000000000000000000000000000600082015250565b6000614ada600e83613bfc565b9150614ae582614aa4565b602082019050919050565b60006020820190508181036000830152614b0981614acd565b9050919050565b7f496e76616c696420696e64657800000000000000000000000000000000000000600082015250565b6000614b46600d83613bfc565b9150614b5182614b10565b602082019050919050565b60006020820190508181036000830152614b7581614b39565b9050919050565b7f4e487b7100000000000000000000000000000000000000000000000000000000600052603260045260246000fd5b7f4e487b7100000000000000000000000000000000000000000000000000000000600052601160045260246000fd5b6000614be582613a96565b9150614bf083613a96565b9250828202614bfe81613a96565b91508282048414831517614c1557614c14614bab565b5b5092915050565b7f4e487b7100000000000000000000000000000000000000000000000000000000600052601260045260246000fd5b6000614c5682613a96565b9150614c6183613a96565b925082614c7157614c70614c1c565b5b828204905092915050565b7f5265656e7472616e637947756172643a207265656e7472616e742063616c6c00600082015250565b6000614cb2601f83613bfc565b9150614cbd82614c7c565b602082019050919050565b60006020820190508181036000830152614ce181614ca5565b9050919050565b7f696e76616c696420696400000000000000000000000000000000000000000000600082015250565b6000614d1e600a83613bfc565b9150614d2982614ce8565b602082019050919050565b60006020820190508181036000830152614d4d81614d11565b9050919050565b7f4e6f7420617574686f72697a656420746f20736574206f70657261746f72207260008201527f65737472696374696f6e2e000000000000000000000000000000000000000000602082015250565b6000614db0602b83613bfc565b9150614dbb82614d54565b604082019050919050565b60006020820190508181036000830152614ddf81614da3565b9050919050565b600081519050614df581613aa0565b92915050565b600060208284031215614e1157614e10613a2e565b5b6000614e1f84828501614de6565b91505092915050565b7f6e6f20746f6b656e730000000000000000000000000000000000000000000000600082015250565b6000614e5e600983613bfc565b9150614e6982614e28565b602082019050919050565b60006020820190508181036000830152614e8d81614e51565b9050919050565b7f4c454e4754485f4d49534d415443480000000000000000000000000000000000600082015250565b6000614eca600f83613bfc565b9150614ed582614e94565b602082019050919050565b60006020820190508181036000830152614ef981614ebd565b9050919050565b6000614f0b82613a96565b91507fffffffffffffffffffffffffffffffffffffffffffffffffffffffffffffffff8203614f3d57614f3c614bab565b5b600182019050919050565b7f556e617070726f7665642063616c6c6572000000000000000000000000000000600082015250565b6000614f7e601183613bfc565b9150614f8982614f48565b602082019050919050565b60006020820190508181036000830152614fad81614f71565b9050919050565b7f4c656e677468206d69736d617463680000000000000000000000000000000000600082015250565b6000614fea600f83613bfc565b9150614ff582614fb4565b602082019050919050565b6000602082019050818103600083015261501981614fdd565b9050919050565b7f4e6f7420656e6f75676820746f6b656e73206f776e6564000000000000000000600082015250565b6000615056601783613bfc565b915061506182615020565b602082019050919050565b6000602082019050818103600083015261508581615049565b9050919050565b600061509782613a96565b91506150a283613a96565b92508282019050808211156150ba576150b9614bab565b5b92915050565b600080fd5b600080fd5b600080fd5b600080833560016020038436030381126150ec576150eb6150c0565b5b80840192508235915067ffffffffffffffff82111561510e5761510d6150c5565b5b60208301925060018202360383131561512a576151296150ca565b5b509250929050565b7f3020616d74000000000000000000000000000000000000000000000000000000600082015250565b6000615168600583613bfc565b915061517382615132565b602082019050919050565b600060208201905081810360008301526151978161515b565b9050919050565b60006151a982613a96565b91506151b483613a96565b92508282039050818111156151cc576151cb614bab565b5b92915050565b60006151de8385613bfc565b93506151eb838584613f46565b6151f483613c37565b840190509392505050565b600082825260208201905092915050565b600061521c83856151ff565b9350615229838584613f46565b61523283613c37565b840190509392505050565b60006060820190506152526000830188613b0c565b81810360208301526152658186886151d2565b9050818103604083015261527a818486615210565b90509695505050505050565b7f496e76616c696420746f6b656e49640000000000000000000000000000000000600082015250565b60006152bc600f83613bfc565b91506152c782615286565b602082019050919050565b600060208201905081810360008301526152eb816152af565b9050919050565b60006152fd82613a96565b915061530883613a96565b92508261531857615317614c1c565b5b828206905092915050565b60006040820190506153386000830185613d3d565b6153456020830184613d3d565b9392505050565b60008151905061535b81614094565b92915050565b60006020828403121561537757615376613a2e565b5b60006153858482850161534c565b91505092915050565b7f214f574e45525f4f525f415050524f5645440000000000000000000000000000600082015250565b60006153c4601283613bfc565b91506153cf8261538e565b602082019050919050565b600060208201905081810360008301526153f3816153b7565b9050919050565b7f45786365656473206d6178206270730000000000000000000000000000000000600082015250565b6000615430600f83613bfc565b915061543b826153fa565b602082019050919050565b6000602082019050818103600083015261545f81615423565b9050919050565b7f46524f4d5f5a45524f5f41444452000000000000000000000000000000000000600082015250565b600061549c600e83613bfc565b91506154a782615466565b602082019050919050565b600060208201905081810360008301526154cb8161548f565b9050919050565b7f494e53554646494349454e545f42414c00000000000000000000000000000000600082015250565b6000615508601083613bfc565b9150615513826154d2565b602082019050919050565b60006020820190508181036000830152615537816154fb565b9050919050565b600060408201905081810360008301526155588185614348565b9050818103602083015261556c8184614348565b90509392505050565b60008190508160005260206000209050919050565b60006020601f8301049050919050565b600082821b905092915050565b6000600883026155d77fffffffffffffffffffffffffffffffffffffffffffffffffffffffffffffffff8261559a565b6155e1868361559a565b95508019841693508086168417925050509392505050565b600061561461560f61560a84613a96565b6140ed565b613a96565b9050919050565b6000819050919050565b61562e836155f9565b61564261563a8261561b565b8484546155a7565b825550505050565b600090565b61565761564a565b615662818484615625565b505050565b5b818110156156865761567b60008261564f565b600181019050615668565b5050565b601f8211156156cb5761569c81615575565b6156a58461558a565b810160208510156156b4578190505b6156c86156c08561558a565b830182615667565b50505b505050565b600082821c905092915050565b60006156ee600019846008026156d0565b1980831691505092915050565b600061570783836156dd565b9150826002028217905092915050565b61572082613bf1565b67ffffffffffffffff81111561573957615738613dcd565b5b6157438254614a13565b61574e82828561568a565b600060209050601f831160018114615781576000841561576f578287015190505b61577985826156fb565b8655506157e1565b601f19841661578f86615575565b60005b828110156157b757848901518255600182019150602085019450602081019050615792565b868310156157d457848901516157d0601f8916826156dd565b8355505b6001600288020188555050505b505050505050565b600060408201905081810360008301526158038185613c48565b905081810360208301526158178184613c48565b90509392505050565b7f415050524f56494e475f53454c46000000000000000000000000000000000000600082015250565b6000615856600e83613bfc565b915061586182615820565b602082019050919050565b6000602082019050818103600083015261588581615849565b9050919050565b60006040820190506158a16000830185613b0c565b6158ae6020830184613b0c565b9392505050565b7f544f5f5a45524f5f414444520000000000000000000000000000000000000000600082015250565b60006158eb600c83613bfc565b91506158f6826158b5565b602082019050919050565b6000602082019050818103600083015261591a816158de565b9050919050565b7f416464726573733a2064656c65676174652063616c6c20746f206e6f6e2d636f60008201527f6e74726163740000000000000000000000000000000000000000000000000000602082015250565b600061597d602683613bfc565b915061598882615921565b604082019050919050565b600060208201905081810360008301526159ac81615970565b9050919050565b600081905092915050565b60006159c9826146bf565b6159d381856159b3565b93506159e3818560208601613c0d565b80840191505092915050565b60006159fb82846159be565b915081905092915050565b6000615a11826146bf565b615a1b81856151ff565b9350615a2b818560208601613c0d565b615a3481613c37565b840191505092915050565b600060a082019050615a546000830188613d3d565b615a616020830187613d3d565b615a6e6040830186613b0c565b615a7b6060830185613b0c565b8181036080830152615a8d8184615a06565b90509695505050505050565b600081519050615aa881613b62565b92915050565b600060208284031215615ac457615ac3613a2e565b5b6000615ad284828501615a99565b91505092915050565b60008160e01c9050919050565b600060033d1115615b075760046000803e615b04600051615adb565b90505b90565b600060443d10615b9757615b1c613a24565b60043d036004823e80513d602482011167ffffffffffffffff82111715615b44575050615b97565b808201805167ffffffffffffffff811115615b625750505050615b97565b80602083010160043d038501811115615b7f575050505050615b97565b615b8e82602001850186613dfc565b82955050505050505b90565b7f2145524331313535524543454956455200000000000000000000000000000000600082015250565b6000615bd0601083613bfc565b9150615bdb82615b9a565b602082019050919050565b60006020820190508181036000830152615bff81615bc3565b9050919050565b7f544f4b454e535f52454a45435445440000000000000000000000000000000000600082015250565b6000615c3c600f83613bfc565b9150615c4782615c06565b602082019050919050565b60006020820190508181036000830152615c6b81615c2f565b9050919050565b600060a082019050615c876000830188613d3d565b615c946020830187613d3d565b8181036040830152615ca68186614348565b90508181036060830152615cba8185614348565b90508181036080830152615cce8184615a06565b9050969550505050505056fe416464726573733a206c6f772d6c6576656c2064656c65676174652063616c6c206661696c6564a2646970667358221220b5372a501615c6f4eeb746992a4dfcce2edf8eb2f4351e5f1a1cc2cfa3dca57264736f6c63430008120033",
  "immutableReferences": {},
  "source": "// SPDX-License-Identifier: UNLICENSED\npragma solidity 0.8.18;\n\n\n\n\nimport \"@thirdweb-dev/contracts/base/ERC1155LazyMint.sol\";\n\ninterface ERC20 {\n    function totalSupply() external view returns (uint supply);\n    function balanceOf(address _owner) external view returns (uint balance);\n    function transfer(address _to, uint _value) external returns (bool success);\n    function transferFrom(address _from, address _to, uint _value) external returns (bool success);\n    function approve(address _spender, uint _value) external returns (bool success);\n    function allowance(address _owner, address _spender) external view returns (uint remaining);\n    function decimals() external view returns(uint digits);\n    event Approval(address indexed _owner, address indexed _spender, uint _value);\n}\n\n\ncontract Nft1155 is ERC1155LazyMint {\n    ERC20 token;\n    constructor(\n        string memory _name,\n        string memory _symbol,\n        address _royaltyRecipient,\n        uint128 _royaltyBps,\n        address erc20addr\n    ) ERC1155LazyMint(_name, _symbol, _royaltyRecipient, _royaltyBps) {\n    token = ERC20(erc20addr);\n    }\n\n    function verifyClaim(address _claimer, uint256 _tokenId, uint256 _quantity) public  view virtual override {\n     // require(balanceOf((claimer));==1,\"can only mint one\");\n        require(token.balanceOf(_claimer)>30,\"no tokens\");\n    }\n}",
  "sourcePath": "/workspace/game-contract/contracts/nft1155.sol",
  "compiler": {
    "name": "solc",
    "version": "0.8.18+commit.87f61d96.Emscripten.clang"
  },
  "schemaVersion": "3.4.11",
  "updatedAt": "2023-02-13T12:35:32.562Z",
  "devdoc": {
    "events": {
      "ApprovalForAll(address,address,bool)": {
        "details": "MUST emit when approval for a second party/operator address to manage all tokens for an owner address is enabled or disabled (absense of an event assumes disabled)."
      },
      "ContractURIUpdated(string,string)": {
        "details": "Emitted when the contract URI is updated."
      },
      "DefaultRoyalty(address,uint256)": {
        "details": "Emitted when royalty info is updated."
      },
      "OwnerUpdated(address,address)": {
        "details": "Emitted when a new Owner is set."
      },
      "RoyaltyForToken(uint256,address,uint256)": {
        "details": "Emitted when royalty recipient for tokenId is set"
      },
      "TokensClaimed(address,address,uint256,uint256)": {
        "details": "Emitted when tokens are claimed"
      },
      "TokensLazyMinted(uint256,uint256,string,bytes)": {
        "details": "Emitted when tokens are lazy minted."
      },
      "TransferBatch(address,address,address,uint256[],uint256[])": {
        "details": "Either `TransferSingle` or `TransferBatch` MUST emit when tokens are transferred, including zero value transfers as well as minting or burning (see \"Safe Transfer Rules\" section of the standard). The `_operator` argument MUST be msg.sender. The `_from` argument MUST be the address of the holder whose balance is decreased. The `_to` argument MUST be the address of the recipient whose balance is increased. The `_ids` argument MUST be the list of tokens being transferred. The `_values` argument MUST be the list of number of tokens (matching the list and order of tokens specified in _ids) the holder balance is decreased by and match what the recipient balance is increased by. When minting/creating tokens, the `_from` argument MUST be set to `0x0` (i.e. zero address). When burning/destroying tokens, the `_to` argument MUST be set to `0x0` (i.e. zero address)."
      },
      "TransferSingle(address,address,address,uint256,uint256)": {
        "details": "Either `TransferSingle` or `TransferBatch` MUST emit when tokens are transferred, including zero value transfers as well as minting or burning (see \"Safe Transfer Rules\" section of the standard). The `_operator` argument MUST be msg.sender. The `_from` argument MUST be the address of the holder whose balance is decreased. The `_to` argument MUST be the address of the recipient whose balance is increased. The `_id` argument MUST be the token type being transferred. The `_value` argument MUST be the number of tokens the holder balance is decreased by and match what the recipient balance is increased by. When minting/creating tokens, the `_from` argument MUST be set to `0x0` (i.e. zero address). When burning/destroying tokens, the `_to` argument MUST be set to `0x0` (i.e. zero address)."
      },
      "URI(string,uint256)": {
        "details": "MUST emit when the URI is updated for a token ID. URIs are defined in RFC 3986. The URI MUST point a JSON file that conforms to the \"ERC-1155 Metadata URI JSON Schema\"."
      }
    },
    "kind": "dev",
    "methods": {
      "burn(address,uint256,uint256)": {
        "params": {
          "_amount": "The amount of the NFT to burn.",
          "_owner": "The owner of the NFT to burn.",
          "_tokenId": "The tokenId of the NFT to burn."
        }
      },
      "burnBatch(address,uint256[],uint256[])": {
        "params": {
          "_amounts": "The amounts of the NFTs to burn.",
          "_owner": "The owner of the NFTs to burn.",
          "_tokenIds": "The tokenIds of the NFTs to burn."
        }
      },
      "claim(address,uint256,uint256)": {
        "details": "The logic in `verifyClaim` determines whether the caller is authorized to mint NFTs.                   The logic in `transferTokensOnClaim` does actual minting of tokens,                   can also be used to apply other state changes.",
        "params": {
          "_quantity": "The number of tokens to mint.",
          "_receiver": "The recipient of the tokens to mint.",
          "_tokenId": "The tokenId of the lazy minted NFT to mint."
        }
      },
      "getBaseURICount()": {
        "details": "Each batch of tokens has an in ID and an associated `baseURI`.                  See {batchIds}."
      },
      "getBatchIdAtIndex(uint256)": {
        "details": "See {getBaseURICount}.",
        "params": {
          "_index": "ID of a token."
        }
      },
      "getRoyaltyInfoForToken(uint256)": {
        "details": "Returns royalty recipient and bps for `_tokenId`.",
        "params": {
          "_tokenId": "The tokenID of the NFT for which to query royalty info."
        }
      },
      "lazyMint(uint256,string,bytes)": {
        "params": {
          "_amount": "The number of NFTs to lazy mint.",
          "_baseURIForTokens": "The base URI for the 'n' number of NFTs being lazy minted, where the metadata for each                           of those NFTs is `${baseURIForTokens}/${tokenId}`.",
          "_data": "Additional bytes data to be used at the discretion of the consumer of the contract."
        },
        "returns": {
          "batchId": "         A unique integer identifier for the batch of NFTs lazy minted together."
        }
      },
      "multicall(bytes[])": {
        "details": "Receives and executes a batch of function calls on this contract.",
        "params": {
          "data": "The bytes data that makes up the batch of function calls to execute."
        },
        "returns": {
          "results": "The bytes data that makes up the result of the batch of function calls executed."
        }
      },
      "royaltyInfo(uint256,uint256)": {
        "details": "Returns royalty amount and recipient for `tokenId` and `salePrice`.",
        "params": {
          "salePrice": "Sale price of the token.",
          "tokenId": "The tokenID of the NFT for which to query royalty info."
        },
        "returns": {
          "receiver": "       Address of royalty recipient account.",
          "royaltyAmount": "  Royalty amount calculated at current royaltyBps value."
        }
      },
      "safeBatchTransferFrom(address,address,uint256[],uint256[],bytes)": {
        "details": "See {IERC1155-safeBatchTransferFrom}."
      },
      "safeTransferFrom(address,address,uint256,uint256,bytes)": {
        "details": "See {IERC1155-safeTransferFrom}."
      },
      "setApprovalForAll(address,bool)": {
        "details": "See {ERC1155-setApprovalForAll}"
      },
      "setContractURI(string)": {
        "details": "Caller should be authorized to setup contractURI, e.g. contract admin.                  See {_canSetContractURI}.                  Emits {ContractURIUpdated Event}.",
        "params": {
          "_uri": "keccak256 hash of the role. e.g. keccak256(\"TRANSFER_ROLE\")"
        }
      },
      "setDefaultRoyaltyInfo(address,uint256)": {
        "details": "Caller should be authorized to set royalty info.                  See {_canSetRoyaltyInfo}.                  Emits {DefaultRoyalty Event}; See {_setupDefaultRoyaltyInfo}.",
        "params": {
          "_royaltyBps": "Updated royalty bps.",
          "_royaltyRecipient": "Address to be set as default royalty recipient."
        }
      },
      "setOwner(address)": {
        "params": {
          "_newOwner": "The address to set as the new owner of the contract."
        }
      },
      "setRoyaltyInfoForToken(uint256,address,uint256)": {
        "details": "Sets royalty info for `_tokenId`. Caller should be authorized to set royalty info.                  See {_canSetRoyaltyInfo}.                  Emits {RoyaltyForToken Event}; See {_setupRoyaltyInfoForToken}.",
        "params": {
          "_bps": "Updated royalty bps for the token Id.",
          "_recipient": "Address to be set as royalty recipient for given token Id."
        }
      },
      "verifyClaim(address,uint256,uint256)": {
        "details": "Checks a request to claim NFTs against a custom condition.",
        "params": {
          "_claimer": "Caller of the claim function.",
          "_quantity": "The number of NFTs being claimed.",
          "_tokenId": "The tokenId of the lazy minted NFT to mint."
        }
      }
    },
    "version": 1
  },
  "userdoc": {
    "kind": "user",
    "methods": {
      "balanceOf(address,uint256)": {
        "notice": "Get the balance of an account's Tokens."
      },
      "burn(address,uint256,uint256)": {
        "notice": "Lets an owner or approved operator burn NFTs of the given tokenId."
      },
      "burnBatch(address,uint256[],uint256[])": {
        "notice": "Lets an owner or approved operator burn NFTs of the given tokenIds."
      },
      "claim(address,uint256,uint256)": {
        "notice": "Lets an address claim multiple lazy minted NFTs at once to a recipient.                   This function prevents any reentrant calls, and is not allowed to be overridden.                   Contract creators should override `verifyClaim` and `transferTokensOnClaim`                   functions to create custom logic for verification and claiming,                   for e.g. price collection, allowlist, max quantity, etc."
      },
      "contractURI()": {
        "notice": "Returns the contract metadata URI."
      },
      "getBaseURICount()": {
        "notice": "Returns the count of batches of NFTs."
      },
      "getBatchIdAtIndex(uint256)": {
        "notice": "Returns the ID for the batch of tokens the given tokenId belongs to."
      },
      "getDefaultRoyaltyInfo()": {
        "notice": "Returns the defualt royalty recipient and BPS for this contract's NFTs."
      },
      "getRoyaltyInfoForToken(uint256)": {
        "notice": "View royalty info for a given token."
      },
      "isApprovedForAll(address,address)": {
        "notice": "Queries the approval status of an operator for a given owner."
      },
      "lazyMint(uint256,string,bytes)": {
        "notice": "Lets an authorized address lazy mint a given amount of NFTs."
      },
      "multicall(bytes[])": {
        "notice": "Receives and executes a batch of function calls on this contract."
      },
      "nextTokenIdToMint()": {
        "notice": "The tokenId assigned to the next new NFT to be lazy minted."
      },
      "owner()": {
        "notice": "Returns the owner of the contract."
      },
      "royaltyInfo(uint256,uint256)": {
        "notice": "View royalty info for a given token and sale price."
      },
      "setContractURI(string)": {
        "notice": "Lets a contract admin set the URI for contract-level metadata."
      },
      "setDefaultRoyaltyInfo(address,uint256)": {
        "notice": "Updates default royalty recipient and bps."
      },
      "setOwner(address)": {
        "notice": "Lets an authorized wallet set a new owner for the contract."
      },
      "setRoyaltyInfoForToken(uint256,address,uint256)": {
        "notice": "Updates default royalty recipient and bps for a particular token."
      },
      "supportsInterface(bytes4)": {
        "notice": "Returns whether this contract supports the given interface."
      },
      "totalSupply(uint256)": {
        "notice": "Returns the total supply of NFTs of a given tokenId"
      },
      "uri(uint256)": {
        "notice": "Returns the metadata URI for the given tokenId."
      },
      "verifyClaim(address,uint256,uint256)": {
        "notice": "Override this function to add logic for claim verification, based on conditions                   such as allowlist, price, max quantity etc."
      }
    },
    "version": 1
  }
}